:020000040800F2
:10000000C80D0020FD020008310400083304000878
:100010003504000837040008390400080000000017
:100020000000000000000000000000003B04000889
:100030003D040008000000003F04000841040008DF
:100040001703000817030008170300081703000828
:100050001703000817030008170300081703000818
:100060001703000817030008170300081703000808
:1000700017030008170300081703000817030008F8
:100080004D0400084B04000817030008170300087C
:1000900017030008170300081703000817030008D8
:1000A00017030008170300081703000817030008C8
:1000B00017030008170300081703000817030008B8
:1000C00017030008170300081703000817030008A8
:1000D0001703000817030008450400081703000869
:1000E0001703000817030008170300081703000888
:1000F0001703000817030008170300081703000878
:100100001703000847040008170300081703000836
:100110001703000817030008170300081703000857
:100120001703000817030008170300084F0400080E
:10013000170300084304000817030008170300080A
:100140001703000817030008170300081703000827
:100150001703000817030008170300081703000817
:100160001703000817030008170300081703000807
:1001700017030008170300081703000817030008F7
:1001800017030008DFF80CD006F032F800480047EB
:10019000EB030008C80D002080F3088870470000BA
:1001A0004D4810B5016841F0010101604A4A002143
:1001B000083211600268494B1A400260031D484A28
:1001C0001A60026822F48022026043480C30016009
:1001D00000F03BF843494FF00060086010BD70B577
:1001E0003D4C08342068404A10F00C013F4804D0D0
:1001F0003F4D042903D0082903D002601BE00560AD
:1002000019E03549091D0B68C3F380560B6803F0EC
:100210003F0316B1B5FBF3F201E0B2FBF3F20B685A
:100220000968C3F388135A43C1F30141491C4900CB
:10023000B2FBF1F1016021682C4AC1F30311121DD8
:10024000515C0268CA40026070BD0CB500212248B2
:1002500001910091026842F4803202604FF4A06381
:10026000026802F400320092019A521C0192009A34
:1002700012B9019A9A42F3D10268920329D5012159
:100280000091154908310A680A600A6842F4004280
:100290000A600A6842F4A0520A600B1F154A1A60ED
:1002A000026842F08072026002689201FCD5124A34
:1002B00040F203701060086820F0030008600868CE
:1002C00040F0020008600868C0F381000228FAD1FB
:1002D0000CBD00910CBD000000380240FFFFF6FE8F
:1002E0001030002408ED00E00024F400000000209D
:1002F00040787D01193C4005003C0240064880479B
:1003000006480047FEE77047FEE7FEE7FEE7FEE728
:10031000FEE7FEE7FEE7FEE7A10100088501000811
:1003200008B54FF4C06002F045FA31208DF80000A6
:1003300000208DF801008DF8020001208DF80300E7
:10034000684602F03CFA0121062001F099FD00F018
:100350009BFE002004F050F8012004F04DF802202C
:1003600004F04AF8032004F047F8002004F06CF889
:10037000012004F069F8022004F066F8032004F07C
:1003800063F808BD38B54FF444340422214668466A
:1003900000F08EFF04222449684605F017FF00286C
:1003A00008D00121204600F0ADFF042221461E485E
:1003B00000F021FF38BD10B5012001F0A1FC612043
:1003C00001F05AFC0028FAD045F2555002F062FEC6
:1003D000062002F062FE40F6FF7002F061FE02F0BD
:1003E00062FEBDE8104002F063BE10B5FFF7E3FF08
:1003F000FFF796FFFFF7C6FF01F062F801F023F95F
:10040000002010BD10B50168084A1140B1F1005F2D
:1004100009D14168044C61600068FFF7BDFE606867
:10042000BDE81040004710BD200000200000FE2F56
:100430007047FEE7FEE7FEE7FEE77047704770474C
:1004400070477047704703F03BBF7047704703F039
:100450007DBF00000021A0F100634FF48042934271
:100460003FD34C490144914201D2082139E04A4925
:100470000144914201D2102133E0484901449142A4
:1004800001D218212DE046490144B1F5803F01D247
:10049000202126E0434942184FF400318A4201D21C
:1004A00028211EE0404A02448A4201D2302118E04D
:1004B0003E4A02448A4201D2382112E03C4A0244B8
:1004C0008A4201D240210CE03A4A02448A4201D2D7
:1004D000482106E0384A1044884201D2502100E009
:1004E00058210846704710B502F028FAF32002F0B0
:1004F000B0FB29484042FFF7ADFF304C60602A480E
:100500004042FFF7A7FFA060606804E0022102F00C
:1005100050FA206908302061A1688842F6D310BDE6
:100520002DE9F0410D461C49244C0027494246184C
:10053000DFF88C80E6600BE018F80710E06802F046
:10054000F2FA082800D0FEE7E068401C7F1CE0605B
:10055000AF42F1DBB5F5007F01DA02F0FBF90020D4
:10056000E660607042460CE0E1680B682370135C43
:100570002678B34202D063785B1C6370491C401C30
:10058000E160A842F0DB0F48627801681144016025
:10059000BDE8F08100C0FFF70080FFF70040FFF7E3
:1005A0000000FFF70000FEF70000FCF70000FAF77C
:1005B0000000F8F70000F6F70000F4F7280000202C
:1005C000A000002018000020002101604160FE49C9
:1005D0008160FE49C160FC49C9430161FB49C943CF
:1005E000416170472DE9F04FCA780D684E6862F39B
:1005F0001F65CA79D1F808C062F31F66CA7A8DB048
:1006000062F31F6CE146CA7BD1F80CC0DFF8C083EF
:1006100062F31F6CE346CA7CD1F810C062F31F6C12
:10062000E646CA7DD1F814C062F31F6CE246CA7E6A
:10063000D1F818C062F31F6CCDF800C0CA7FCF6933
:10064000D1F820C062F31F6791F8232062F31F6C7A
:10065000CDF804C091F82720D1F824C062F31F6CB4
:10066000CDF808C091F82B20D1F828C062F31F6C98
:10067000CDF80CC091F82F20D1F82CC062F31F6C7C
:10068000CDF810C091F83320D1F830C062F31F6C60
:10069000CDF814C091F83720D1F834C062F31F6C44
:1006A000CDF818C091F83B20D1F838C062F31F6C28
:1006B000CDF81CC091F83F20D1F83CC062F31F6C0C
:1006C000CDF820C081680C91C2680B9203690A932F
:1006D000446905EB010C83EA040111406140414487
:1006E000614406EB040C099402EB716182EA030495
:1006F0000C40DFF8E0825C404444644409EB030CA6
:1007000001EB345481EA02032340DFF8CC825340EA
:10071000434463440BEB020C04EBF33384EA010221
:100720001A40DFF8B8824A40424462440EEB010CA2
:1007300003EBB22283EA04011140DFF8A482614096
:10074000414461440AEB040C02EB716182EA030448
:100750000C40DFF890825C4044446444DDF800C003
:1007600001EB34549C4481EA02032340DFF8788291
:1007700053404344634407EB020C04EBF33384EA35
:1007800001021A40DFF864824A4042446244DDF8C4
:1007900004C003EBB2228C4483EA04011140DFF869
:1007A0005082614041446144DDF808C002EB716150
:1007B000A44482EA03040C405C40DFF838824444DD
:1007C0006444DDF80CC001EB34549C4481EA02031C
:1007D00023405340A3F524434F3B6344DDF810C04E
:1007E00004EBF333944484EA01021A40DFF80882F0
:1007F0004A4042446244DDF814C003EBB2228C4408
:1008000083EA04011140DFF8F4816140414461440E
:10081000DDF818C002EB7161A44482EA03040C40C5
:10082000DFF8DC815C4044446444DDF81CC001EB2B
:1008300034549C4481EA02032340DFF8C8815340CA
:1008400043446344DDF820C004EBF333944484EA6A
:1008500001021A40DFF8B0814A404244624403EB8F
:10086000B22206EB010C82EA03012140DFF89C81F1
:10087000594041446144DDF800C002EBF161A444F9
:1008800081EA02041C40DFF88881544044446444F7
:1008900001EBF454DDF810C0DFF878819C4484EA61
:1008A000010313404B404344634404EBB34305EB63
:1008B000020C83EA04020A40DFF85C816240424491
:1008C000624403EB32320AEB010C82EA030121405D
:1008D000DFF84881594041446144DDF80CC002EB27
:1008E000F161644481EA020C0CEA030CDFF8308108
:1008F0008CEA020CC4446444DDF820C001EBF454DB
:100900009C4484EA01031340DFF818814B404344C0
:10091000634404EBB3430EEB020C83EA04020A4087
:10092000DFF80481624042446244DDF808C003EB12
:100930003232614482EA030C0CEA040CDFF8EC80EA
:100940008CEA030CC4446144DDF81CC002EBF16185
:10095000A44481EA02041C40DFF8D480544044449B
:10096000644401EBF4540BEB030C84EA01031340E1
:10097000DFF8C0804B4043446344DDF804C004EB1F
:10098000B343944483EA04020A40DFF8AC80624037
:1009900042446244DDF818C003EB32328C4482EAF0
:1009A00003012140DFF8948059404144614402EB47
:1009B000F16109EB040C81EA02041C40DFF880803D
:1009C0005440444464443DE00123456789ABCDEF86
:1009D00078A46AD756B7C7E8DB702024EECEBDC135
:1009E000AF0F7CF52AC68747134630A8019546FD10
:1009F000D8988069AFF7448BBED75C892211906B81
:100A0000937198FD8E4379A62108B44962251EF69C
:100A100040B340C0515A5E26AAC7B6E95D102FD632
:100A20005314440281E6A1D8C8FBD3E7E6CDE12107
:100A3000D60737C3870DD5F4ED145A4505E9E3A968
:100A4000F8A3EFFC01EBF45407EB030C84EA010379
:100A50001340DFF870854B4043446344DDF814C015
:100A600004EBB343944483EA04020A40DFF8588558
:100A700062404244624403EB323282EA030CDFF804
:100A80004C858CEA040CC44451446144DDF804C034
:100A900002EB3171644481EA020CDFF834858CEAA0
:100AA000030CC4446444DDF810C001EB7454634487
:100AB00084EA010CDFF81C858CEA020CC444634410
:100AC000DDF81CC004EB3343624483EA040C8CEA77
:100AD000010CDFF804853144C444624403EB722204
:100AE00082EA030C8CEA040CDFF8F0847444C444FA
:100AF000614402EB317181EA020C8CEA030CDFF8ED
:100B0000E0843B44C444644401EB745484EA010C23
:100B1000DFF8D0848CEA020CC4446344DDF80CC0D6
:100B200004EB3343624483EA040CDFF8BC848CEAB0
:100B3000010CC4446244DDF818C003EB7222614426
:100B400082EA030C8CEA040CDFF8A0842C44C44431
:100B5000614402EB317181EA020C8CEA030CDFF88C
:100B600090845B44C444644401EB745484EA010CF3
:100B7000DFF880848CEA020CC4446344DDF800C0D2
:100B800004EB3343624483EA040CDFF86C848CEAA0
:100B9000010CC4446244DDF808C003EB72226144D6
:100BA00082EA030CDFF854848CEA040CC4446144E8
:100BB000DDF814C002EB3171644481EA020CDFF805
:100BC00040848CEA030CC4446444DDF820C001EB8B
:100BD0007454634484EA010C8CEA020CDFF8248428
:100BE0004A44C444634404EB334383EA040C8CEA70
:100BF000010CDFF814842944C444624403EB7222DC
:100C000062EA0405DFF804C45D40654429443D19E7
:100C100002EBB16161EA0304FD4F54403C442C44B3
:100C2000079D01EBB4541D4464EA0203F94F4B40A5
:100C30003B442B4404EB73430AEB020563EA0102D5
:100C4000F54F62403A442A44059D03EBF2220D44DD
:100C500062EA0401F14F59403944294402EBB16181
:100C60000BEB040561EA0304ED4F54403C442C4473
:100C7000039D01EBB4541D4464EA0203E94F4B4069
:100C80003B442B44B51804EB734363EA0102E64E80
:100C9000624032442A44019D03EBF2220D4462EA91
:100CA0000401E24E594031442944089D02EBB161F0
:100CB000254461EA0304DE4E544034442C44009D34
:100CC00001EBB4541D4464EA0203DA4E4B40334452
:100CD0002B44069D04EB7343154463EA0102D64E90
:100CE000624032442A4403EBF2220EEB010562EA31
:100CF0000401D24E594031442944049D02EBB161B4
:100D0000254461EA0304CE4E544034442C4401EBA4
:100D1000B45409EB030564EA0203CA4E4B40334462
:100D20002B44029D04EB7343154463EA0102C64E53
:100D3000624032442A440C9D03EBF2222944816034
:100D40000B991144C1600A99194401610999214420
:100D500041610DB0BDE8F08F2DE9F041141E05464C
:100D600088462FDD286800F03F062044C6F1400782
:100D70002860A04202D26868401C6860B6B1BC42DC
:100D800014DBA8193A46183005F0FCF905F11801F2
:100D90002846FFF727FCE41BB844002606E041463E
:100DA0002846FFF71FFC08F14008403C402CF6DACB
:100DB000002C07DDA81922464146BDE8F041183055
:100DC00005F0E0B9BDE8F0817CB50D460446016848
:100DD0006268480F40EAC200C9008DF800100A0A94
:100DE0008DF801200A0C8DF80220090E8DF80310F1
:100DF0008DF80400010A8DF80510010C8DF806101D
:100E0000000E8DF80700207800F03F00382802D24D
:100E1000C0F1380201E0C0F178028C492046FFF7AA
:100E20009BFF082269462046FFF796FF207A28702C
:100E30002089000A6870A068000CA870A068000EE5
:100E4000E870207B2871A089000A6871E068000CB6
:100E5000A871E068000EE871207C2872208A000AE0
:100E600068722069000CA8722069000EE872207D6B
:100E70002873A08A000A68736069000CA87360690F
:100E8000000EE8737CBD10B5B6B0144603460A46A2
:100E90006846FFF799FB19466846FFF75DFF214654
:100EA0006846FFF791FFD821684605F084F936B00F
:100EB00010BD70B50E46ADF59B6D65A1002000BF5D
:100EC000040006D00DF58060FFF77EFB4FF48065CF
:100ED00008E001200DF59B6D70BD69460DF5806041
:100EE000FFF73AFF23462A460121684605F0A1F99B
:100EF0000200F2D131460DF58060FFF765FFD82181
:100F00000DF5806005F057F92046002000BF00284D
:100F1000204603D04FF0FF300220DBE74FF0FF30D8
:100F20000020D7E72DE9FF4114460D460646402A2A
:100F300006DD6A4621462846FFF7A5FF10246D46C8
:100F400006F1580036224021074605F02DF95C22B3
:100F5000402106F1980005F027F900200BE0311838
:100F60002B5C11F8582F5A4001F8402B2B5C0A7863
:100F70005A400A70401CA042F1DB3046FFF724FBC8
:100F8000402239463046FFF7E7FEBDE8FF81E3E641
:100F90007FB50D4604466946FFF716FF2046FFF76A
:100FA00013FB402204F198012046FFF7D5FE1022E2
:100FB00069462046FFF7D0FE29462046FFF704FF8A
:100FC0007FBD0000D9026F678A4C2A8D4239FAFF33
:100FD00081F6718722619D6D0C38E5FD44EABEA45F
:100FE000A9CFDE4B604BBBF670BCBFBEC67E9B2854
:100FF000FA27A1EA8530EFD4051D880439D0D4D969
:10100000E599DBE6F87CA21F6556ACC4442229F4BE
:1010100097FF2A43A72394AB39A093FCC3595B6580
:1010200092CC0C8F7DF4EFFFD15D84854F7EA86F4D
:10103000E0E62CFE144301A3A111084E827E53F773
:1010400035F23ABDBBD2D72A91D386EB666200084F
:101050007262000070B51646B6B00A4601461D46DB
:1010600068463A9CFFF75EFF2A4631466846FFF71E
:101070008EFF21466846FFF78BFFD821684605F0B2
:101080009AF836B070BD00002DE9F043012187B019
:10109000880300F013FF0121042000F0F1FED34E7D
:1010A00005220A21304600F0A6FDDFF84493052210
:1010B0000221484600F09FFD05220321484600F02A
:1010C0009AFD02258DF804508DF805500024680221
:1010D0008DF8064000908DF807506946304600F0C4
:1010E00001FD082669464846009600F0FBFC0420F6
:1010F00000906946484600F0F5FC4FF001088DF875
:1011000004808DF806402F038DF8055000978DF868
:1011100007406946484600F0E5FC3946484600F07D
:101120005BFDADF808404FF48270ADF80A00ADF8F1
:1011300010802802ADF81460ADF80C40ADF8120034
:10114000ADF816400720AB4CADF81800ADF80E50C6
:1011500002A9204601F05CF80121204601F0E8F8E0
:1011600007B0BDE8F08370B5A24C054602212046C9
:1011700001F054F90028F9D02946204601F021F960
:101180000121204601F04AF90028F9D0204601F05B
:1011900016F9C0B270BD2DE9F04114460D46064661
:1011A00000F013F9DFF848824FF400573946404603
:1011B00000F014FD0220FFF7D6FFC5F30740FFF74C
:1011C000D2FFC5F30720FFF7CEFFE8B2FFF7CBFF52
:1011D000B4F5807F04D9FF243078FFF7C4FF761C74
:1011E000641EA4B2F8D23946404600F0F5FCBDE8D2
:1011F000F04100F0D4B82DE9F04707460E4611F053
:10120000FF00C0F10001CDB24FEA122402F0FF0945
:101210004FF4807A13D0F0B24042C0B206EB00081F
:101220000CB3501B80B2040A00F0FF092A46314675
:101230003846FFF7B0FF3D44464657462AE06CB1BA
:101240005546641EE4B20CD32A4631463846FFF7B1
:10125000A2FF06F5807607F58077F2E7314638463B
:1012600021E04A46FAE7A945F8D9A9EB0500C4B23E
:101270002A4631463846FFF78EFF41467819224606
:1012800011E03A4631462846FFF785FF05F580759F
:1012900006F58076641EE4B2F3D25FEA090005D059
:1012A000024631462846BDE8F04774E7BDE8F087BE
:1012B0002DE9F041DFF838810D4606464FF400571E
:1012C00014463946404600F089FC0320FFF74BFFE7
:1012D000C5F30740FFF747FFC5F30720FFF743FFBC
:1012E000E8B2FFF740FF04E0A520FFF73CFF06F857
:1012F000010B641EA4B2F7D239464046BDE8F04166
:1013000000F06ABC2DE9F0470C4605464FF4005941
:10131000DFF8DC80C0F30747C0F3072619E000BF01
:1013200000F053F84946404600F058FC2020FFF7F3
:101330001AFF3846FFF717FF3046FFF714FFE8B2F1
:10134000FFF711FF4946404600F046FC00F027F841
:10135000641E002CE4D1A9E72DE9F041244F4FF49D
:1013600000563146384600F039FC9F20FFF7FBFE5F
:10137000A520FFF7F8FE0546A520FFF7F4FE04467A
:10138000A520FFF7F0FE80463146384600F024FCE9
:10139000280440EA042040EA0800BDE8F08170B566
:1013A000134D4FF400542146284600F017FC052049
:1013B000FFF7D9FEA520FFF7D6FEC007FAD12146D8
:1013C0002846BDE8704000F007BC70B5084D4FF4EA
:1013D00000542146284600F001FC0620FFF7C3FE1A
:1013E00021462846BDE8704000F0F6BB00040240EC
:1013F000000802400038004092B201F58031FFF74A
:10140000FABE032211044348FFF752BF70B500240F
:101410004FF400754048FFF7D7F83E4E0FE06119D2
:10142000814200DD051BAAB204F580313B48FFF77D
:101430003FFF2A4639493848FFF78EFC2C44306874
:101440008442ECDB36493448FFF7BEFCD8213248F1
:1014500004F0B1FEBDE87040002002F0ECBF70B5B2
:1014600000244FF40075FFF73EF82A4E0EE0611994
:10147000814200DD051BAAB204F580312748FFF741
:1014800017FF29462046FFF74BF82C44306884426A
:10149000EDDB70BD10B5ADF5007D4FF40071684611
:1014A00004F089FE4FF4403401212046FFF72AFF63
:1014B000032221466846FFF79EFE0DF5007D10BD14
:1014C00010B5FFF79EFF1348006828B1B0F5C83F7C
:1014D00002DCB0F5A03F02DABDE81040DAE70020F8
:1014E00002F0A9FF012002F0A6FF022002F0A3FFF4
:1014F000FFF7B5FF0B480068002803DD032002F06A
:101500009AFFFEE7FFF7C6FFBDE810400648FEF76A
:1015100079BF00001C000020C0020020A0000020B5
:10152000B0020020180000200080000810B5012241
:1015300065A1674804F02BF818B1664900200870CF
:1015400010BD644B10221B1D6349614804F0B9F8BB
:101550005F4804F071FA012002F06DFF012010BD18
:1015600030B5ADF5097D00244FF4007501225BA173
:10157000684604F00CF828B15649002008700DF5B3
:10158000097D30BD584903980860FEF7ACFF14E0B0
:101590002146684604F059FA03996019884200D937
:1015A0000D1B4C4B2A461B1D5049684604F089F818
:1015B00029462046FEF7B4FF2C440398A042E7D802
:1015C000684604F039FADAE730B5ADF5097D002454
:1015D0004FF40075012241A1684603F0D8FF18B10D
:1015E0003C4900200870CAE73F490398086040481A
:1015F000FEF7EAFF15E02146684604F026FA039953
:101600006019884200D90D1B324B2A461B1D3749F1
:10161000684604F056F82A4634493548FFF79CFBE3
:101620002C440398A042E6D8684604F005FA3149F4
:101630002F48FFF7C9FBD8212D4804F0BCFD00203E
:1016400002F0F9FE9BE72DE9F04700242A492046E5
:1016500003F083FFDFF8A49010B14846FEF7D2FEF6
:10166000FFF764FF10B94846FEF7CCFEFFF7ACFF6A
:10167000204E194F174D4FF00008305D395D8842FC
:1016800004D085F80080022002F0D5FE641C102CE6
:10169000F3DB287808B1FFF763FF194800680028DA
:1016A00002DD032002F0C7FE07A004F081FB0BA0BF
:1016B00004F07EFB0021084603F04FFF4846BDE8DA
:1016C000F047FEF79FBE00006D64352E6461740024
:1016D000C80500203C000020A00200207570646155
:1016E00074652E62696E000014000020A0000020C6
:1016F000EC070020B00200209803002000800008C2
:10170000180000202DE9F043016821F0010101607B
:101710000021016041608160C1600161212141615E
:10172000B849B84A3D251039904202D18D60BDE8D4
:10173000F083B44A4FF474661832904201D18E603F
:10174000F5E7B04A4FF474173032904201D18F6000
:10175000EDE7AC4A4FF0746C4832904202D1C1F8C8
:1017600008C0E4E7A74BA84A6033984201D1CA6099
:10177000DDE7A44CA54B7834A04201D1CB60D6E77D
:10178000DFF88082A24C08F19008404501D1CC607E
:10179000CDE7DFF870824FF03D5908F1A8084045C9
:1017A00002D1C1F80C90C2E79A49DFF86882083983
:1017B000404501D10D60BAE7964D1835A84201D1D8
:1017C0000E60B4E7934D3035A84201D10F60AEE70B
:1017D000904D4835A84202D1C1F800C0A7E78D4D11
:1017E0008C496035091FA84201D10A609FE7894AE8
:1017F0007832904201D10B6099E7864A903290424C
:1018000001D10C6093E7834AA83290428FD1C1F88E
:1018100000908CE730B503687F4ACC6813400A68B3
:101820002243D1E905452C432243CC6922430C6A6B
:1018300022434C6A22438C6A22434C6B22438C6BBA
:1018400022431A430260426922F00703D1E90B24C4
:1018500022431A4342610A6942604A688260896889
:10186000C16030BD0021016041608160C1600161E3
:1018700041618161C161016241628162C162016352
:101880004163816370470029016802D041F0010182
:1018900001E021F00101016070470029016802D0D8
:1018A00041F4004101E021F400410160704700294A
:1018B000016802D041F0200101E021F02001016027
:1018C000704741607047406880B27047002A0268E4
:1018D00002D042F4002201E022F400220260016101
:1018E00070470029016802D041F4802101E021F411
:1018F0008021016070470AB101617047C160704783
:10190000014600200968090300D5012070470146FF
:1019100000200968C90700D001207047406900F025
:101920003800704702463B4B00209A4202D2354AAB
:10193000103A01E0374A103A8B0001D5526800E0B6
:101940001268364B1A400A4200D001207047314AD3
:10195000904202D22B48103801E02E4810382F4A0E
:101960008B0001EA020101D5C160704781607047B8
:101970000B0607D5436912B143F0800301E023F061
:1019800080034361802908D0002A026801F01E010B
:1019900001D00A4300E08A430260704730B51D4A17
:1019A0000024904202D2174B103B01E0194B103B30
:1019B0001B4A114205D01E2202EAD12502682A40A4
:1019C00002E0406900F08002880001D5586800E01C
:1019D0001868124B1840084201D002B10124204679
:1019E00030BD0C4A904202D20648103801E0094846
:1019F00010380A4A8B0001EA020101D5C160704724
:101A000081607047106002403D000020400F0020C0
:101A100000003D20106402403F801CF07D0F7D0FD0
:101A20003C0F3C0F7C4910B5884206D10121084685
:101A300000F058FA002101204FE07849884206D191
:101A40000121022000F04EFA0021022045E07449F5
:101A5000884206D10121042000F044FA002104202C
:101A60003BE07049884206D10121082000F03AFA93
:101A70000021082031E06C49884206D10121102064
:101A800000F030FA0021102027E06849884206D192
:101A90000121202000F026FA002120201DE06449C9
:101AA000884206D10121402000F01CFA002140208C
:101AB00013E06049884206D10121802000F012FA2B
:101AC0000021802009E05C4988420AD18415012167
:101AD000204600F007FA00212046BDE8104000F043
:101AE00001BA10BDF0B50023012403270D6804FAE4
:101AF00003F21540954242D1D0F800C05E0007FACB
:101B000006F52CEA050CC0F800C091F804C0D0F826
:101B100000E00CFA06FC4CEA0E0CC0F800C091F88C
:101B200004C0BCF1010F02D0BCF1020F1FD1D0F8EC
:101B300008C02CEA050CC0F808C091F805C0D0F820
:101B400008E00CFA06FC4CEA0E0CC0F808C0D0F80D
:101B500004C02CEA020CC0F804C0426891F806C028
:101B60000CFA03FC1FFA8CFC42EA0C024260C268C9
:101B7000AA43C260CA79C568B2402A43C2605B1CEE
:101B8000102BB3D3F0BD4FF6FF710160002101713E
:101B900041718171C171704708B541F48032009282
:101BA000C261C1610099C161C169C069009008BD8D
:101BB0000246002012690A4200D0012070470069E5
:101BC00080B270470246002052690A4200D00120CC
:101BD0007047406980B27047018370474183704706
:101BE0000AB1018370474183704741617047426980
:101BF0004A40426170474B07DB0E9A40C90810B556
:101C000000EB8100016A0F249C40A1430162016A3C
:101C10001143016210BD00000000024000040240B8
:101C200000080240000C0240001002400014024074
:101C300000180240001C024000200240EA480168EF
:101C400041F001010160E84A002108321160026898
:101C5000E64B1A400260031DE54A1A60026822F44E
:101C600080220260E0480C3001607047DE490022AB
:101C7000891C0A700870704702460020510901292A
:101C80000CD002290CD0D8497431096802F01F0227
:101C9000012393400B4200D001207047D249F4E762
:101CA000D1497031F1E718B500204FF4A0640090DD
:101CB0003120FFF7E1FF0099491C0091A14201D0BA
:101CC0000028F5D03120FFF7D7FF002800D00120F1
:101CD00018BDC5490A6822F0F80242EAC00008604F
:101CE0007047C44908607047BF49002270310A70CC
:101CF0000A70012802D0042801D10520087070471D
:101D0000BD490860704741EA82115A0810B5BB4BC3
:101D1000029C03EB02421143014341EA0460B249D1
:101D2000091D086010BDB34908667047800140EA8C
:101D30000170AD49843108607047AE4988667047CC
:101D4000AC49C8647047A84A08321368084323F0B6
:101D5000EC63184310607047A34A083213680843C5
:101D600023F078431843106070479F4A0832116887
:101D700021F003010143116070479B48083000685F
:101D800000F00C007047984A0832116821F0F00109
:101D9000014311607047944A0832116821F4E05100
:101DA000014311607047904908310A6822F460428B
:101DB00042EAC0000860704770B58B4A083211686B
:101DC0008F4C11F00C0104D08E4E042903D0082949
:101DD00003D004601BE0066019E08349091D0B680D
:101DE000C3F380550B6803F03F0315B1B6FBF3F363
:101DF00001E0B4FBF3F30C680968C4F3881463438F
:101E0000C1F30141491C4900B3FBF1F101601168C4
:101E10000F2303EA11117C4B5C5C0168E1404160D7
:101E20001468072505EA94241C5D21FA04F48460F3
:101E3000126805EA52329A5CD140C16070BDC0F3AD
:101E40000121032908D1684A0832116821F4F813E6
:101E50006E49014019431160634970310A68C0F34B
:101E60000B0002430A6070476349443908607047B9
:101E700061494039086070475E49C1F85C017047AC
:101E8000594A30320029116801D0014300E08143F2
:101E900011607047544A34320029116801D001435F
:101EA00000E08143116070474F4A383200291168C1
:101EB00001D0014300E08143116070474A4A40323B
:101EC0000029116801D0014300E08143116070478F
:101ED000454A44320029116801D0014300E08143A2
:101EE00011607047404A10320029116801D0014347
:101EF00000E08143116070473B4A143200291168A9
:101F000001D0014300E0814311607047364A183226
:101F10000029116801D0014300E08143116070473E
:101F2000314A20320029116801D0014300E0814389
:101F3000116070472C4A24320029116801D00143F6
:101F400000E0814311607047274A50320029116830
:101F500001D0014300E0814311607047224A5432AE
:101F60000029116801D0014300E0814311607047EE
:101F70001D4A58320029116801D0014300E0814315
:101F800011607047184A60320029116801D001437E
:101F900000E0814311607047134A643200291168E0
:101FA00001D0014300E08143116070470E4A0D32B9
:101FB0000029117801D0014300E08143117070477E
:101FC00009487430016841F0807101607047014632
:101FD000054A00200C3212680A4200D001207047E6
:101FE00001490E310870704700380240FFFFF6FECD
:101FF0001030002400004742800E47420000FFFFDF
:102000000024F40040787D0144000020FFFCFF0F15
:1020100010B50121CC022046FFF78CFF2046BDE819
:1020200010400021FFF786BF30B5644B1A6847F6B1
:10203000FF618A43017D8468C568214344682C435D
:10204000214304680069214301431143196030BDF5
:1020500000210175016041608160C16001617047CC
:102060005749C1F8A00070475449091F08607047DC
:102070005248001F006800F0030070474F4A10B537
:10208000121D01681160121D1168CB0AD0E90114FC
:102090002143D0E903400443DB022143194311608B
:1020A00010BD0021016041608160C1600161704725
:1020B00042480C300068C0B27047404908B5103142
:1020C00008440090006808BD3C4A10B52032016801
:1020D0001160121D41681160121D116821F0F70393
:1020E000D0E902142143D0E90440044321431943B9
:1020F000116010BD4FF0FF3101600021416081602F
:10210000C1600161416170472C482C300068704704
:102110002A487C300068704728497C310860704745
:1021200026484430006870472649086070472549B2
:10213000091D08607047234908310860704721492C
:102140000C31086070471E49C1F8AC0170471C494A
:10215000C1F8B0017047012181431948C0F8B4119A
:1021600070471749C1F8B80170471649143908601B
:102170007047124A38320029116801D0014300E04B
:1021800081431160704701460C4A002030321268CA
:102190000A4200D001207047084934310860704776
:1021A0000146064A0020303212680A4200D001205F
:1021B000704702493431086070470000042C014028
:1021C00000802542A0852542A74910B588420AD142
:1021D000841401212046FFF7ADFE2046BDE81040E3
:1021E0000021FFF7A7BEA149884202D101210414B2
:1021F00004E09F4988420AD10121C4132046FFF719
:102200008FFE2046BDE810400021FFF789BE10BDBB
:1022100030B502884C8802F441530A88CD882243A5
:102220008C882C4322430C8922434C8922438C897D
:102230002243CC8922431A430280828B22F400621B
:102240008283098A018230BDF0B502220023858B8A
:1022500001244FF24006354085830284858B8E68C9
:10226000022E3ED08A8802B10224824A13681B02E1
:1022700003D5136823F4000313607E4A7C3213688D
:102280001268C3F388137B4EC2F30272361F36689E
:10229000794F06F03F06B7FBF6F65E43B6FBF2F267
:1022A000CB88B3F5007F2CD06301B2FBF3F200BF03
:1022B00002EB82028B685200B2FBF3F2521D92B223
:1022C0000A23B2FBF3F202F00103D21A4FF6FF74B5
:1022D000C2F34F0204EA0323941EFE2C01D3022210
:1022E0000023CC881A43144304840A884B881A4379
:1022F0008B8889890B431A432A4342F40061818306
:10230000F0BD120AD4E70021018041808180C180A4
:10231000018141818181C1810721018270470021B2
:10232000018041808180C18002228260818170476A
:102330000029018802D041F0400101E021F0400174
:10234000018070470029818B02D041F4806101E057
:1023500021F4806181837047028822F40062028048
:1023600002880A4302807047B1F5804F018803D08C
:1023700021F480410180704741F48041FAE7A1F5E2
:102380007E420188FF3A02D041F4807101E021F4DD
:102390008071018070470029818802D041F00401DA
:1023A00001E021F00401818070470029818802D07A
:1023B00041F0100101E021F0100181807047808917
:1023C0007047818170470029018802D041F4005193
:1023D00001E021F4005101807047018841F48051EF
:1023E00001807047012901D0008B7047808A7047B7
:1023F000008A7047002A828801D00A4300E08A439D
:1024000082807047090901238B40002A828899B293
:1024100001D00A4300E08A438280704702460020D0
:1024200012890A4200D001207047C94301817047D8
:1024300010B501F00F040122034602FA04F4002053
:1024400009098A4091B29A88A4B20A4019892142A6
:1024500002D0002A00D0012010BD01F00F0201219E
:102460009140C9430181704700300140003800406D
:10247000003C00400838024040787D01C74910B553
:10248000884206D101211020FFF754FD00211020C1
:1024900028E0C349884202D101214C0410E0C1491F
:1024A000884202D101218C040AE0BF49884202D14E
:1024B0000121CC0404E0BD4988420AD101210C0568
:1024C0002046FFF72DFD2046BDE810400021FFF714
:1024D00027BDB749884209D101212020FFF72AFDF5
:1024E00000212020BDE81040FFF724BD10BD7FB5BE
:1024F0000446008A0D4620F44051E88808432082B3
:10250000A08941F20C618843A9882A8911436A890C
:1025100002431143A181A08A20F44071A889084395
:10252000A0826846FFF748FC9C48844202D0A0483D
:10253000844201D1039800E00298A189090400EBCC
:10254000C00101EB0010296801D5490000E08900B5
:10255000B0FBF1F26420B2FBF0F109010B096FF05E
:1025600018056B4302EB8302A3891D044FF032036D
:1025700006D503EBC202B2FBF0F000F0070005E065
:1025800003EB0212B2FBF0F000F00F0008432081D1
:102590007FBD4FF41651016000218180C18001810F
:1025A0000C2242818181704710B5028A4C8822F446
:1025B00070630A8822438C88C9880C4322431A43DB
:1025C000028210BD0021018041808180C18070475E
:1025D0000029818902D041F4005101E021F4005129
:1025E00081817047028B02F47F420283028B0A438F
:1025F000028370470029818902D041F4004101E043
:10260000C1F30E01818170470029818A02D041F413
:10261000006101E021F4006181827047C1F308018B
:10262000818070478088C0F308007047028A22F0DA
:102630000F020282028A0A430282704700298189BE
:1026400002D041F0020101E021F0020181817047D6
:10265000828922F40062828182890A4382817047E2
:10266000028A22F020020282028A0A430282704712
:102670000029018A02D041F4804101E021F4804127
:1026800001827047818941F00101818170470029F1
:10269000818A02D041F0080101E021F00801818225
:1026A0007047028BD2B20283028B42EA012101837E
:1026B00070470029818A02D041F0200101E021F019
:1026C0002001818270470029818A02D041F01001E7
:1026D00001E021F0100181827047828A22F0040219
:1026E0008282828A0A43828270470029818A02D0CC
:1026F00041F0020101E021F0020181827047002ACD
:10270000828A01D00A4300E08A438282704710B572
:10271000C1F3421301F01F040121A140012B07D096
:10272000022B07D01430002A026805D00A4304E0C7
:102730000C30F8E71030F6E78A43026010BD02461D
:10274000002012880A4200D001207047C94301804E
:10275000704730B501F01F0201240025C1F3421378
:1027600004FA02F2012B0FD0022B0FD0838A4FEA1A
:1027700011210088134204FA01F400EA040001D098
:1027800000B10125284630BD8389F0E7038AEEE7D2
:102790000A0A01219140C94301807047001001409D
:1027A0000044004000480040004C00400050004001
:1027B000001401402849084328490860704730B593
:1027C0000F22C47801780123FCB1244C246801F164
:1027D000E02104F4E064C4F5E064C4F30724C4F128
:1027E0000405E2404478AC408578154025432A0131
:1027F00081F80024007800F01F018B404009800020
:1028000000F1E020C0F8003130BD01F01F0083402E
:102810004809800000F1E020C0F8803130BD104A46
:10282000114001430D48001F016070470B4A121D03
:102830000029116801D0014300E081431160704715
:102840004FF0E0210428086903D020F0040008615B
:10285000704740F00400FAE70000FA050CED00E0D4
:1028600080FFFF1F10B501218C032046FFF762FB9C
:102870002046BDE810400021FFF75CBB134908600B
:10288000704710B58A0721F003041149130F214442
:102890000F22D1F808489A409443C1F80848D1F86B
:1028A000082898400243C1F8082810BD0949C1F81A
:1028B000DC00704708490860704704490020203157
:1028C0000968C90500D501207047000000380140A3
:1028D000003001400000274200042742DF49087011
:1028E0007047DE490028086802D040F4807001E09B
:1028F00020F4807008607047D8490028086802D02A
:1029000040F4007001E020F4007008607047D34983
:102910000028086802D040F4806001E020F4806064
:1029200008607047CD48016841F40061016070475C
:10293000CA48016841F4805101607047C7481030AF
:102940000068002805DAC548C549001D0160C54971
:1029500001607047C1481030016841F000410160DA
:102960007047BE4908200C310A68D20301D5012006
:1029700070470A68D20601D5052070470A6812F030
:10298000EF0F01D00620704709688907FBD50720A3
:10299000704708B508208DF8000000BFFFF7E1FF81
:1029A0008DF800009DF800000128F7D09DF8000088
:1029B00008BD70B50646002529B1012928D0022995
:1029C00029D04FF44075FFF7E4FF08281FD1A34C2E
:1029D0001034206820F44070206020682843206074
:1029E000206820F0F8002060206846F002010843CB
:1029F0002060206840F480302060FFF7CAFF216823
:102A000021F002012160216821F0F801216070BDF0
:102A10004FF48075D7E74FF40075D4E730B504461E
:102A20000025FFF7B6FF2CB1012C1DD0022C1ED0C3
:102A30004FF44075082816D1884C1034206820F4D3
:102A400040702060206828432060206840F0040027
:102A50002060206840F480302060FFF79AFF2168F2
:102A600021F00401216030BD4FF48075E2E74FF49E
:102A70000075DFE7F0B515461E460746FFF789FFEC
:102A8000082815D1754C1034206820F4407020605F
:102A9000206840F440702060206840F00100206011
:102AA0003D607E60FFF775FF216821F00101216024
:102AB000F0BD70B50D460646FFF76BFF082814D130
:102AC000664C1034206820F440702060206840F488
:102AD00000702060206840F0010020603560FFF742
:102AE00058FF216821F00101216070BD70B50D46CD
:102AF0000646FFF74EFF082814D1584C10342068C2
:102B000020F440702060206840F4807020602068CD
:102B100040F0010020603580FFF73BFF216821F085
:102B20000101216070BD70B50D460646FFF731FF0B
:102B3000082812D1494C1034206820F440702060DD
:102B400020682060206840F0010020603570FFF7A9
:102B500020FF216821F00101216070BD3F48143041
:102B60000068C00705D03D483F49083001603F4933
:102B70000160704739481430016841F0010101607B
:102B8000704730B50D460446FFF703FF082807D10C
:102B90003248163001880DB1A14300E02143018085
:102BA00030BD10B50446FFF7F4FE082802D12B48CB
:102BB0001530047010BD70B515460C460646FFF77B
:102BC000E8FE082808D125491431087800F00F00E4
:102BD00004432C4334430C7070BD204914310A78EF
:102BE00022F00C020A700A7802430A7070471B48F0
:102BF0001430017841F002010170CAE61748143020
:102C00000068C0F3471070471448163000887047BA
:102C10001249002015310978AA2900D001207047F7
:102C20000E481430007800F00C0070470B4A103248
:102C30000029116801D0014300E081431160704711
:102C40000146064A00200C3212680A4200D00120D8
:102C5000704702490C31086070470000003C024098
:102C600023016745AB89EFCD3B2A19087F6E5D4C88
:102C7000374900200860091D0860091D0860091D0A
:102C800008603349334814310860704730B5304923
:102C90008379026853B30B6893430B600A1D136872
:102CA0000468A343136002790A4413680468234349
:102CB0001360274A083213680468A3431360131D86
:102CC0001C680568AC431C604479102C05D0214475
:102CD0000A68006802430A6030BD11680468214335
:102CE0001160196800680143196030BD007908441B
:102CF00001689143016030BD0021016001710C2227
:102D0000427181717047124910310A6802430A60AA
:102D1000704701460E4A0020143212680A4200D061
:102D2000012070470A49143108607047084A01467B
:102D300000201268064B0A4014331B680B4202D075
:102D4000002A00D001207047014914310860704703
:102D5000003C0140FFFF7F00C94910B5884202D105
:102D600001214C050AE0C749884202D101218C05A6
:102D700004E0C54988420AD10121CC052046FFF76D
:102D8000CFF82046BDE810400021FFF7C9B810BDBC
:102D90007FB5044680880D4620F03F066846FFF761
:102DA0000BF8BA490298B0FBF1F189B20E43A68044
:102DB000228822F001022280B54B2A689A421BD851
:102DC0005200B0FBF2F080B2042800D20420491C6B
:102DD0002184A083208840F00100208021884FF6C4
:102DE000F5300140A8886A89104308432080A889EB
:102DF0002989084320817FBDEB88A3F53F46FF3E2C
:102E00000BD002EBC20303EB0212B0FBF2F080B274
:102E100040F48040020506D007E002EB4202B0FB1E
:102E2000F2F080B2F6E740F001004FF496725143A1
:102E30004FF47A72B1FBF2F140F40040C7E741F27F
:102E400088310160002181804BF6FF72C2800181D0
:102E500041814FF48041818170470029018802D06F
:102E600041F0010101E021F00101018070470029DA
:102E7000018802D041F4807101E021F48071018069
:102E800070470029018802D041F4007101E021F46B
:102E900000710180704712B141F0010101E001F0C1
:102EA000FE01018270470029018802D041F480614F
:102EB00001E021F4806101807047828901F0FE0108
:102EC00022F0FE021143818170470029818902D0DE
:102ED00041F0010101E021F00101818170470029E9
:102EE000018802D041F0400101E021F04001018061
:102EF00070470029018802D041F4004101E0C1F38C
:102F00000E01018070470029018803D021F0800163
:102F10000180704741F08001FAE7B1F5804F818B65
:102F200002D021F4804101E041F480418183704767
:102F3000B1F5006F018803D021F400610180704772
:102F400041F40061FAE7B1F5005F018803D021F494
:102F500000510180704741F40051FAE700290188CF
:102F600002D041F0100101E021F010010180704712
:102F700001827047008AC0B270470029018802D0E0
:102F800041F4805101E021F4805101807047B1F596
:102F9000006F018803D021F400610180704741F483
:102FA0000061FAE70029018802D041F0200101E028
:102FB00021F0200101807047008B000A7047002932
:102FC000818802D041F4006101E021F40061818038
:102FD00070470029818802D041F4805101E021F43A
:102FE00080518180704708B508440090008808BD72
:102FF000002A828801D00A4300E08A438280704719
:1030000002460020938A128B43EA024323F07F4258
:10301000914300D101207047818A008B41EA004131
:1030200021F07F4070470CB50246002000920A0F45
:1030300021F07F41019202D0009A143202E0009AFE
:10304000090C1832009212680A4200D001200CBD0F
:10305000C9438182704710B5034600209A884FF417
:10306000E06404EA11449B8A224021F07F410B4234
:1030700002D0002A00D0012010BDC94381827047D0
:103080000054004000580040005C004040420F00E7
:10309000A08601000D49086070470C4948607047E0
:1030A0000A498860704709494AF6AA2008607047B3
:1030B00006494CF6CC4008607047044A014600209F
:1030C000D2680A4200D00120704700000030004062
:1030D00001F07FBA70B5FC4905460024086810F07D
:1030E000450FFBD0410702D50324042003E0C007AD
:1030F00004D001242046FFF74FF859E0FEF7D8FF2F
:10310000A8422BD140F2FF50FFF746F80020FEF70F
:10311000D4FFEE4908424BD0002801DA1C2070BDD4
:10312000410001D5092070BD810001D50A2070BD84
:10313000C10001D50B2070BD010101D50C2070BD6F
:10314000410101D50D2070BDC10101D50E2070BD1A
:10315000010201D50F2070BD410201D5102070BDC4
:10316000810201D5112070BDC10201D5122070BDB0
:10317000010301D5132070BD410301D5142070BD9A
:10318000810301D5152070BDC10301D5162070BD86
:10319000010401D5172070BD410401D5182070BD70
:1031A000810401D5192070BD000701D51A2070BD1A
:1031B000204670BD2DE9FC5F0025C54C00954FF4FD
:1031C000806801954027C4F81080C4E902750E4656
:1031D0004FF0080B1021C4E900B1A9462046FEF7C4
:1031E0004DFF1020FFF776FF002854D1B948BA46AA
:1031F0004F460089000420603720C4E9010AC4E971
:1032000003982046FEF73AFF3720FFF763FF0028B8
:1032100041D1411E04F11400C0E9001B302181603E
:103220000221C0E9031701214161FEF74DFF00BFF4
:1032300000BF022000BF401C1428FBD33320C4F879
:1032400008A0C4E90070C4E90378A148FEF716FF9E
:103250003320FFF73FFF04001DD19B4F4FF4001AAE
:10326000E94640F22A68386810EA080F0BD1504648
:10327000FEF789FF0028F6D0FEF74AFF49F825003F
:103280006D1C022DEFD10820FEF77DFF28B108202C
:10329000FEF782FF0420BDE8FC9F0220FEF773FFCB
:1032A00020B10220FEF778FF0220F4E72020FEF78D
:1032B0006AFF20B12020FEF76FFF0620EBE74FF4F6
:1032C00000752846FEF75FFF20B12846FEF764FF31
:1032D0000720E0E740F2FF50FEF75EFF009800BADB
:1032E0007060019800BA30602046D4E72DE9FC47B1
:1032F00000258046009528460195FEF7DEFE8001F8
:1033000002D50E20BDE8FC87724F6946388980B22D
:10331000FFF750FF0028F5D137206D4C40264FF0C5
:10332000060A4FF48069B8F1010F20D00199C90352
:1033300033D53989C4F810900904C4E90010C4E9F0
:1033400002652046FEF79AFE3720FFF7C3FE0028ED
:10335000D8D1C4E9005AC4F8109000BFC4E902658E
:103360005B48FEF78BFE0620FFF7B4FECAE73989FB
:10337000C4F810900904C4E90010C4E90265544877
:10338000FEF77CFE3720FFF7A5FE0028BAD1022009
:10339000C4F81090C4E9000AE0E72520B2E72DE95F
:1033A000F04101464B4800264068032814D018B16C
:1033B000012801D0022827D1B1F5805F0CD0444C00
:1033C0004FF400670025183CB9420ED10120FFF7E9
:1033D0008DFF060003D017E02720BDE8F08125759A
:1033E00025606560C4E9025709E00020FFF77EFF11
:1033F000060009D1257525606560A560E560344843
:1034000025611838FEF710FE3046E6E7304910B562
:10341000086007204860402088600020C8604FF4A2
:10342000806008610846FEF729FEBDE810400720CD
:1034300050E62DE9F0432749DFF894804D6880F885
:103440004E500989A8F19808A0F84C10D8F800103F
:103450000A0E93090370C2F38303437002F0030260
:1034600082700A0CC2700A0A02714171D8F80440D5
:10347000210E0901C180C288C4F3074142EA11123A
:10348000C28001F00F010172C4F30721CA09427220
:10349000C1F380128272C1F34012C272C1F30012F2
:1034A00002734FF0000C80F80DC042464FF0010946
:1034B0009668330EC6F30742C6F3072765B1012DA0
:1034C0000AD0022D33D044E0342C014008E0FFFD47
:1034D0005C090020540000208907090D0161E1B258
:1034E000046944EA81010161016941EA93110161C2
:1034F000C3F3C201017503F00701417551098175DC
:10350000C2F38201C1759107490F0176027E3946E7
:1035100042EAD11202760269037E521C9B1C047A95
:103520009A4009FA04F35A43C0E9112311E0A106B5
:10353000890A0161016941EA0321016101691143BD
:10354000016102693946521CD20442644FF4007290
:103550008264C1F3801242768906490E00F81A1F70
:10356000F1B2027842EAD11200F8012B01F07F019A
:1035700000F8011BD8F80C20110ECB0900F8013B14
:10358000C1F3411300F8013BC1F3820300F8013B92
:103590008907090F01700378C2F3074143EA9113C9
:1035A00000F8013BC1F34013037080F801C001F043
:1035B00001018170C2F30721CB09C370C1F38013ED
:1035C0000371C1F340134371C1F300138371C1F35D
:1035D0008103C37101F003010172C2F3460141721C
:1035E0004A4680F80A90FE4B19680C0E04730C0CC6
:1035F0002402C481C589C1F307242543C581090676
:103600000161596805690C0E45EA044404610569C5
:10361000C1F3074445EA042404610569C1F30724A2
:1036200025430561017599680C0E44750C0C240640
:1036300084618569C1F3072445EA0444846184698F
:10364000C9B244EA01218161D968846944EA1164FC
:103650008461047FC1F3074344EA131404771B0712
:103660001B0DC383C48BC1F307231C43C483C1F365
:10367000460180F8201080F821206046BDE8F083E4
:1036800010B5D8480024016811F0450FFBD0480759
:1036900002D50324042003E0C80705D001242046F6
:1036A000FEF77AFD204610BD40F2FF50F8E72DE905
:1036B000F84F01200025ADF80000FEF7D9FCA8B3B3
:1036C000DFF82493D9F8040004286AD0C44C4FF0E2
:1036D000C00A883400260220C4F808A0C4E90060AB
:1036E0004FF48068C4E903682046FEF7C7FCFFF783
:1036F000C7FF05001CD1FEF7E0FCB94F386004207D
:10370000FEF7DBFC78600820FEF7D7FCB8600C20E1
:10371000FEF7D3FCF860D9F804004F4650B10128F9
:1037200008D0062806D0022804D014E0FFE72520A0
:10373000BDE8F88F0320E4E80260402084E84101FE
:10374000A748083C8830FEF799FC6946032000F042
:1037500015FE0500ECD17868042822D0BDF80000E1
:10376000B860000420600920C4E9010AC4E90368C4
:103770009B488830FEF782FCFFF782FF0500D7D117
:10378000FEF79BFC964C103C20600420FEF795FC55
:1037900060600820FEF791FCA0600C20FEF78DFC15
:1037A000E0602846C4E72DE9F84F00252C468DF847
:1037B00000508B4876217030AA460175056045603F
:1037C0008560C560A9460561FEF72EFC0320FEF763
:1037D0004BFC0120FEF744FCDFF804824FF48061CB
:1037E00008F188088F01C8F80040C8F80440C8F8FC
:1037F0000840C8E903417A488830FEF73FFC0026BC
:103800003C4601E0641E13D08020FEF7BCFC00287B
:10381000F8D06CB140F2FF50FEF7BEFC8DF80060AE
:103820006D1C4A2DE7DB9DF80000002855D101E012
:103830000326F3E74FF4D570C8F80000444608208B
:103840004FF0400BC4E9010BC60100256448C4E9F0
:1038500003568830FEF712FC6249A846086802E069
:10386000604800687F1E10F0450F06D00FB1410779
:1038700006D54FF00308042007E0002FF0D1F8E749
:10388000400604D54FF000084020FEF785FC8DF877
:1038900000809DF8000008B33720C4F808B0C4E9E0
:1038A00000504F48C4E903568830FEF7E7FB372045
:1038B000FFF710FC8DF80000372784E8A00848487F
:1038C000C4E903568830FEF7D9FB3720FFF702FC26
:1038D0008DF800009DF8000088B357E042480121B0
:1038E0004FF080494160E7E7A760C4E900583C48D1
:1038F000C4E903568830FEF7C1FB3720FFF7EAFB27
:103900008DF800009DF80000C8BB384949EA010065
:1039100020602920C4E901073148C4E903568830F2
:10392000FEF7ACFB2F494FF0000B086810F0450F75
:10393000FBD0400704D54FF0030B042002E010E059
:1039400040F2FF50FEF728FC8DF800B09DF8000013
:10395000A8B90020FEF7B1FBC10F0AF1010A03D09C
:1039600006E0B8465F46BFE74FF6FF718A45BBD316
:103970004FF6FF72924503D31B208DF8000005E03F
:1039800010F0804F05D01848022141609DF80000DA
:10399000CEE62920CCE638B500248DF8004000F0B2
:1039A0005FFEFEF735FBFFF7FEFE8DF800009DF889
:1039B000000098BBFFF77BFE8DF800009DF800002B
:1039C00060BB074870300475046044608460C46064
:1039D0000461FEF729FB02482030FFF72AFD07E0CB
:1039E000D4080020342C0140540000200000108036
:1039F0008DF800009DF8000038B9FE48B0F84C0082
:103A00000004FFF703FD8DF800009DF8000028B9C1
:103A10004FF40060FFF7C3FC8DF800009DF8000034
:103A200038BD70B504001BD0F348F24900896831F5
:103A3000000408600D204860402088600020C860B5
:103A40004FF4806008610846FEF718FB0D20FFF771
:103A500041FB050003D1FEF730FB2060284670BD16
:103A6000262070BD08B501208DF800000146E3480E
:103A7000FEF79EF810B100208DF800009DF80000C0
:103A800008BD08B500200090FFF7ECFF012803D126
:103A90006846FFF7C6FF08B1FF2008BD0098C0F3D5
:103AA000432008BD10B5FFF7ECFF042803D0FF2822
:103AB00003D0012010BD002010BD022010BD10B5A4
:103AC00000242046FEF7D0FA204610BD2DE9F0472D
:103AD00005460020FEF7F1FA800102D50E20BDE870
:103AE000F087C44C402668341020E4E802600027C8
:103AF0004FF4806884E8C001BE48083C6830FEF797
:103B0000BDFA1020FFF7E6FA0028E8D1BA48211DD7
:103B1000B9460089000420603720C4F8108081E88D
:103B20004102B4486830FEF7A9FA3720FFF7D2FA0D
:103B30000028D4D1471EAF4860217C30B2460760D0
:103B4000C0E901610221C0E9031901214E4641612A
:103B5000FEF7BAFA0D20C4F808A0C4E90060C4E971
:103B60000368A4486830FEF789FA0D20FFF7B2FA1F
:103B70000600B4D1DFF888824FF4004A40F22A6987
:103B8000D8F8000010EA090F0FD15046FEF7FBFAF3
:103B90000028F5D05FF00004FEF7BAFA45F82400DB
:103BA000641C082CF8D32035EAE70820FEF7EBFA6E
:103BB00020B10820FEF7F0FA042090E70220FEF77B
:103BC000E2FA20B10220FEF7E7FA022087E7202080
:103BD000FEF7D9FA20B12020FEF7DEFA06207EE7B4
:103BE0004FF400742046FEF7CEFA20B12046FEF7CF
:103BF000D3FA072073E74FF4001403E0FEF788FAC6
:103C000001C57F1E2046FEF7BEFA08B1002FF5D190
:103C100040F2FF50FEF7C0FA304660E710B50446A8
:103C200074481038FFF752FF010036D17148103840
:103C30000278920922700278C2F340126270827890
:103C400012026280C278638813436380027912068D
:103C500062604279636843EA024262608279636823
:103C600043EA02226260C279636813436360027AA6
:103C70002272427A6272827A1209A272C27A1202A5
:103C8000A281027BA3891343A381427B9208A27382
:103C9000407B00F00300E073084610BD2DE9F047BB
:103CA00082465548002516460F4605700561C560D9
:103CB000534908390D604068022801D106027F0A85
:103CC0004C4C4FF0400968341020C4F80890C4E907
:103CD00000604FF48068C4E903582046FEF7CEF92F
:103CE0001020FFF7F7F9002829D1411E04F1140034
:103CF000C0E90016902181600221C0E9031501216D
:103D00004161FEF7E1F91120C4F80890C4E90070A0
:103D1000C4E903582046FEF7B1F91120FFF7DAF99C
:103D200004000CD1012140F22A30FEF722FA0120D2
:103D3000FEF71BFA3146504600F026FD2046CEE63F
:103D40002DE9FF5F2C4800251E4690460F46057062
:103D500005614FF0010AC0F80CA0294908390D602F
:103D60004068022802D14FF400787F0A214C4FF4BA
:103D7000806B68341020C4F810B0C4E900804FF0A4
:103D80004009C4E902952046FEF778F91020FFF7B4
:103D9000A1F900282BD1411E04F1140006FB08F6FE
:103DA000E0E80216902102C0022180E8220404F11A
:103DB0001400FEF789F91220C4F810B0C4E90070AD
:103DC000C4E902952046FEF759F91220FFF782F95F
:103DD00004000CD1012140F22A30FEF7CAF901207B
:103DE000FEF7C3F93146009800F0CEFC204604B03F
:103DF000BDE8F09FF40800205400002000080240B5
:103E0000342C0140FC4810B500210C22C0E90012FE
:103E10004022C0E9022111010161FEF72FF9BDE83E
:103E200010400C20FFF756B970B50026741E2046CE
:103E3000F24D00E0401E696929B9296919B929784C
:103E400009B90028F6D100206861ED4800E0641E41
:103E50000168890401D5002CF9D1E868012802D154
:103E6000FFF7D0FF0646344300D1042640F2FF504E
:103E7000FEF792F9287808B1287870BD304670BDF9
:103E80002DE9F0478246DD48002516460F460570AD
:103E90000561C560DA4908390D604068022801D122
:103EA00006027F0AD44C4FF480691020C4F81090A9
:103EB000C4E900604FF04008C4E902852046FEF7DF
:103EC000DDF81020FFF706F9002828D11820C4F8E3
:103ED0001090C4E90070C4E902852046FEF7CEF8D0
:103EE0001820FFF7F7F8002819D1411E04F114003B
:103EF000C0E900169021C0E902150121C0E9045172
:103F0000FEF7E2F8012140F22A30FEF732F931469D
:103F1000504600F0FEFB0120FEF727F92846DEE5BB
:103F20002DE9FF5FDFF8D4B200201D4616460F468C
:103F30008BF80000CBF810000122CBF80C20B04A1F
:103F4000083A1060DBF80410022901D10E027F0A42
:103F5000A94C4FF4806A1021C4F810A0C4E9006194
:103F600080464FF04009C4E902982046FEF786F8E3
:103F70001020FFF7AFF800284BD1BBF80800000471
:103F800020603720C4E90109C4E9038A2046FEF70E
:103F900075F83720FFF79EF800283AD11720C4F8AB
:103FA00010A0C4E90050C4E902982046FEF766F864
:103FB0001720FFF78FF800282BD11920C4E90070D3
:103FC000C4F810A0C4E9029847462046FEF756F808
:103FD0001920FFF77FF800281BD104F11401401EBF
:103FE0007543C1E900059020C1E902070120C1E93C
:103FF00004700846FEF768F8012140F22A30FEF707
:10400000B8F80120FEF7B1F82946009800F081FBCE
:104010003846ECE670B50026741E2046774D00E069
:10402000401E696929B9296919B9297809B900288F
:10403000F6D100206861724800E0641E0168C9047E
:1040400001D5002CF9D1E868012802D1FFF7DAFE8A
:104050000646344300D1042640F2FF50FEF79CF898
:10406000287808B1287870BD304670BD6448006873
:1040700010F4405000D0012070477CB50446002564
:104080005E480095019500895B49000408600D2099
:1040900048604020C1E90205000108610846FDF7BB
:1040A000EDFF57480168019111F0450FFAD00198D2
:1040B000400702D50324042004E00198C00705D07E
:1040C00001242046FEF768F820467CBDFDF7F0FF8E
:1040D00001900D2838D140F2FF50FEF75DF8002026
:1040E000FDF7EBFF0090C0F3432020704549009896
:1040F00008425DD00098002801DA1C207CBD4000F9
:1041000001D509207CBD0098800001D50A207CBD26
:104110000098C00001D50B207CBD0098000101D59E
:104120000C207CBD0098400101D50D207CBD00987D
:10413000C00101D50E207CBD0098000201D50F20E2
:104140007CBD0098400201D510207CBD0098800203
:1041500001D511207CBD0098C00201D512207CBD84
:104160000098000301D513207CBD0098400301D5C1
:1041700014207CBD0098800301D515207CBD0098DB
:10418000C00301D516207CBD0098000401D517207E
:104190007CBD0098400401D518207CBD00988004A7
:1041A00001D519207CBD0098000701D51A207CBDDF
:1041B00028467CBD2DE9FC4780460F4800269838EC
:1041C00001968DF8006040680F46000D3546800668
:1041D00002D42520BDE8FC870948303800680A4928
:1041E000C0B2801CB1FBF0F001900020FDF765FF2C
:1041F00080010BD50E20EDE75C0900205400002063
:10420000342C014008E0FFFDC0D401007648774C13
:104210004FF0400A40684FF48069022805D038B159
:10422000012805D0022803D021E04FEA58287F0A50
:104230002020C4E90080C4F81090C4E902A5D0464B
:104240006A48FDF71BFF2020FEF744FF0028C1D17C
:104250002120C4F81090C4E90070C4E902856348C5
:10426000FDF70CFF2120FEF735FF0028B2D12046D4
:104270002621C0E90051C4E902A55C48C4F81090A9
:10428000FDF7FCFE2620FEF725FF0028A2D100E066
:10429000761C01988642FBD36846FFF7EEFE4FF08E
:1042A000FF3404E06846FFF7E8FE641E92D0002861
:1042B00090D19DF800100729F4D00629F2D089E7A3
:1042C00070B54FF480752846FDF76AFF464C38B14B
:1042D000002020702846FDF76CFF012020612EE0B1
:1042E0000220FDF75DFF20B10220FDF762FF0220F2
:1042F00024E00820FDF754FF20B10820FDF759FF06
:1043000004201BE02020FDF74BFF20B12020FDF70B
:1043100050FF062012E01020FDF742FF20B11020D0
:10432000FDF747FF052009E04FF400752846FDF72B
:1043300037FF20B12846FDF73CFF07202070002101
:104340004CF23A30FDF715FF207870BD2848006820
:1043500010F0C05F08D024490120486124484FF084
:10436000C2515830FDF7F3BA7047002102E040080F
:10437000491CC9B20128FAD10846704770B50C46ED
:104380001C4906460025086810F0450FFBD0410780
:1043900002D50324042003E0C00705D001242046F1
:1043A000FDF7FAFE204670BDFDF782FEB04212D145
:1043B00040F2FF50FDF7F0FE0020FDF77EFE10F406
:1043C000604F03D0810404D5132070BD000C208001
:1043D00007E0410401D5102070BD000401D50F2075
:1043E00070BD284670BD0000540000205C0900200C
:1043F00000640240342C01401CB50446FE480121F3
:1044000050F82400FDF73CFDFB480021083830F847
:104410001400009001208DF804008DF806108DF82E
:10442000070002208DF80500F448694650F8240082
:10443000FDF758FB1CBDF049F04A083931F810105F
:1044400052F8200041837047EB49EC4A083931F8B3
:10445000101052F8200001837047E84951F82010ED
:104460004A69E54B083B33F8100042404A61704707
:1044700070B50446E0480E46103086B050F824006F
:104480000121FDF7FDFC01218803FDF721FDDA483C
:1044900000258DF8105014388DF8135030F81400A2
:1044A0000390D64803A9103050F82400FDF71AFBFA
:1044B000012E28D1D0482938015DC01E005DFEF7CD
:1044C000E0F9CD480E3830F8140000908DF8045013
:1044D0000CB10C2000E008208DF8050001258DF8B6
:1044E00006506846FEF7D2FBC3482638005D8DF8BB
:1044F00008000F208DF809008DF80A008DF80B5088
:1045000002A8FEF75CF906B070BDBB49BB4A14397E
:10451000103231F8101052F82000FDF749BB2DE998
:10452000FC4188460446B448B3491C38183950F851
:10453000240051F8241008430121FDF7A1FC2CB9F7
:10454000AD48012120380068FDF7B8FCAA48AB4E01
:1045500032380C3E025D801E015D56F82400FDF7E6
:104560004AFBA548371D3138025D801E015D57F8B2
:104570002400FDF740FB00208DF8060001208DF897
:1045800007009D48022530388DF8045030F814009B
:1045900000908DF8055056F824006946FDF7A2FA00
:1045A00095488DF804502E38694630F81400009074
:1045B00057F82400FDF796FA351F414655F82400B8
:1045C000FDF795FF55F824000121FEF701F8BDE83D
:1045D000FC817CB50020FDF743FD0020FDF744FD84
:1045E000FDF716FD00214FF40060FDF771FC844CCF
:1045F000002208212046FDF7FEFA0022092120466C
:10460000FDF7F9FA00220A212046FDF7F4FA00220C
:104610000B212046FDF7EFFA00220C212046FDF782
:10462000EAFA784D002202212846FDF7E4FA00213B
:104630004FF470608DF8041000908DF807106946F3
:104640002046FDF74FFA0420009069462846FDF702
:1046500049FAA014009069462046FDF743FA7CBD54
:104660002DE9FC4101210C20FDF70AFC644E0C22CF
:1046700008213046FDF7BFFA0C2209213046FDF72C
:10468000BAFA0C220A213046FDF7B5FA0C220B21AA
:104690003046FDF7B0FA0C2211463046FDF7ABFA72
:1046A000584F0C2202213846FDF7A5FA4FF47060EE
:1046B000009003208DF8050002208DF804000024EE
:1046C0008DF8064001258DF8075069463046FDF704
:1046D00009FA0420009069463846FDF703FA2803DA
:1046E00000908DF8074069463046FDF7FBF98DF8DC
:1046F000044000958DF8075069463046FDF7F2F901
:104700000121C802FDF7E4FB01218805FDF7B8FB94
:104710005DE730B53C4D04468FB04FF0FA51284666
:10472000FDF715F900212846FDF7ADF82846FCF7FE
:10473000E9FF4FF0006000903448CDE901044020CB
:104740000390002029150490CDE905018900079107
:104750008900CDE908104FF440300A9004200B90F6
:1047600003200C9048020D9080100E906946284658
:10477000FDF750F820212846FDF799F80121284639
:10478000FDF781F80FB030BD30B51F4D04468FB036
:104790004FF0FA512846FDF7DAF800212846FDF7D8
:1047A00072F82846FCF7AEFF4FF000600090174803
:1047B000CDE901040020039029150490CDE90501FD
:1047C000890007918900CDE908104FF440300A9024
:1047D00004200B9003200C9048020D9080100E9046
:1047E00069462846FDF716F820212846FDF75FF8B0
:1047F000012128460CE00000DC6200087C0000205B
:1048000000080240000C024058640240802C014025
:10481000FDF739F8B6E74FF0C0517448FDF782B89C
:104820007CB5734C00212046FEF717FB2046FEF7AF
:1048300093FA00214FF40010FDF740FB40200024C4
:104840006C4D00908DF804408DF80740694628466D
:10485000FDF748F96815009069462846FDF742F9CA
:10486000654D112028706C70AC70EC702846FDF717
:10487000A6FF0B2028706C70AC702846FDF79FFFD8
:104880005E4C00212046FCF7FEFF5C4D0021903D70
:104890002846FCF7F8FF2046FCF734FF2846FCF7D3
:1048A00031FF7CBD2DE9FC414FF400180121404649
:1048B000FDF704FB01210220FDF7E2FA0121880344
:1048C000FDF706FB01214046FDF72AFB002140468B
:1048D000FDF726FB02208DF804008DF80500012766
:1048E000444D40268DF80670002400968DF8074050
:1048F00069462846FDF7F6F868150090694628468F
:10490000FDF7F0F8042206212846FDF774F9042289
:1049100009212846FDF76FF9374D112028706C707A
:10492000AC70EF702846FDF74AFF0B2028706C70C2
:10493000AC702846FDF743FF01214046FDF7A0FA81
:104940002E4D2F492846FDF702F800212846FCF796
:104950009AFF2846FCF7D6FE2A49F00401C12448F4
:10496000103051C14FF6FF7061E804042815C1E909
:1049700006044FF440300C62C1E909400420C862CB
:104980000320C1E90C048C631E492846FCF742FF52
:104990001A4C1D49903C2046FCF7D9FF00212046C7
:1049A000FCF771FF2046FCF7ADFE16492046FCF7E8
:1049B00031FF012210212846FCF7DAFF01221021E5
:1049C0002046FCF7D5FF02E60E4B986042B100206E
:1049D000C3E9030109481946B0F19000FCF71ABF7A
:1049E0004020C3E9030107490448F7E7586402403F
:1049F000005400400004024078000020A060024003
:104A000000003D20880900203D008010FEF7C3BF54
:104A100010B520B9FFF726F808B1002010BD01201D
:104A200010BD70B514460D46FFF71CF868B10123A0
:104A300061025A022846FFF783F9FFF7F5F90446A9
:104A4000FFF730F80028FBD10CB1012070BD002029
:104A500070BD70B514460D46FFF704F868B1012328
:104A600061025A022846FFF75BFAFFF7D3FA0446C1
:104A7000FFF718F80028FBD10CB1012070BD002011
:104A800070BD094870470020012906D0022907D0CF
:104A9000032901D12021116070474FF40031FAE75A
:104AA0004FF4007111807047C0B349342DE9F041D3
:104AB000C56A0F460446BD422BD0217904F1300867
:104AC000D9B1607801232A464146FFF7C2FFE0B919
:104AD00000202071D4E907100844A8420DD9E678D7
:104AE00009E0E0690123054460782A464146FFF762
:104AF000B0FF761EF6B2012EF3D857B160780123CD
:104B00003A464146FFF78DFF10B10120BDE8F08124
:104B1000E7620020FAE72DE9F04104460021FFF7A3
:104B2000C5FF050050D12078032846D16079E8B34D
:104B3000002604F130004FF4007231460746E66269
:104B400001F007FB552084F82E02AA2084F82F02DA
:104B5000522084F8300084F83100612084F832005B
:104B6000412184F83310722284F8142284F815222B
:104B700084F8161284F81702206984F81802010AD2
:104B800084F81912010C84F81A12000E84F81B0222
:104B9000E06884F81C02010A84F81D12010C84F8F4
:104BA0001E12000E84F81F02607800E005E0012369
:104BB00039466269FFF74DFF667100226078114641
:104BC000FFF761FF00B1012528469FE78269891E32
:104BD000921E8A4201D800207047826A807801FBC9
:104BE000002070472DE9F0410D460446022902D30A
:104BF000A069A84201D8012088E72078012804D0C4
:104C0000022826D0032837D12FE0206A05EB55066D
:104C100000EB56212046FFF749FF68BBC6F30800AA
:104C20002044761C90F83070206A00EB5621204614
:104C3000FFF73CFF00BBC6F308002044E90790F8EB
:104C4000300047EA002001D000095FE7C0F30B0005
:104C50005CE7206A00EB15212046FFF727FF58B9D3
:104C6000E8B204EB4000008E50E7206A00EBD5115B
:104C70002046FFF71BFF10B14FF0FF3046E740F230
:104C8000FF1000EA8500204490F83010D0F8310081
:104C900041EA002020F0704038E72DE9F047174640
:104CA0000D460446022902D3A069A84202D8022078
:104CB000BDE8F087217807F0FF084FF001090129CE
:104CC00007D0022937D0032946D0022084F8049067
:104CD000EEE7206A05EB550600EB56212046FFF76C
:104CE000E5FE0028F2D1C6F3080020443030E90781
:104CF00003D0017868F31F1100E03946017084F891
:104D00000490206A761C00EB56212046FFF7CEFE69
:104D10000028DBD1C6F3080121443031EA0702D074
:104D2000C7F3071205E00A78C7F3032302F0F00285
:104D30001A430A70CAE7206A00EB15212046FFF7E4
:104D4000B5FE0028C2D1E9B204EB41013A0A81F86C
:104D5000308081F83120B9E7206A00EBD511204678
:104D6000FFF7A4FE0028B1D140F2FF1101EA85014E
:104D70000A194FF07043D2F8311003EA0121394388
:104D800002F8301F0B0A53700B0C9370090ED17090
:104D90009CE72DE9F0410E460746022918D3B86971
:104DA000B04215D900254FF001081DE031463846C4
:104DB000FFF718FF04001AD0012C09D0601C09D09D
:104DC000002231463846FFF768FF05000FD103E0A7
:104DD00002250CE001250AE03869411C03D0401C83
:104DE000386187F805802646B869B042DED8284683
:104DF0008CE62DE9F0410F00064605D0FFF7F2FEE4
:104E0000022808D2012081E6F46814B1B069A042FA
:104E100005D8012403E0B1698142F4D83C46254617
:104E2000B0696D1CA84202D80225022C0AD329467B
:104E30003046FFF7D7FE38B1411CE4D00128E2D05C
:104E4000A542EDD1002061E66FF070422946304660
:104E5000FFF723FF30B957B12A4639463046FFF7EE
:104E60001CFF20B101280BD0012528464EE6F56035
:104E70003069411CF9D0401E306101207071F4E7A7
:104E80004FF0FF35F1E770B50D46C18081680446EB
:104E900001291ED0206882698A421AD921B9027874
:104EA000032A04D1416A11B18078060117E0E1605C
:104EB0000189A9420DD9406A17E02068FFF792FEE8
:104EC0000146401C07D0022903D32068806988422C
:104ED00003D8022070BD012070BDA81B85B2B54269
:104EE000EBD2E1602068FFF771FE00EB1510206146
:104EF00005F00F013022206802EB41110844606187
:104F0000002070BD2DE9F0410446C0880F46401CCA
:104F10000604360C2DD0206958B331075CD1401CF3
:104F20002061E168206829B18278521E12EA161FBA
:104F300004D051E00089B0421BD94DE0FFF752FE8A
:104F40000546012819D9681C31D020688169A94219
:104F50003CD877B1E168FFF74CFF05000BD0012D7D
:104F60000BD0681C23D000212068FFF79FFDF0B90B
:104F700005E00420CAE50720C8E50220C6E5206850
:104F80004FF400720021303001F0E3F82946206828
:104F9000FFF71CFE216800274FF00108C8620EE0F1
:104FA00080F8048000212068FFF780FD08B101200F
:104FB000ACE52068C16A491C7F1CFFB2C162206851
:104FC0008178B942ECD8C16AC91BC162E560294643
:104FD0002068FFF7FBFD2061E68006F00F0130221C
:104FE000206802EB41110844606100208EE510B595
:104FF0000446042015E02068FFF758FDB0B9626947
:10500000117861B1E52904D02E2902D0D17A09079F
:105010000ED500212046FFF775FF10B106E00420F1
:1050200004E021690029E6D1002801D00021216196
:1050300010BD70B504460021FFF725FF0EE0216981
:105040002068FFF733FD05001FD160690078E5286F
:1050500007D030B101212046FFF754FF0500EED004
:1050600013E021692068FFF721FD05000DD1666975
:1050700020220021304601F06CF80B223046A16955
:1050800001F05EF8206801210171284670BD10B55D
:105090000446C188FFF7F7FE00280BD1216920687C
:1050A000FFF704FD002805D16269E521117022682F
:1050B0000121117110BD2DE9F04789460D6800E00E
:1050C0006D1C29782F29FBD05C29F9D084690B222B
:1050D0002021204601F03DF8002001460B4608261D
:1050E000EA5C5B1C202A4CD92F2A4AD05C2A48D083
:1050F0002E2A01D0B14208D3082E4FD12E2A4DD1ED
:1051000008210B268006000EEAE7802A01D340F032
:105110000300A2F181071E2F02D95F3F1C2F13D875
:10512000EF5C5B1CA7F1400CBCF13F0F04D3A7F16F
:10513000800CBCF17D0F31D2A6F1010C61452DD25E
:105140006254491C67541AE0F8A700E07F1C97F8E6
:1051500000C0BCF1000F02D09445F7D11EE0A2F1CF
:105160004107192F02D840F0020007E0A2F16107C1
:10517000192F03D8203A40F00100D2B26254491CE2
:10518000AEE71D44C9F80050202A01D8042200E0EF
:10519000002219B12178E52902D003E0062087E535
:1051A00005212170082E01D18006000E00F00301B8
:1051B000012901D142F01002C0F38100012801D180
:1051C00042F00802E272002072E510B5036901F1B5
:1051D00009023BB340690024035D202B07D0052B57
:1051E00000D1E523641C02F8013B082CF4D3037AB8
:1051F000202B0BD02E2302F8013B0823C45C202C6B
:1052000004D05B1C02F8014B0B2BF7D3C37A0B7253
:10521000037FD0F81D4043EA04230B60038B8B808F
:10522000C08AC8800020107010BD73B50446019973
:1052300008782F2801D05C2801D1491C0191002554
:10524000A56001980078202805D200212046FFF7AC
:105250001AFE65617CBD01A92046FFF72CFF0028DE
:10526000F8D100212046FFF70EFEF8B92169206829
:10527000FFF71CFCD0B961690A782AB1CA7A120713
:105280000ED40A23A26903E004200FE05B1E06D3BC
:1052900011F8015B12F8016BAD1BF7D000E02DB1E6
:1052A00000212046FFF72EFE0028DFD0A169C97A31
:1052B00028B10428CED14907CCD405207CBD4907AC
:1052C000FCD46169C87AC006F7D5206800F049FFB0
:1052D000A060C0E710B504460A464078012304F1F7
:1052E0003001FFF79EFB08B1032010BDB4F82E0279
:1052F000A0F52A41553901D0022010BD94F866006E
:10530000B4F8671040EA01218C48B0EB012F08D0B7
:1053100094F88210B4F8832041EA0221B0EB012F07
:1053200001D1002010BD012010BD2DE9F0470B4632
:105330000168164600250A78303A092A02D84C78C6
:105340003A2C01D01D6005E0891C01601D600AB186
:105350000B20ADE47A48046894B11C60207820B139
:105360006078FFF755FBC1070CD02570A946294688
:10537000657000262046FFF7ADFF012809D015E033
:105380000C2095E41EB1400701D50A2090E40020CE
:105390008EE404F5F7700179F1B3017AD0F80900D1
:1053A00041EA002631462046FFF794FF032801D04A
:1053B00090BB01E001207BE4B4F83B00B0F5007F36
:1053C00057D1B4F8460028B994F85400D4F85510D1
:1053D00040EA0120E06194F840108446E170012920
:1053E00001D0022945D1484394F83D10A17099B1EC
:1053F0004B1E19423DD1B4F841202281130738D108
:10540000B4F843502DB994F85030D4F8515043EAD1
:105410000525E78F07B100E02BE03B1803EB1213E3
:105420009D4226D3ED1AB5FBF1F111B3012540F6EB
:10543000F678414500D302254FF6F678414500D372
:1054400003253344A362891CF319A1612362032D50
:1054500011D072B118446062022D17D001F0010022
:1054600001EB410100EB510000F2FF10BCEB502FAB
:105470000ED20D201CE4002AFBD194F85C00D4F875
:105480005D2040EA022060628800EDE74800EBE71B
:105490004FF0FF30C4E903904F46032D31D16771BF
:1054A000B4F86000012382196261607804F1300170
:1054B000FFF7B7FA28BBB4F82E02A0F52A415539F8
:1054C0001FD194F83000D4F8311040EA01201D4972
:1054D000884216D194F81402D4F8151240EA01203B
:1054E000194988420DD194F81C02D4F81D1240EAE3
:1054F0000120E06094F81802D4F8191240EA012063
:1055000020610F492570091F0888401C0880E08031
:10551000E76227713BE710B5016829B10A781AB133
:10552000CA888088824211D0092010BD222A2B2CE3
:105530003A3B3C3D3E3F5B5D7C7F00000046415472
:105540009C00002052526141727241614878FFF71D
:105550005FFAC007E9D00320E7E770B50C00054605
:1055600008D0FEF77FFA18B10020FFF74FFA08B114
:10557000032070BD0DB10B2070BDFE4900220868EC
:1055800000B1027004B1227000200C6070BD2DE9E2
:10559000F7478BB007000ED04FF0000802F01F064F
:1055A00026F0010269460CA8C7F80080FFF7BDFE8F
:1055B000050003D083E009200EB0F0E507A80690AF
:1055C00068460C99FFF731FE059C050001D104B92E
:1055D000062516F01C0F4CD055B1042D03D168469A
:1055E000FFF727FD0546059C46F0080655B166E025
:1055F000E07A10F0110F01D0072560E0700701D5A7
:1056000008255CE0300742D5FFF73BFAA073010A9A
:10561000E173010C2174000E607484F80B8084F82F
:105620001C8084F81D8084F81E8084F81F80214629
:10563000009800F096FD81460021204600F09AFD7A
:1056400000990120B9F1000F08711ED00098494659
:10565000D0F82CA0FFF79DFB050030D10099A9F1EF
:105660000100C86051460098FFF720FA05000AD0F3
:1056700025E025BBE07AC10601D504251FE0B1076E
:1056800001D5C007B8D1300701D546F020060098F3
:105690002146C06AC7E90704BE71009800F061FDA9
:1056A0003861207FD4F81D1040EA0120C7E902804C
:1056B000C7F81880009838600098C088B8802846DD
:1056C0007AE72DE9F05F0F4600219846154604461B
:1056D0001960FFF720FF002803D1A079010602D549
:1056E0000220BDE8F09FC00708D0D4E90210401A9C
:1056F00004F12409854200D9054684E00720F0E73B
:10570000A068C10567D122689178491E01EA50213D
:1057100011F0FF0609D120B310466169FFF762FA64
:10572000022820D3411C4ED0606161692068FFF7D8
:105730004DFAC0B100EB060B680A5FEA000A29D0F7
:10574000206806EB0A0281788A4201D9A1EB060A99
:105750000AF0FF0340785A463946FFF762F990BBDA
:1057600006E02069DCE7A07940F08000A071B7E78F
:10577000A07940060BD5A169A1EB0B00504506D2DC
:1057800007EB40204FF40072494600F0D9FC4FEA85
:105790004A262EE0A2695A451BD0A07940060AD5B8
:1057A0002068012349464078FFF753F958B9A0799A
:1057B00020F04000A071206801235A4640784946F5
:1057C000FFF72FF928B1A07940F08000A0710120E7
:1057D00087E7C4F818B02089C0F30800C0F5007648
:1057E000AE4200D92E46011932463846243100F027
:1057F000A7FCA06837443044A060D8F800008119A5
:10580000AD1BC8F80010002D7FF47AAF002068E7C8
:105810002DE9F05F0F4600219846164604461960B0
:10582000FFF779FE002803D1A079010601D50220F7
:1058300057E7800701D4072053E7E16804F1240902
:105840008A198A427AD39DE0A068C1057AD122687C
:105850009178491E01EA502111F0FF050BD1B0B13A
:1058600010466169FFF7C5FA002867D0012837D0D4
:10587000411C5DD06061A079400615D520680123E8
:1058800049464078A269FFF7E4F870BB08E0206958
:105890000028EBD100211046FFF7ABFA2061E3E7C7
:1058A000A07920F04000A07161692068FFF78EF9AF
:1058B000B0B100EB050B700A5FEA000A29D021683D
:1058C00005EB0A028878824201D9A0EB050A4878E4
:1058D0000AF0FF035A463946FFF7BBF828B905E03E
:1058E000A07940F08000A071A1E721E0A169A1EBBF
:1058F0000B0050450AD207EB40214FF40072484696
:1059000000F01EFCA07920F04000A0714FEA4A256B
:105910002AE0A169594513D0D4E9020188420FD287
:10592000206801235A4640784946FFF77AF838B193
:10593000A07940F08000A0710120D2E625E001E0CE
:10594000C4F818B02089C0F30800C0F50075B5424E
:1059500000D9354620442A463946243000F0F0FB71
:10596000A07940F04000A071A0682F442844A060B6
:1059700002E000009C000020D8F800004119761BCE
:10598000C8F80010002E7FF45FAFD4E9020188420E
:1059900000D9E060A07940F02000A0710020A0E6CE
:1059A00070B50446FFF7B7FD00280ED1A1798A062D
:1059B0000BD548060ED52068012304F12401407858
:1059C000A269FFF746F808B1012070BDA07920F068
:1059D0004000A071E1692068FFF768F80028F4D161
:1059E000256AE87A40F02000E872207B2877A089B9
:1059F000000A6877E068000CA877E068000EE87796
:105A00002846216900F0B6FBFFF73BF8A875010AAC
:105A1000E975010C2976000E68760020A874E874F8
:105A2000A07920F02000A071216801200871206871
:105A3000BDE87040FFF76FB810B50446FFF7B0FF40
:105A4000002801D1002121606FE52DE9F0410D46CC
:105A50000446FFF760FD5FEA000803D1A17908065C
:105A600002D50220BDE8F081E068A84202D2890791
:105A700000D405460027A068A760FDB12268917890
:105A80004E0268B1691E401EB1FBF6F1B0FBF6F3A1
:105A9000994205D3711E8843A0602D1A61690CE0FC
:105AA000216949B900211046FFF7A3F901460128F1
:105AB0003FD0481C4ED021616161D1B926E0A07968
:105AC0008007206805D5FFF794F9010004D1354619
:105AD00011E0FFF787F80146481C3BD0012928D97F
