:020000040800F2
:10000000C0470120E50200086D0400086F040008E5
:100010007104000873040008750400080000000063
:10002000000000000000000000000000770400084D
:1000300079040008000000007B0400087D0400082B
:10004000FF020008FF020008FF020008FF0200088C
:10005000FF020008FF020008FF020008FF0200087C
:10006000FF020008FF020008FF020008FF0200086C
:10007000FF020008FF020008FF020008FF0200085C
:100080008904000887040008FF020008FF02000836
:10009000FF020008FF020008FF020008FF0200083C
:1000A000FF020008FF020008FF020008FF0200082C
:1000B000FF020008FF020008FF020008FF0200081C
:1000C000FF020008FF020008FF020008FF0200080C
:1000D000FF020008FF02000881040008FF02000878
:1000E000FF020008FF020008FF020008FF020008EC
:1000F000FF020008FF020008FF020008FF020008DC
:10010000FF02000883040008FF020008FF02000845
:10011000FF020008FF020008FF020008FF020008BB
:10012000FF020008FF020008FF020008FF020008AB
:10013000FF0200087F040008FF020008FF02000819
:10014000FF020008FF020008FF020008FF0200088B
:10015000FF020008FF020008FF020008FF0200087B
:10016000FF020008FF020008FF020008FF0200086B
:10017000FF020008FF020008FF020008FF0200085B
:10018000FF020008DFF80CD004F082FC00480047B2
:1001900057030008C047012080F30888704700001B
:1001A000474810B5016841F001010160444A00214F
:1001B000083211600268434B1A400260031D424A34
:1001C0001A60026822F4802202603D480C3001600F
:1001D00000F03BF83D494FF00060086010BD70B57D
:1001E000374C083420683A4A10F00C01394804D0E2
:1001F000394E042903D0082903D002601BE00660B1
:1002000019E02F49091D0B68C3F380550B6803F0F3
:100210003F0315B1B6FBF3F201E0B2FBF3F20B685A
:100220000968C3F388135A43C1F30141491C4900CB
:10023000B2FBF1F101602168264AC1F30311121DDE
:10024000515C0268CA40026070BD1D4900200A6806
:1002500042F480320A604FF4A0630A6800F10100A2
:1002600012F4003F01D19842F7D10868800326D5E7
:100270001348083002680260026842F400420260DB
:10028000026842F4A0520260031F144A1A600A680E
:1002900042F080720A600A689201FCD5104A40F26E
:1002A00003711160016821F003010160016841F0F0
:1002B000020101600168C1F381010229FAD170478E
:1002C00000380240FFFFF6FE1030002408ED00E089
:1002D0000024F4000000002040787D01193C400516
:1002E000003C02400648804706480047FEE770474A
:1002F000FEE7FEE7FEE7FEE7FEE7FEE7FEE7FEE7D6
:10030000A10100088501000810B501684F4A11409D
:10031000B1F1005F09D141684D4C61600068FFF7A1
:100320003BFF6068BDE81040004710BD08B54FF4C2
:10033000A06001F057F831208DF8000003208DF8FF
:10034000010000208DF8020001208DF803006846AE
:1003500001F04DF808BD70B5ADF53E7D642189A86A
:1003600004F089FB0024204602F0AAFC012002F0E0
:10037000A7FC022002F0A4FC032002F0A1FC002054
:1003800002F0C6FC012002F0C3FC022002F0C0FC17
:10039000032002F0BDFC02F056F8FFF7C7FFA2A849
:1003A00001F0ACFD002002F095FF2A49002003F087
:1003B00051FD89A9B6A804F04DF810B1002002F053
:1003C0009EFC012224A1684603F051FD18B10320D0
:1003D00002F095FCFEE71E4903980860002002F039
:1003E0008EFC204D4FF400760BE00398A04225D9F7
:1003F00004F50074A04200D204462146684603F08A
:1004000092FF134B291908333246684603F0C9FDA1
:100410000028EAD0012002F072FC00F080F80220EF
:1004200002F06DFC4FF40041080301F00EF80E4895
:10043000FFF76AFF0DF53E7D002070BD684603F0B2
:1004400069FF0021084603F005FDE3E70000FE2FE9
:1004500014000020900000207570646174652E62A5
:10046000696E0000C0020020008000087047FEE7AF
:10047000FEE7FEE7FEE7704770477047704770473A
:10048000704702F0A2BB7047704700000021A0F146
:1004900000634FF4804293423FD34D49014491425F
:1004A00001D2082139E04B490144914201D2102187
:1004B00033E049490144914201D218212DE04749D6
:1004C0000144B1F5803F01D2202126E04449421881
:1004D0004FF400318A4201D228211EE0414A0244F1
:1004E0008A4201D2302118E03F4A02448A4201D2B6
:1004F000382112E03D4A02448A4201D240210CE0F8
:100500003B4A02448A4201D2482106E0394A10445B
:10051000884201D2502100E05821084670472DE959
:10052000F0470026354601F01BF8F32001F098F95A
:10053000284F7F423846FFF7A9FF2F4CDFF8A4A0D1
:10054000CAF1000A60605046FFF7A0FFA060606833
:1005500004E0022101F035F8206908302061A1682B
:100560008842F6D3B9463846E760244FDFF89080DA
:10057000B95D01F0DFF8082800D0FEE7D8F80000E8
:10058000864205D0E068761C401CE0605045EFD301
:1005900000F0F2FF0020C4F80C906070D8F8001052
:1005A0005646E068026822707A5D23789A4202D04B
:1005B0006278521C6270401C6D1CE0608D4201D05C
:1005C000B042EED360780F490860BDE8F0870000C4
:1005D00000C0FFF70080FFF70040FFF70000FFF7C3
:1005E0000000FEF70000FCF70000FAF70000F8F743
:1005F0000000F6F70000F4F724000020C0020020FD
:1006000014000020200000202DE9F043016821F0B3
:10061000010101600021016041608160C1600161F0
:1006200021214161B849B84B3D221039984202D18D
:100630008A60BDE8F083B44C4FF474631834A04270
:1006400001D18B60F5E7B04D4FF474143035A842FA
:1006500001D18C60EDE7AC4E4FF074654836B04286
:1006600001D18D60E5E7A84FA84E6037B84201D1AF
:10067000CE60DEE7A44FDFF898C27837B84202D1E7
:10068000C1F80CC0D5E7A04FDFF888829037B84298
:1006900002D1C1F80C80CCE79B4F4FF03D59A837F1
:1006A000B84202D1C1F80C90C3E79B499A4F083970
:1006B000B84201D10A60BCE7974A1832904201D192
:1006C0000B60B6E7944A3032904201D10C60B0E73B
:1006D000914A4832904201D10D60AAE78E4A8E4974
:1006E0006032091F904201D10E60A2E78A4A783237
:1006F000904202D1C1F800C09BE7874A90329042F5
:1007000002D1C1F8008094E7834AA832904290D188
:10071000C1F800908DE730B50368804ACC6813407B
:100720000A682243D1E905452C432243CC69224380
:100730000C6A22434C6A22438C6A22434C6B22434C
:100740008C6B22431A430260426922F00703D1E90D
:100750000B2422431A4342610A6942604A6882605C
:100760008968C16030BD0021016041608160C16065
:10077000016141618161C161016241628162C16265
:1007800001634163816370470029016802D041F031
:10079000010101E021F001010160704700290168B9
:1007A00002D041F4004101E021F4004101607047B2
:1007B0000029016802D041F0200101E021F0200170
:1007C0000160704741607047406880B27047002AFE
:1007D000026802D042F4002201E022F4002202600A
:1007E000016170470029016802D041F4802101E0D5
:1007F00021F48021016070470AB101617047C16036
:100800007047014600200968090300D501207047A0
:10081000014600200968C90700D0012070474069DF
:1008200000F03800704702463B4B00209A4202D24B
:10083000354A103A01E0384A103A8B0001D5526827
:1008400000E01268364B1A400A4200D0012070477F
:10085000314A904202D22C48103801E02E4810381C
:100860002F4A8B0001EA020101D5C1607047816007
:1008700070470B0607D5436912B143F0800301E0CE
:1008800023F080034361802908D0002A026801F028
:100890001E0101D00A4300E08A430260704730B570
:1008A0001D4A0024904202D2174A103A01E01A4A27
:1008B000103A1C4B194205D01E2303EAD1250368C8
:1008C0002B4002E0406900F08003880001D55068A9
:1008D00000E01068124A1040084201D003B1012420
:1008E000204630BD0C4A904202D20748103801E041
:1008F000094810380A4A8B0001EA020101D5C1609B
:100900007047816070470000106002403D00002089
:10091000400F002000003D20106402403F801CF08A
:100920007D0F7D0F3C0F3C0F714910B5884206D1F9
:100930000121084600F03FFA002101204FE06D49F7
:10094000884206D10121022000F035FA0021022060
:1009500045E06949884206D10121042000F02BFAC4
:10096000002104203BE06549884206D1012108208E
:1009700000F021FA0021082031E06149884206D1C7
:100980000121102000F017FA0021102027E05D4916
:10099000884206D10121202000F00DFA00212020FC
:1009A0001DE05949884206D10121402000F003FA98
:1009B0000021402013E05549884206D101218020C2
:1009C00000F0F9F90021802009E0514988420AD15C
:1009D00084150121204600F0EEF900212046BDE8F3
:1009E000104000F0E8B910BDF0B500220123032546
:1009F0000E6803FA02F42640A64230D1076854007C
:100A000005FA04F6B74307600F79D0F800C0A74095
:100A100047EA0C0707600F79012F01D0022F12D18E
:100A20008768B74387604E798768A6403E438660F3
:100A3000466803FA02F7BE43466046688F799740DE
:100A4000BFB23E434660C668570005FA07FC26EA77
:100A50000C06C660CE79A640C4682643C660521C08
:100A6000102AC5D3F0BD4FF6FF710160002101715E
:100A700041718171C171704741F48032C261C161BD
:100A8000C261C169C06970470246002012690A420A
:100A900000D001207047006980B2704702460020F4
:100AA00052690A4200D001207047406980B2704705
:100AB00001837047418370470AB1018370474183C6
:100AC00070474161704742694A40426170474B0735
:100AD000DB0E9A40C90810B500EB8100016A0F24B3
:100AE0009C40A1430162016A1143016210BD0000F4
:100AF000000002400004024000080240000C0240D6
:100B0000001002400014024000180240001C024085
:100B100000200240E948016841F001010160E74A14
:100B20000021083211600268E54B1A400260031D83
:100B3000E44A1A60026822F480220260DF480C3026
:100B400001607047DD490022891C0A7008707047F7
:100B500002460020510901290CD002290CD0D749A6
:100B60007431096802F01F02012393400B4200D048
:100B700001207047D149F4E7D0497031F1E730B531
:100B800000244FF4A0653120FFF7E2FF641CAC4263
:100B900001D00028F7D03120FFF7DAFF002800D07D
:100BA000012030BDC5490A6822F0F80242EAC000BF
:100BB00008607047C44908607047C049002270311E
:100BC0000A700A70012802D0042801D1052008709B
:100BD0007047BE490860704741EA82115A0810B553
:100BE000BB4B029C03EB02421143014341EA046008
:100BF000B249091D086010BDB349086670478001FD
:100C000040EA0170AD49843108607047AE4988669A
:100C10007047AD49C8647047A84A08321368084352
:100C200023F0EC63184310607047A44A083213683D
:100C3000084323F078431843106070479F4A0832F6
:100C4000116821F003010143116070479B4808308F
:100C5000006800F00C007047984A0832116821F0D3
:100C6000F001014311607047944A0832116821F481
:100C7000E051014311607047904908310A6822F43D
:100C8000604242EAC0000860704770B58B4B083381
:100C90001968904A11F00C0104D08F4E042903D03A
:100CA000082903D002601BE0066019E08349091D92
:100CB0000C68C4F380550C6804F03F0415B1B6FB12
:100CC000F4F201E0B2FBF4F20C680968C4F3881492
:100CD0006243C1F30141491C4900B2FBF1F10160DB
:100CE00019687E4A01F0F0010909545C0168E1408D
:100CF00041601C6804F4E054A40A145D21FA04F471
:100D000084601B6803F460435B0BD25CD140C1601C
:100D100070BDC0F30121032908D1684A0832116867
:100D200021F4F8136E490140194311606349703191
:100D30000A68C0F30B0002430A60704763494439F4
:100D4000086070476149403908607047654908602C
:100D500070475A4A30320029116801D0014300E03F
:100D6000814311607047554A34320029116801D01F
:100D7000014300E0814311607047504A3832002936
:100D8000116801D0014300E08143116070474B4A74
:100D900040320029116801D0014300E08143116015
:100DA0007047464A44320029116801D0014300E0EF
:100DB000814311607047414A10320029116801D007
:100DC000014300E08143116070473C4A143200291E
:100DD000116801D0014300E0814311607047374A38
:100DE00018320029116801D0014300E081431160ED
:100DF0007047324A20320029116801D0014300E0D7
:100E00008143116070472D4A24320029116801D0B6
:100E1000014300E0814311607047284A50320029A5
:100E2000116801D0014300E0814311607047234AFB
:100E300054320029116801D0014300E08143116060
:100E400070471E4A58320029116801D0014300E062
:100E5000814311607047194A60320029116801D03E
:100E6000014300E0814311607047144A6432002955
:100E7000116801D0014300E08143116070470F4ABF
:100E80000D320029117801D0014300E08143117037
:100E900070470A487430016841F080710160704702
:100EA0000146064A00200C3212680A4200D0012096
:100EB000704702490E310870704700000038024048
:100EC000FFFFF6FE1030002400004742800E47422C
:100ED0000000FFFF0024F40040787D01380000206E
:100EE000FFFCFF0F5C01474210B50121CC022046F8
:100EF000FFF789FF2046BDE810400021FFF783BFC0
:100F000030B5604B1A6847F6FF618A43017D8468FB
:100F1000C568214344682C43214304680069214388
:100F200001431143196030BD00210175016041602A
:100F30008160C16001617047534908607047514941
:100F4000091F086070474F48001F006800F0030049
:100F500070474C4A10B5121D01681160121D1168CE
:100F6000CB0AD0E901142143D0E903400443DB025A
:100F700021431943116010BD00210160416081606F
:100F8000C160016170473F480C300068C0B27047D3
:100F90003C491031405870473A4A10B52032016838
:100FA0001160121D41681160121D116821F0F703D4
:100FB000D0E902142143D0E90440044321431943FA
:100FC000116010BD4FF0FF31016000214160816070
:100FD000C1600161416170472A482C300068704748
:100FE00028487C300068704726497C31086070478B
:100FF00024484430006870472449086070472349FA
:10100000091D0860704721490831086070471F4971
:101010000C31086070471E49086070471D49086020
:101020007047012181431C48016070471B490860DB
:1010300070471649143908607047124A383200293F
:10104000116801D0014300E08143116070470146FF
:101050000C4A0020303212680A4200D0012070474A
:1010600008493431086070470146064A0020303292
:1010700012680A4200D001207047024934310860EA
:1010800070470000042C0140A0802542A085254225
:10109000AC812542B0812542B4812542B8812542E8
:1010A000CA4910B5884206D101211020FFF7ABFED6
:1010B0000021102028E0C649884202D101214C04B9
:1010C00010E0C449884202D101218C040AE0C249DF
:1010D000884202D10121CC0404E0C04988420AD1EF
:1010E00001210C052046FFF784FE2046BDE8104094
:1010F0000021FFF77EBEBA49884209D10121202094
:10110000FFF781FE00212020BDE81040FFF77BBEE5
:1011100010BD7FB50446008A0D4620F44051E88892
:1011200008432082A08941F20C618843A9882A895A
:1011300011436A8902431143A181A08A20F44071BE
:10114000A8890843A0826846FFF79FFD9F48844214
:1011500002D0A348844201D1039800E00298A189FB
:101160000904002900EBC00101EB0010296802DA34
:101170004FEA410101E04FEA8101B0FBF1F0642246
:10118000B0FBF2F14FEA01114FEA11136FF01805AD
:101190006B4300EB8300A3891D044FF0320306D597
:1011A00003EBC000B0FBF2F000F0070005E003EB3A
:1011B0000010B0FBF2F000F00F00084320817FBD6B
:1011C0004FF41651016000218180C18001810C2201
:1011D00042818181704710B5028A4C8822F4706385
:1011E0000A8822438C88C9880C4322431A4302820E
:1011F00010BD0021018041808180C180704700299D
:10120000818902D041F4005101E021F40051818133
:101210007047028B02F47F420283028B0A430283EF
:1012200070470029818902D041F4004101E0C1F3F7
:101230000E01818170470029818A02D041F400614A
:1012400001E021F4006181827047C1F308018180CF
:1012500070478088C0F308007047028A22F00F02AE
:101260000282028A0A43028270470029818902D0E1
:1012700041F0020101E021F0020181817047828981
:1012800022F40062828182890A4382817047028A45
:1012900022F020020282028A0A4302827047002959
:1012A000018A02D041F4804101E021F480410182B1
:1012B0007047818941F00101818170470029818A4D
:1012C00002D041F0080101E021F00801818270475D
:1012D000028BD2B20283028B42EA01210183704762
:1012E0000029818A02D041F0200101E021F0200193
:1012F000818270470029818A02D041F0100101E00B
:1013000021F0100181827047828A22F004028282D9
:10131000828A0A43828270470029818A02D041F082
:10132000020101E021F0020181827047002A828AD5
:1013300001D00A4300E08A438282704710B5C1F3AE
:10134000421301F01F040121A140012B07D0022B01
:1013500007D01430002A026805D00A4304E00C309C
:10136000F8E71030F6E78A43026010BD024600201D
:1013700012880A4200D001207047C943018070479B
:1013800070B501F01F0601220025C1F3421302FAD5
:1013900006F4012B0FD0022B0FD0838A4FEA1121C4
:1013A0000088234202FA01F200EA020001D000B1F3
:1013B0000125284670BD8389F0E7038AEEE70A0A13
:1013C00001219140C9430180704700000010014095
:1013D0000044004000480040004C004000500040E5
:1013E000001401402749084327490860704770B539
:1013F0000F21C478027801234FF0E026E4B1224C9B
:10140000246804F4E064C4F5E064C4F30724C4F180
:101410000405E1404478AC4085780D4025431B4CE1
:1014200029011155007800F01F018B40400906EB9F
:101430008000C0F8003170BD02F01F0083405009E9
:1014400006EB8000C0F8803170BD114A11400143A5
:101450000D48001F016070470B4A121D00291168DA
:1014600001D0014300E08143116070474FF0E0215B
:101470000428086903D020F004000861704740F098
:101480000400FAE70000FA050CED00E000E400E0DB
:1014900080FFFF1F10B501218C032046FFF7B3FC2E
:1014A0002046BDE810400021FFF7ADBC114908609F
:1014B000704710B58A07130F21F003040F220D495E
:1014C0009A40083121440C6894430C600A689840A3
:1014D00002430A6010BD0849086070470749086068
:1014E00070470449002020310968C90500D5012052
:1014F0007047000000380140DC002742000427420A
:10150000D94908707047D8490028086802D040F4CB
:10151000807001E020F4807008607047D249002894
:10152000086802D040F4007001E020F40070086008
:101530007047CD490028086802D040F4806001E07F
:1015400020F4806008607047C748016841F400617A
:1015500001607047C448016841F4805101607047E0
:10156000C14810300068002805DABF48BF49001D97
:101570000160BF4901607047BB481030016841F00D
:10158000004101607047B84908200C310A68D20355
:1015900001D5012070470A68D20601D505207047A1
:1015A0000A6812F0EF0F01D006207047096889071A
:1015B000FBD50720704700B5FFF7E5FF0128FBD0FA
:1015C00000BD30B50546002429B1012928D00229E3
:1015D00029D04FF44074FFF7EEFF08281FD1A24B2B
:1015E0001033186820F440701860186820431860A1
:1015F000186820F0F8001860186845F002010843E8
:101600001860186840F480301860FFF7D4FF19683C
:1016100021F002011960196821F0F801196030BD4C
:101620004FF48074D7E74FF40074D4E710B5034645
:101630000024FFF7C0FF2BB1012B1DD0022B1ED0C1
:101640004FF44074082816D1874B1033186820F4E3
:1016500040701860186820431860186840F0040053
:101660001860186840F480301860FFF7A4FF19680C
:1016700021F00401196010BD4FF48074E2E74FF4CB
:101680000074DFE770B506461546FFF794FF08289B
:1016900015D1754C1034206820F44070206020680B
:1016A00040F440702060206840F001002060C6E9EE
:1016B0000053FFF780FF216821F00101216070BD18
:1016C00030B504460D46FFF776FF082814D1664B67
:1016D0001033186820F440701860186840F40070E7
:1016E0001860186840F0010018602560FFF763FF7C
:1016F000196821F00101196030BD30B504460D466E
:10170000FFF759FF082814D1574B1033186820F4FD
:1017100040701860186840F480701860186840F0D5
:10172000010018602580FFF746FF196821F00101CC
:10173000196030BD30B504460D46FFF73CFF082860
:1017400012D1494B1033186820F4407018601868A3
:101750001860186840F0010018602570FFF72BFF33
:10176000196821F00101196030BD3F48143000684C
:10177000C00705D03C483F49083001603E49016040
:10178000704739481430016841F001010160704729
:1017900010B503460C46FFF70EFF082807D1324864
:1017A000163001880CB1994300E01943018010BD47
:1017B00000B50346FFF7FFFE082802D12A4815307E
:1017C000037000BD30B504460B461546FFF7F3FE27
:1017D000082808D124491431087800F00F00034389
:1017E0002B4323430B7030BD1F4914310A7822F07C
:1017F0000C020A700A7802430A7070471A481430C3
:10180000017841F002010170D5E6174814300068F4
:10181000C0F34710704714481630008870471249CB
:10182000002015310978AA2900D0012070470E4800
:101830001430007800F00C0070470B4A1032002979
:10184000116801D0014300E08143116070470146F7
:10185000054A00200C3212680A4200D0012070476D
:1018600001490C3108607047003C02402301674584
:10187000AB89EFCD3B2A19087F6E5D4C37490020BC
:101880000860091D0860091D0860091D08603349CA
:10189000334814310860704730B5304983790268A5
:1018A00053B30B6893430B600A1D13680468A3438A
:1018B000136002790A441368046823431360274ABB
:1018C000083213680468A3431360131D1C6805687D
:1018D000AC431C604479102C05D021440A68006890
:1018E00002430A6030BD1168046821431160196821
:1018F00000680143196030BD0079084401689143D4
:10190000016030BD0021016001710C2242718171C2
:101910007047124910310A6802430A607047014655
:101920000E4A0020143212680A4200D0012070478B
:101930000A49143108607047084A014600201268BD
:10194000064B0A4014331B680B4202D0002A00D019
:10195000012070470149143108607047003C014084
:10196000FFFF7F00C34910B5884202D101214C0519
:101970000AE0C149884202D101218C0504E0BF4937
:1019800088420AD10121CC052046FFF732FA2046D1
:10199000BDE810400021FFF72CBA10BD7FB504460A
:1019A00080880D4620F03F066846FFF76EF9B4497F
:1019B0000298B0FBF1F189B20E43A680228822F092
:1019C00001022280AF4B2A689A421BD85200B0FB1A
:1019D000F2F080B2042800D20420491C2184A083A4
:1019E000208840F00100208021884FF6F53001402A
:1019F000A8886A89104308432080A8892989084358
:101A000020817FBDEB88A3F53F46FF3E05D102EB69
:101A10004202B0FBF2F080B208E002EBC20303EB3B
:101A20000212B0FBF2F080B240F48040020501D116
:101A300040F001004FF4967251434FF47A72B1FBBB
:101A4000F2F140F40040C8E741F288310160002122
:101A500081804BF6FF72C280018141814FF4804149
:101A6000818170470029018802D041F0010101E025
:101A700021F00101018070470029018802D041F462
:101A8000807101E021F48071018070470029018894
:101A900002D041F4007101E021F40071018070472F
:101AA00012B141F0010101E001F0FE010182704735
:101AB0000029018802D041F4806101E021F48061B5
:101AC00001807047828901F0FE0122F0FE0211437D
:101AD000818170470029818902D041F0010101E034
:101AE00021F00101818170470029018802D041F075
:101AF000400101E021F04001018070470029018888
:101B000002D041F4004101E0C1F30E0101807047B1
:101B10000029018803D021F080010180704741F045
:101B20008001FAE7B1F5804F818B02D021F480412A
:101B300001E041F4804181837047B1F5006F018875
:101B400003D021F400610180704741F40061FAE79D
:101B5000B1F5005F018803D021F400510180704786
:101B600041F40051FAE70029018802D041F0100148
:101B700001E021F010010180704701827047008A66
:101B8000C0B270470029018802D041F4805101E0C1
:101B900021F4805101807047B1F5006F018803D0B6
:101BA00021F400610180704741F40061FAE70029E7
:101BB000018802D041F0200101E021F020010180E4
:101BC0007047008B000A70470029818802D041F4D9
:101BD000006101E021F40061818070470029818863
:101BE00002D041F4805101E021F48051818070479E
:101BF000405A7047002A828801D00A4300E08A4395
:101C000082807047838A0022008B43EA004323F0DE
:101C10007F40814300D1012210467047818A008BAA
:101C200041EA004121F07F40704700220B0F21F074
:101C30007F4101D0143001E0090C183000680842DF
:101C400000D0012210467047C9438182704710B509
:101C50008388002201F0E064808A03EA144321F0C3
:101C60007F41084201D003B10122104610BDC94393
:101C7000818270470054004000580040005C0040E2
:101C800040420F00A086010001F007B92DE9FC4792
:101C900000260F46354600964FF0080AFF4C019685
:101CA00010204FF04008C4F800A0C4E901084FF428
:101CB0008069C4E903692046FFF74BF9102000F062
:101CC000ABFF00283FD1F648806800042060372031
:101CD000C4E90108C4E903592046FFF73AF937205F
:101CE00000F09AFF00282ED1411E04F11400C0E933
:101CF000001A302181600221C0E9031501214161F0
:101D0000FFF74AF93320C4E90050C4F81090C4E941
:101D100002852046FFF71DF9332000F07DFF040007
:101D200011D1E04D4FF4001AE94640F22A682868C4
:101D300010EA080F09D00820FFF789F980B10820C0
:101D4000FFF78EF90420BDE8FC875046FFF77FF9C6
:101D50000028ECD0FFF744F949F82600761CE6E7A6
:101D60000220FFF774F920B10220FFF779F9022071
:101D7000E9E72020FFF76BF920B12020FFF770F989
:101D80000620E0E74FF400752846FFF760F920B120
:101D90002846FFF765F90720D5E740F2FF50FFF727
:101DA0005FF9009800BA7860019800BA3860204660
:101DB000C9E72DE9FC470025804600952846019596
:101DC000FFF7E6F8800101D50E20BCE7B44F694665
:101DD000B86880B2FFF75AFF0028B4D13720AF4C63
:101DE00001994FF0060A4FF040094FF48066B8F1B0
:101DF000010F1ED0C90334D5B968C4F8089009048E
:101E0000C4E90010C4E903562046FFF7A2F83720C2
:101E100000F002FF002896D1C4F80890C4E9005AE7
:101E2000C4E903569D48FFF794F8062000F0F4FE3D
:101E300089E7490315D5B968C4F808900904C4E9CD
:101E40000010C4E903569548FFF783F8372000F0E7
:101E5000E3FE0028B9D10220C4F80890C4E9000AC2
:101E6000DEE725206FE72DE9F04101468C4800268A
:101E70004068032814D018B1012801D0022827D1C6
:101E8000B1F5805F0CD0854C4FF400670025183CFD
:101E9000B9420ED10120FFF78CFF060003D017E0F6
:101EA0002720BDE8F081257525606560C4E90257EB
:101EB00009E00020FFF77DFF060009D125752560A8
:101EC0006560A560E560754825611838FFF718F86A
:101ED0003046E6E7714910B50860072048604020A9
:101EE00088600020C8604FF4806008610846FFF7F2
:101EF00030F8BDE81040072000F08EBE2DE9F04319
:101F00006749DFF898914D6880F84E508968A9F1CB
:101F10009809A0F84C10D9F800100B0E9C09047019
:101F2000C3F38304447003F0030383700B0CC3708A
:101F30000B0A03714171D9F80440210E0901C180D7
:101F4000C288C4F3074142EA1112C28001F00F01B6
:101F50000172C4F30721CA094272C1F3801282726E
:101F6000C1F34012C272C1F3001202734FF0000CB1
:101F700080F80DC04A464FF001089668320EC6F34D
:101F80000743C6F3072725B1012D02D0022D2BD020
:101F90003CE08907090D0161E1B2046944EA81016D
:101FA0000161016941EA92110161C2F3C201017547
:101FB00002F00701417559098175C3F38201C175AA
:101FC0009907490F0176027E394642EAD11202761C
:101FD0000269037E521C9B1C047A9A4008FA04F39F
:101FE0005A43C0E9112311E0A106890A0161016980
:101FF00041EA02210161016919430161026939461F
:10200000521CD20442644FF40072826400F1180042
:10201000C1F3801242704FEA81614FEA51618170D1
:102020008378F1B243EAD113837001F07F01C1706C
:10203000D9F80C204FEA12614FEAD1130371C1F3B2
:1020400041134371C1F3820383714FEA81714FEAF7
:102050001171C171C379C2F3074143EA9113C3718E
:10206000C1F34013037280F809C001F001018172CD
:10207000C2F307214FEAD113C372C1F38013037374
:10208000C1F340134373C1F300138373C1F381039E
:10209000C37301F00301017406E0000058430120FE
:1020A00048000020342C0140C2F34601417480F8FE
:1020B0001280FB4A11684FEA11630375C1F30743AD
:1020C0004FEA0323C382C48AC1F3072344EA03040B
:1020D000C4824FEA01618161516884694FEA1163EA
:1020E00044EA034383618469C1F3074344EA032359
:1020F00083618469C1F3072344EA0304846101779F
:1021000091684FEA11634377C1F307434FEA0363D2
:102110000362046AC1F3072344EA03430362036AC8
:10212000C9B243EA01210162D168036A43EA11633B
:10213000036290F82430C1F3074243EA121380F897
:1021400024304FEA02724FEA1252C284C38CC1F3A8
:10215000072243EA0203C384C1F3460180F8281032
:1021600080F829806046BDE8F08310B5CD48002492
:10217000016811F0450FFBD0480702D50324042065
:1021800003E0C80705D001242046FEF769FF20467A
:1021900010BD40F2FF50F8E72DE9F84F012000256F
:1021A000ADF80000FEF7CFFEA8B3DFF8FC92D9F837
:1021B000040004286BD0BA4C4FF0C00A88340026C3
:1021C0000220C4F808A0C4E900604FF48068C4E9A4
:1021D00003682046FEF7BDFEFFF7C7FF05001CD1D0
:1021E000FEF7D6FEAE4F38600420FEF7D1FE7860D1
:1021F0000820FEF7CDFEB8600C20FEF7C9FEF8609F
:10220000D9F804004F4650B1012808D0062806D05E
:10221000022804D015E0FFE72520BDE8F88F032051
:10222000C4E9006004F108014020A1E841019C4894
:102230008830FEF78EFE6946032000F0FFFC0500A3
:10224000EBD17868042822D0BDF80000B860000403
:1022500020600920C4E9010AC4E903689048883075
:10226000FEF777FEFFF781FF0500D6D1FEF790FE5F
:102270008B4C103C20600420FEF78AFE6060082032
:10228000FEF786FEA0600C20FEF782FEE060284686
:10229000C3E72DE9F05F82484FF0000A70307621E5
:1022A0000175C0F800A0C0F804A0C0F808A0C0F8EC
:1022B0000CA0564657465446C0F810A0FEF720FE24
:1022C0000320FEF73CFE0120FEF736FEDFF8D0814A
:1022D0004FF4806908F188084046C8F80040C8F803
:1022E0000440C8F80840C8E90349FEF732FE4FF43D
:1022F000803B5D4601E06D1E1DD08020FEF7A7FEED
:102300000028F8D0BDB140F2FF50FEF7A9FE4FF40F
:10231000D570C8F80000454608204FF04008C5E9D0
:1023200001085F48C5E903498830FEF712FE5D4A9F
:102330005846116806E00320BDE8F09F5949A0F116
:102340000100096811F0450F14D008B1480714D5F1
:102350000420FEF785FE3720C5E90040C5F810903F
:102360004F48C5E902848830FEF7F3FD372000F0BE
:1023700053FC0BE00028E1D1EAE7480602D54020F3
:10238000FEF76EFE484801218F0741600021372289
:1023900085E806014248C5E90319AB468830FEF7D7
:1023A000D8FD372000F038FC05003CD049E0584605
:1023B00000253721C0E90051CBE902853848CBF828
:1023C00010908830FEF7C5FD372000F025FC00286E
:1023D000B2D1364847EA0001CBF800102921CBF8EA
:1023E0000C50CBE901182E48CBF810908830FEF73E
:1023F000B0FD2C49086810F0450FFBD0400705D50B
:1024000003240420FEF72CFE204695E740F2FF50FF
:10241000FEF726FE0020FEF7BBFD8246C00F06F148
:10242000010602D003E04FF6FF74A642BFD3A642D6
:1024300001D31B2080E71AF0804F02D01A480221F6
:102440004160284678E710B500F06EFDFEF74CFDC0
:10245000FFF71FFF00282BD1FFF79EFE002827D192
:102460000F4970310875086048608860C86008616D
:102470000846FEF745FD0A482030FFF73FFD0028DB
:1024800016D107482030B0F84C000004FFF722FDB9
:1024900000280DD1BDE810404FF40060E3E40000D7
:1024A000D0420120342C0140480000200000108060
:1024B00010BD10B50446FF48FF498068000408605D
:1024C000091D40F24D4008600D2000F0A5FB0028DA
:1024D00003D1F9490C310968216010BD10B5012400
:1024E0006103F648FEF7D0FA00B10024204610BD83
:1024F00008B500200090FFF7F1FF012803D16846DE
:10250000FFF7D7FF08B1FF2008BD0098C0F34320B4
:1025100008BD10B5FFF7ECFF042803D0FF2803D057
:10252000012010BD002010BD022010BD10B50024F8
:102530002046FEF704FD204610BD2DE9F047044675
:102540000020FEF725FD800102D50E20BDE8F087B2
:10255000DB4D40261020C5E9006005F10801002789
:102560004FF48068A1E8C0012846FEF7F2FC102075
:1025700000F052FB0028E9D1CE48291D80680004F4
:1025800028603720A1E8C1012846FEF7E2FC372089
:1025900000F042FB0028D9D1411E05F11400C0E92A
:1025A0000016602181600221C0E903170121416109
:1025B000FEF7F2FC0D20C5E900700835C048A5E81B
:1025C000C001FEF7C6FC0D2000F026FB0600BDD1C1
:1025D000B94F4FF400492C3740F22A68386810EAA6
:1025E000080F08D00820FEF732FDA0B10820FEF742
:1025F00037FD0420AAE74846FEF729FD0028EDD064
:102600005FF00005FEF7ECFC44F825006D1C082D7A
:10261000F8D32034E2E70220FEF719FD20B10220B2
:10262000FEF71EFD022091E72020FEF710FD20B1ED
:102630002020FEF715FD062088E74FF40075284698
:10264000FEF705FD40B12846FEF70AFD07207DE7AD
:10265000FEF7C6FC01C401E04FF400152846FEF762
:10266000F6FC0028F4D140F2FF50FEF7F9FC3046AA
:102670006CE710B5044692487838FFF75EFF01001A
:1026800036D18F4878380278920922700278C2F3E6
:1026900040126270827812026280C27863881343AB
:1026A00063800279120662604279636843EA0242FB
:1026B00062608279636843EA02226260C279636879
:1026C00013436360027A2272427A6272827A12093A
:1026D000A272C27A1202A281027BA3891343A38150
:1026E000427B9208A273407B00F00300E07308462F
:1026F00010BD2DE9F04107466E4800240D461646F0
:1027000004700461C4606C4924310C604068022884
:1027100001D106026D0A6A484FF0FF311430C0E95A
:102720000016902181600221C0E90314012141615A
:10273000FEF732FC62481121C0E900514021C0E996
:10274000021409010161FEF704FC112000F064FA93
:1027500004000BD101210802FEF76FFC0120FEF7F7
:1027600068FC3146384600F074FC2046BDE8F08134
:102770002DE9FF5F4F4800250E4617469846057025
:1027800005614FF0010AC0F80CA04B4924310D60DF
:102790004068022801D10702760A494C4FF4806B49
:1027A0001020C4F810B0C4E900704FF04009C4E92B
:1027B00002952046FEF7CDFB102000F02DFA0028F0
:1027C0002BD1411E04F1140008FB07F8C0E90018E2
:1027D000902181600C300221A0E8220404F1140051
:1027E000FEF7DAFB1220C4F810B0C4E90060C4E9B7
:1027F00002952046FEF7ADFB122000F00DFA040012
:102800000BD101210802FEF718FC0120FEF711FC94
:102810004146009800F01DFC204604B08CE570B5E0
:102820000025244C00F05CFC20B9206910B9207808
:102830000028F7D0207808B1207870BD284670BDF8
:1028400070B506461B480024154604700461C46038
:10285000194A243214604068022801D10502490A4D
:1028600017480160182141604021C0E902140901A4
:102870000161FEF76EFB182000F0CEF9002818D198
:10288000411E0F481430C0E900159021C0E9021420
:102890000121C0E90441FEF77FFB01210802FEF798
:1028A000CCFB2946304600F099FB0120FEF7C1FB26
:1028B000204670BD48000020082C0140001C02404A
:1028C000584301202DE9FF5FF8480E4600211746C6
:1028D0001D46017001614FF0010BC0F80CB0F44AC5
:1028E00011604268022A01D11702760A8068F14C11
:1028F00000044FF0400920603720C4E901094FF47B
:10290000806AC4E9031A88462046FEF722FB372076
:1029100000F082F9002838D11720C4F810A0C4E9CB
:102920000050C4E902982046FEF713FB172000F080
:1029300073F9002829D11920C4E90060C4F810A057
:10294000C4E9029846462046FEF703FB192000F032
:1029500063F9002819D104F11402401E7D43C2E935
:1029600000059020C2E90206C2E9046B1046FEF79A
:1029700013FB01210802FEF760FB0120FEF759FB63
:102980002946009800F02AFB304646E770B5C74C50
:10299000002500BF00F0A4FB20B9206910B9207801
:1029A0000028F7D0207808B1207882E740F2FF5065
:1029B000FEF756FB28467CE7BD480830006810F457
:1029C000405000D001207047B949002024390860E8
:1029D000091D40F24C4008600C2000F01DB970B594
:1029E0000446B248002580680104B24801600D2108
:1029F00041604021C0E9021509010161FEF7A9FA11
:102A0000AB490831086810F0450FFBD0410702D5EB
:102A10000324042003E0C00705D001242046FEF76C
:102A20001FFB204645E7FEF7AEFA0D282ED140F2F7
:102A3000FF50FEF715FB0020FEF7AAFAC0F3432172
:102A400021709D4908424BD0002801DA1C2030E754
:102A5000410001D509202CE7810001D50A2028E793
:102A6000C10001D50B2024E7010101D50C2020E78E
:102A7000410101D50D201CE7C10101D50E2018E749
:102A8000010201D50F2014E7410201D5102010E703
:102A9000810201D511200CE7C10201D5122008E7FF
:102AA000010301D5132004E7410301D5142000E7F9
:102AB000810301D51520FCE6C10301D51620F8E6F7
:102AC000010401D51720F4E6410401D51820F0E6F1
:102AD000810401D51920ECE6000701D51A20E8E6AB
:102AE0002846E6E62DE9F84F054672480024983856
:102AF0008DF8004040680E464FEA1050A046800610
:102B000002D42520BDE8F88F6948283800686B4951
:102B1000C0B2801CB1FBF0F70020FEF739FA80014B
:102B200001D50E20EEE76148DFF888914FF0400BA9
:102B300040684FF4806A022805D030B1012804D0E3
:102B4000022802D023E06D0A760A48462021C0E917
:102B50000051C9E902B85D465648C9F810A0FEF711
:102B6000F8F9202000F058F80028CBD109F1040032
:102B70002121C9F80060A0E822014E48C9F810A040
:102B8000FEF7E7F9212000F047F80028BAD14146C6
:102B9000262289E80608C9E9038A4648FEF7D9F9DA
:102BA000262000F039F80028ACD100E0641CBC42BB
:102BB000FCD36846FFF713FF0028A3D19DF800104F
:102BC0000729F6D00629F4D09CE770B5374CE168A8
:102BD0000020012909D1364924390860091D40F235
:102BE0004C4008600C2000F017F820704FF48075FE
:102BF0002846FEF742FA00212846FEF71EFA012079
:102C00002061207855E6002102E04008491CC9B245
:102C10000128FAD10846704725480830016811F0AC
:102C2000450FFBD0224940F2FF500C31086020488C
:102C30001838006808210840C0B2704770B50C46CB
:102C40001B49002506460831086810F0450FFBD0E7
:102C5000410702D50324042003E0C00705D0012466
:102C60002046FEF7FDF9204623E6FEF78CF9B04238
:102C700013D140F2FF50FEF7F3F90020FEF788F978
:102C800010F4604F03D0810405D5132011E64FEAFC
:102C90001040208007E0410401D5102009E600041F
:102CA00001D50F2005E6284603E600004800002075
:102CB0002C2C01405843012008E0FFFDC0D4010046
:102CC0001CB50446FF48012150F82400FEF741F8E6
:102CD000FC480021083830F81400009001208DF8DD
:102CE00004008DF806108DF8070002208DF805000D
:102CF000F548694650F82400FDF776FE1CBDF14901
:102D0000F14A083931F8101052F820004183704719
:102D1000EC49ED4A083931F8101052F820000183CF
:102D20007047E94951F820104A69E64B083B33F8EF
:102D3000100042404A61704770B50446E1480E46B3
:102D4000103086B050F824000121FEF702F801216E
:102D50008803FEF726F8DB4800258DF8105014385C
:102D60008DF8135030F814000390D74803A91030A1
:102D700050F82400FDF738FE012E28D1D14829381B
:102D8000015DC01E005DFEF794FBCE480E3830F8A2
:102D9000140000908DF804500CB10C2000E00820C5
:102DA0008DF8050001258DF806506846FEF774FD84
:102DB000C4482638005D8DF808000F208DF8090002
:102DC0008DF80A008DF80B5002A8FEF710FB06B034
:102DD00070BDBC49BC4A1439103231F8101052F899
:102DE0002000FDF751BE2DE9FC4104468846B54858
:102DF000B4491C38183950F8240051F824100843FD
:102E00000121FDF7A6FF2CB9AE480121203800684A
:102E1000FDF7BDFFAB48AC4E32380C3E025D801E64
:102E2000015D56F82400FDF752FEA648371D3138E3
:102E3000025D801E015D57F82400FDF748FE00206A
:102E40008DF8060001208DF807009E4802253038D5
:102E50008DF8045030F8140000908DF8055056F8A5
:102E600024006946FDF7C0FD96488DF804502E38C1
:102E7000694630F81400009057F82400FDF7B4FDBF
:102E8000351F414655F82400FEF743F955F8240054
:102E90000121FEF7B4F9BDE8FC817CB50020FEF706
:102EA0004BF80020FEF74BF8FEF71EF800214FF418
:102EB0000060FDF776FF854C002208212046FDF7D3
:102EC00006FE002209212046FDF701FE00220A210C
:102ED0002046FDF7FCFD00220B212046FDF7F7FD03
:102EE00000220C212046FDF7F2FD794D002202213F
:102EF0002846FDF7ECFD00214FF470608DF80410BA
:102F000000908DF8071069462046FDF76DFD0420FE
:102F1000009069462846FDF767FDA01400906946B9
:102F20002046FDF761FD7CBD2DE9FC4101218C208F
:102F3000FDF70FFF654E0C2208213046FDF7C7FD57
:102F40000C2209213046FDF7C2FD0C220A21304631
:102F5000FDF7BDFD0C220B213046FDF7B8FD0C221C
:102F600011463046FDF7B3FD594F0C220221384679
:102F7000FDF7ADFD4FF47060009003208DF8050063
:102F800002208DF8040000248DF8064001258DF8FC
:102F9000075069463046FDF727FD0420009069463A
:102FA0003846FDF721FD280300908DF8074069465B
:102FB0003046FDF719FD680300908DF804408DF848
:102FC000075069464348FDF70FFD0121C802FDF790
:102FD000E8FE01218805FDF7BCFE5CE730B53E4DFB
:102FE00004468FB04FF0FA512846FDF731FC00211E
:102FF0002846FDF7C9FB2846FDF706FB4FF00060A9
:1030000000903648CDE901044020039000202915A6
:103010000490CDE90501890007918900CDE90810E8
:103020004FF440300A9004200B9003200C9048028B
:103030000D9080100E9069462846FDF76CFB20210C
:103040002846FDF7B5FB01212846FDF79DFB0FB093
:1030500030BD30B5204D04468FB04FF0FA512846B0
:10306000FDF7F6FB00212846FDF78EFB2846FDF70D
:10307000CBFA4FF0006000901848CDE90104002021
:10308000039029150490CDE9050189000791890075
:10309000CDE908104FF440300A9004200B90032033
:1030A0000C9048020D9080100E9069462846FDF75E
:1030B00032FB20212846FDF77BFB01212846FDF746
:1030C00063FBC4E7084B00086C00002000080240C6
:1030D000000C0240001C024058640240802C014059
:1030E0004FF0C0517348FDF79EBB7CB5724C002178
:1030F0002046FEF7B7FC2046FEF734FC00214FF4D3
:103100000010FDF744FE402000246C4D00908DF827
:1031100004408DF8074069462846FDF765FC6815B0
:10312000009069462846FDF75FFC654D1120287028
:103130006C70AC70EC702846FEF759F90B202870C3
:103140006C70AC702846FEF752F95E4C00212046A8
:10315000FDF71AFB5B4D0021903D2846FDF714FB5F
:103160002046FDF751FA2846FDF74EFA7CBD2DE9C1
:10317000FC414FF4001801214046FDF708FE0121F3
:103180000220FDF7E6FD01218803FDF70AFE01217B
:103190004046FDF72EFE00214046FDF72AFE0220A4
:1031A0008DF804008DF805000127444D40268DF868
:1031B0000670002400968DF8074069462846FDF702
:1031C00013FC6815009069462846FDF70DFC0422A3
:1031D00006212846FDF77BFC042209212846FDF73D
:1031E00076FC374D112028706C70AC70EF7028465B
:1031F000FEF7FDF80B2028706C70AC702846FEF7C7
:10320000F6F801214046FDF7A4FD2E4D2E49284633
:10321000FDF71EFB00212846FDF7B6FA2846FDF70C
:10322000F3F92A49F0040A1D08602348103051C2FE
:103230004FF6FF70C1E904042815C1E906044FF4F4
:1032400040300C62C1E909400420C8620320C1E992
:103250000C048C632846FDF75EFA1A4C1C49903C1E
:103260002046FDF7F5FA00212046FDF78DFA2046AD
:10327000FDF7CAF915492046FDF74DFA0122102144
:103280002846FDF7F6FA012210212046FDF7F1FA53
:1032900001E60E4B98603AB10020C3E903010948EA
:1032A00019469038FDF737BA4020C3E903010749B2
:1032B0000448F7E75864024000540040000402400C
:1032C00068000020A060024000003D2084430120EF
:1032D0003D00801008B54FF4C060FEF783F8312040
:1032E0008DF8000000208DF801008DF8020001200B
:1032F0008DF803006846FEF77AF8FFF7A4F808BDDA
:10330000002800D001207047084610B55102012363
:103310005A02FFF72DFAFFF782FA0446FFF7F9F891
:103320000028FBD10CB1012010BD002010BD0846C3
:1033300010B5510201235A02FFF7C4FAFFF726FB2A
:103340004FEA0004FFF7E5F80028FBD10CB101209B
:1033500010BD002010BD094870470020012906D08B
:10336000022907D0032901D12021116070474FF4B1
:103370000031FAE74FF4007111807047C0B349344F
:103380002DE9F041C56A0F460446BD422BD0217994
:1033900004F13008D9B1607801232A464146FFF78D
:1033A000C6FFE0B900202071D4E907100844A84204
:1033B0000DD9E67809E0E0690123054460782A46E2
:1033C0004146FFF7B4FF761EF6B2012EF3D857B18F
:1033D000607801233A464146FFF796FF10B101207D
:1033E000BDE8F081E7620020FAE72DE9F0410446EC
:1033F0000021FFF7C5FF050050D12078032846D1F2
:103400006079F0B3002604F130004FF400723146C9
:103410000746E66201F00FFB552084F82E02AA2031
:1034200084F82F02522084F8300084F831006120A3
:1034300084F83200412184F83310722284F8142277
:1034400084F8152284F8161284F81702206984F88B
:103450001802010A84F81912010C84F81A12000EDD
:1034600084F81B02E06884F81C02010A84F81D122B
:10347000010C000E84F81E1284F81F0260780123EC
:1034800000E004E039466269FFF751FF66710022EF
:1034900060781146FFF761FF00B1012528469FE7DC
:1034A0008269891E921E8A4201D800207047826A72
:1034B000807801FB002070472DE9F04104460D465D
:1034C000022902D3A069A84201D8012088E7207808
:1034D000012804D0022825D0032836D12EE0206A06
:1034E00005EB550600EB56212046FFF749FF60BB70
:1034F000C6F308002044761C90F83070206A00EB78
:1035000056212046FFF73CFFF8B9C6F308002044D7
:1035100090F8300047EA00210809EA07D6D1C1F344
:103520000B005DE7206A00EB15212046FFF728FF1E
:1035300058B9E8B204EB4000008E51E7206A00EB76
:10354000D5112046FFF71CFF10B14FF0FF3047E7C1
:1035500040F2FF1000EA8500204410F8301FD0F838
:10356000010041EA002020F0704039E72DE9F041E8
:1035700004460D461646022902D3A069A84201D886
:1035800002202DE720784FF00108012807D00228FB
:1035900038D0032846D0022084F8048020E7206A2F
:1035A00005EB550700EB57212046FFF7E9FE002801
:1035B000F2D1C7F3080001193031F0B2EA0703D0A5
:1035C0000246087862F31F10087084F80480206AAD
:1035D0007F1C00EB57212046FFF7D2FE0028DBD1ED
:1035E000C7F3080121443031EA0702D0C6F30712BD
:1035F00006E00A78330A02F0F002C3F303031A4329
:103600000A70C9E7206A00EB15212046FFF7B8FED3
:103610000028C1D1E9B204EB4101320A01F8306F50
:103620004A70B9E7206A00EBD5112046FFF7A8FEE3
:103630000028B1D140F2FF1101EA85010A193032A8
:103640004FF07043D2F8011003EA012131431170A9
:103650000B0A53700B0C9370090ED1709CE72DE987
:10366000F04107460E46022918D3B869B04215D971
:1036700000254FF001081DE031463846FFF71CFFDA
:1036800004001AD0012C09D0601C09D00022314658
:103690003846FFF76BFF05000FD103E002250CE071
:1036A00001250AE03869411C03D0401C386187F8C5
:1036B00005802646B869B042DED8284690E62DE956
:1036C000F04106460F0005D0FFF7F6FE022808D2AB
:1036D000012085E6F46814B1B069A04205D8012440
:1036E00003E0B1698142F4D83C462546B0696D1CBF
:1036F000A84202D80225022C0AD329463046FFF7F9
:10370000DBFE38B1411CE4D00128E2D0A542EDD166
:10371000002065E66FF0704229463046FFF726FF2D
:1037200030B967B12A4639463046FFF71FFF30B13E
:103730004FF0FF35012800D00125284650E6F560FE
:103740003069411CF9D0401E306101207071F4E7EE
:1037500070B50D46C1808168044601291ED02068DD
:1037600082698A421AD921B90278032A04D1416AAE
:1037700011B18078060117E0E1600189A9420DD9F5
:10378000406A17E02068FFF797FE0146401C07D00B
:10379000022903D320688069884203D8022070BDC3
:1037A000012070BDA81B85B2B542EBD2E160206854
:1037B000FFF776FE00EB1510206105F00F013022B7
:1037C000206802EB411108446061002070BD2DE9C2
:1037D000F0410446C0880F46401C0604360C2DD02C
:1037E000206958B331075DD1401C2061E168206831
:1037F00029B18278521E12EA161F04D052E00089C5
:10380000B0421BD94EE0FFF757FE0546012819D9F3
:10381000681C32D020688169A9423DD877B1E1683F
:10382000FFF74DFF05000BD0012D0BD0681C24D0F5
:1038300000212068FFF7A4FDF8B905E00420CFE5DA
:103840000720CDE50220CBE520684FF40072303030
:10385000002101F0F0F829462068FFF721FE2168D9
:1038600000274FF00108C8620FE000BF80F8048015
:1038700000212068FFF784FD08B10120B0E5206831
:10388000C16A491C7F1CFFB2C16220688178B942BD
:10389000ECD8C16AC91BC162E56029462068FFF700
:1038A000FFFD2061E68006F00F013022206802EB68
:1038B000411108446061002092E510B504460420DF
:1038C00015E02068FFF75CFDB0B96269117861B15D
:1038D000E52904D02E2902D0D17A09070ED500217E
:1038E0002046FFF774FF10B106E0042004E02169D0
:1038F0000029E6D1002801D00021216110BD70B55A
:1039000004460021FFF724FF0EE021692068FFF73D
:1039100037FD05001FD160690078E52807D030B178
:1039200001212046FFF753FF0500EED013E0216987
:103930002068FFF725FD05000DD1666920220021D2
:10394000304601F078F80B223046A16901F06BF89F
:10395000216801200871284670BD10B50446C18851
:10396000FFF7F6FE00280BD121692068FFF708FD5C
:10397000002805D16269E5211170226801211171C9
:1039800010BD2DE9F04789460D6800E06D1C2978CF
:103990002F29FBD05C29F9D084690B2220212046F5
:1039A00001F049F80021884642464FF0080CA85C17
:1039B000521C202850D92F284ED05C284CD02E28BD
:1039C00001D0E0450BD3BCF1080F53D12E2851D1C3
:1039D00088064FF008084FF00B0C010EE7E780282F
:1039E00001D341F00301A0F181031E2B02D95F3BFB
:1039F0001C2B13D8AE5C521CA6F140033F2B02D304
:103A0000403B7D2B36D2ACF10103984532D204F80D
:103A1000080008F1010804F808601AE0FCA3064653
:103A200000E05B1C1F7817B1B742FAD122E0A0F189
:103A30004103192B02D841F0020108E0A0F1610313
:103A4000192B04D8A6F1200041F00101C0B204F8FE
:103A5000080008F10108AAE7AB180422C9F80030F1
:103A6000202800D90022B8F1000F03D02078E528E3
:103A700003D004E00620BDE8F08705202070BCF1EB
:103A8000080F01D18806010E01F00300012801D1C1
:103A900042F01002C1F38100012801D142F0080276
:103AA000E2720020E7E710B5036901F109023BB3B8
:103AB00040690023C45C202C07D0052C00D1E524EC
:103AC0005B1C02F8014B082BF4D3037A202B0BD09C
:103AD0002E2302F8013B0823C45C202C04D05B1C7D
:103AE00002F8014B0B2BF7D3C37A0B72037FD0F88C
:103AF0001D4043EA04230B60038B8B80C08AC8807F
:103B00000020107010BD73B50446019801782F296C
:103B100001D05C2901D1401C01900025A5600198CD
:103B20000078202805D200212046FFF711FE6561AC
:103B30007CBD01A92046FFF724FF0028F8D1002111
:103B40002046FFF705FEF8B921692068FFF718FC49
:103B5000D0B961690A782AB1CA7A12070ED40A2349
:103B6000A26903E004200FE05B1E06D311F8015B9D
:103B700012F8016BAD1BF7D000E02DB100212046FB
:103B8000FFF725FE0028DFD0A169C97A28B10428F3
:103B9000CED14907CCD405207CBD4907FCD461694E
:103BA000C87AC006F7D5206800F04DFFA060C0E7D6
:103BB00010B504460A464078012304F13001FFF7AE
:103BC000A3FB08B1032010BDB4F82E02A0F52A41D2
:103BD000553901D0022010BD94F86600D4F8671062
:103BE00040EA01218E48B0EB012F08D094F88210F2
:103BF000D4F8832041EA0221B0EB012F01D100204B
:103C000010BD012010BD2DE9F0470F460168154693
:103C10000B78303B092B02D84A783A2A05D000238A
:103C200000263E6023B10B2025E7891C0160F7E7E1
:103C30007C4804688CB13C60207820B16078FFF744
:103C40005FFBC1070BD02670B14630466670FFF7A8
:103C500041FBC10708D003200DE70C200BE70DB195
:103C6000400704D4002006E71DB1400701D50A2013
:103C700001E700210E462046FFF79AFF01280CD1EC
:103C800004F5F7700179E9B3017AD0F8090041EA47
:103C9000002631462046FFF78BFF032801D088BB62
:103CA00001E00120E7E6B4F83B00B0F5007F5CD10D
:103CB000B4F84680B8F1000F05D194F85400D4F858
:103CC000551040EA0128C4F81C8094F84000E070C8
:103CD000012801D0022848D194F83D5008FB00FC8F
:103CE000A5707DB1691E0D423FD1B4F8411021810C
:103CF00008073AD1B4F8430038B994F85000D4F822
:103D0000512000E031E040EA0220E38F6BB303EB87
:103D10000C0202EB1112904227D3801AB0FBF5F08F
:103D200018B3012540F6F677B84200D302254FF6C6
:103D3000F677B84200D303253244A262801CF21801
:103D4000A0612262032D12D079B102EB0C016162F5
:103D5000022D17D000F0010100EB400001EB5000F4
:103D600000F2FF10B8EB502F0ED20D2083E6002991
:103D7000FBD194F85C10D4F85D20800041EA022168
:103D80006162EDE74000EBE74FF0FF30C4E90390DC
:103D90004F46032D31D16771B4F8600001238219B9
:103DA0006261607804F13001FFF7AEFA28BBB4F825
:103DB0002E02A0F52A4155391FD194F83000D4F8CD
:103DC000311040EA01201849884216D194F81402B3
:103DD000D4F8151240EA0120144988420DD194F814
:103DE0001C02D4F81D1240EA0120E06094F8180289
:103DF000D4F8191240EA012020610A492570091FF0
:103E00000888401C0880E080E76227712AE70000EC
:103E1000222A2B2C3A3B3C3D3E3F5B5D7C7F0000E1
:103E2000004641548C00002052526141727241613F
:103E300010B5016829B10A781AB1CA88808882420F
:103E400001D0092010BD4878FFF75AFAC007F9D011
:103E5000032010BD08B10B207047FF4A00231068F3
:103E600000B1037001B10B700020116070472DE9A3
:103E7000F7478BB007000ED04FF0000802F01F0686
:103E800026F0010269460CA8C7F80080FFF7BBFEC8
:103E9000050003D083E009200EB0ECE507A80690EA
:103EA00068460C99FFF72FFE059C050001D104B967
:103EB000062516F01C0F4AD055B1042D03D16846D3
:103EC000FFF71DFD0546059C46F0080645B166E076
:103ED000E07A10F0110F44D1700701D508255EE09B
:103EE000300744D5FFF737FAA073010AE173010CDC
:103EF0002174000E607484F80B8084F81C8084F8B0
:103F00001D8084F81E8084F81F802146009800F0F0
:103F10009AFD81460021204600F09EFD0099012077
:103F2000B9F1000F087120D000984946D0F82CA0B4
:103F3000FFF795FB050032D10099A9F10100C86097
:103F400051460098FFF71CFA05000CD027E035BB5E
:103F5000E07AC10601D5042521E0B10703D5C007E9
:103F600001D007251BE0300701D546F02006009858
:103F70002146C06AC7E90704BE71009800F063FDDE
:103F80003861207FD4F81D1040EA0120C7E9028083
:103F9000C7F81880009838600098C088B880284614
:103FA0007AE72DE9F05F0F46002104461546984652
:103FB0001960FFF73DFF002803D1A079010602D563
:103FC0000220BDE8F09FC00708D0D4E90201081A1A
:103FD00004F12409854200D9054683E00720F0E773
:103FE000A068C10566D122689178491E01EA502176
:103FF00011F0FF0609D118B310466169FFF75CFAAA
:1040000002281FD3411C4DD0606161692068FFF711
:1040100047FAB8B100EB060B5FEA552A29D02168B0
:1040200006EB0A028878824201D9A0EB060A48789A
:104030000AF0FF035A463946FFF766F990BB06E0DF
:104040002069DDE7A07940F08000A071B8E7A07991
:1040500040060BD5A169A1EB0B00504506D207EB3A
:1040600040204FF40072494600F0DDFC4FEA4A263A
:104070002EE0A2695A451BD0A07940060AD52068D7
:10408000012349464078FFF752F958B9A07920F04A
:104090004000A071206801235A4640784946FFF746
:1040A00033F928B1A07940F08000A071012088E7A1
:1040B000C4F818B0A068C0F30800C0F50076AE429E
:1040C00000D92E46011924313246384600F0ABFCA7
:1040D000A06837443044A060D8F80000AD1B3044DD
:1040E000C8F80000002D7FF47BAF002069E72DE9C0
:1040F000F05F0F4600210446164698461960FFF708
:1041000097FE002803D1A079010601D5022058E7C7
:10411000800701D4072054E7E16804F124098A19D3
:104120008A427AD39CE0A068C1057AD1226891784E
:10413000491E01EA502111F0FF050BD1B0B1104624
:104140006169FFF7BCFA002867D0012836D0411C0E
:104150005DD06061A079400615D5206801234946ED
:104160004078A269FFF7E3F8F0BB08E02069002877
:10417000EBD100211046FFF7A2FA2061E3E7A07916
:1041800020F04000A07161692068FFF789F9A8B1AB
:1041900000EB050B5FEA562A2AD0216805EB0A02DC
:1041A0008878824201D9A0EB050A48780AF0FF031B
:1041B0005A463946FFF7BBF8B0B904E0A07940F0A1
:1041C0008000A071A2E7A169A1EB0B0050450AD2C3
:1041D00007EB40214FF40072484600F024FCA07920
:1041E00020F04000A07100E011E04FEA4A252AE0EB
:1041F000A169594513D0D4E9020188420FD2206841
:1042000001235A4640784946FFF77EF838B1A07935
:1042100040F08000A0710120D3E624E001E0C4F862
:1042200018B0A068C0F30800C0F50075B54200D909
:104230003546204424302A46394600F0F4FBA07964
:1042400040F04000A071A0682F442844A060D8F836
:1042500000004119761B01E08C000020C8F8001016
:10426000002E7FF460AFD4E90201884200D9E060FB
:10427000A07940F02000A0710020A2E670B50446AD
:10428000FFF7D6FD00280ED1A1798A060BD5480686
:104290000ED52068012304F124014078A269FFF7BC
:1042A00046F808B1012070BDA07920F04000A0714F
:1042B000E1692068FFF764F80028F4D1256AE87AFC
:1042C00040F02000E872E0682877E068000A68772C
:1042D000E068000CA877E068000EE87728462169BE
:1042E00000F0BAFBFFF737F8A875010AE975010C71
:1042F0002976000E68760020A874E874A07920F072
:104300002000A0712168012008712068BDE870407C
:10431000FFF76BB810B50446FFF7B0FF002801D1D6
:104320000021216010BD2DE9F0410D460446FFF744
:104330007FFD5FEA000803D1A179080602D50220BB
:10434000BDE8F081E068A84202D2890700D40546A2
:104350000027A068A760FDB1226891784E0268B17D
:10436000691E401EB1FBF6F1B0FBF6F3994205D38E
:10437000711E8843A0602D1A61690CE0216949B95A
:1043800000211046FFF79BF9014601283FD0481C49
:104390004ED021616161D1B926E0A0798007206803
:1043A00005D5FFF78CF9010004D1354611E0FFF780
:1043B00083F80146481C3BD0012928D92068806930
:1043C000884224D96161A068AD1B3044A060B54229
:1043D000E3D8A0682844A060E80505D02068FFF76E
:1043E0005FF8A0B100EB5527A068C00527D0A269EF
:1043F000BA4224D0A07904F12405400610D52068E3
:10440000012329464078FEF792FF88B904E0A0799D
:1044100040F08000A07192E7A07920F04000A071E8
:10442000206801233A4640782946FEF76DFF28B1FF
:10443000A07940F08000A071012081E7A761D4E954
:104440000201884204D9E060A07940F02000A07108
:10445000404675E773B584B0040008D001460022D9
:1044600005A8FFF7D0FB2568002618B11CE009203D
:1044700006B070BDC4F818D020460599FFF743FB7D
:1044800070B9616931B1C87AC0060FD5284600F00D
:10449000DAFAA060E888A08000212046FFF758F9EA
:1044A000042803D00028E3D02660E1E70520FBE7DD
:1044B000FEB50E460446FFF7BBFC002816D1B6B188
:1044C000C4F818D02046FFF7F8F90025042813D0C7
:1044D00000280BD131462046FFF7E5FA002120469F
:1044E000FFF775F9042801D100202561FEBD0021E8
:1044F0002046FFF72DF9FEBD2561EBE733B58BB004
:104500000D46002269460BA8FFF77DFB04000FD182
:1045100007A8069068460B99FFF7F5FA040007D143
:10452000059820B129466846FFF7BDFA00E0062449
:1045300020460DB030BD2DE9F74F14468A460022C3
:1045400021466846FFF75FFB24685FEA000852D106
:10455000A06921690746801E814202D8CAF800106E
:1045600049E094F800900025B9F1010F01D0266AC6
:1045700017E0022631462046FEF79EFF411C03D07D
:10458000012803D028B105E0012000E00220804688
:1045900004E06D1CA069761C8642EBD3256128E0FF
:1045A00059B93146761C2046FEF7EAFE5FEA00085C
:1045B00019D104F130004FF40071B9F1020F07D0A6
:1045C0000278D0F8013042EA0322120106D006E058
:1045D000028802B96D1C801C891E02E06D1C001D42
:1045E000091F7F1EDCD12561B9F1030F01D1012024
:1045F0006071CAF800504046BDE8FE8F70B50400F7
:1046000004D0FFF715FC050002D03FE0092070BD83
:10461000A079010601D5022538E0810701D40725DC
:1046200034E0D4E902128A4230D940F02000E1603F
:10463000A07151B161692068FEF73EFF0646401C3B
:104640000BD0012E0BD065B11CE021692068FFF76B
:1046500006F805460020206113E0012512E002253E
:1046600010E020688169B14210D96FF07042616931
:10467000FEF77CFF050005D131462068FEF7EFFF0D
:1046800005461DB1A07940F08000A071284670BD9C
:1046900071B591B00122694611A8FFF7B4FA040080
:1046A00043D10EA8069068461199FFF72CFA040032
:1046B0003BD1059E56B1F07AC00700D007243146A1
:1046C000009800F0C0F9054614B12EE00624F6E784
:1046D000F07AC00619D5022D01D2022425E01C2251
:1046E000694607A800F09FF9022107A80995FFF77E
:1046F0002FF8040019D107A8FFF7DFF8040002D053
:10470000042C02D011E007240FE06846FFF725F9DA
:1047100004000AD12DB129460098FEF7A0FF04003D
:1047200003D10098FEF761FE044612B0204670BD2A
:104730002DE9F14F8CB0FEF70EFE074601226946C7
:104740000CA8FFF760FA040009D108A80690684693
:104750000C99FFF7D8F9040002D0042C02D095E0A0
:10476000082493E000210098FEF7A9FF06004FF00F
:10477000000402D0012E05D000E00724701C03D0F5
:1047800024B169E0022467E0012465E0002100987B
:10479000FEF7F6FD04005FD131460098FEF780FE7B
:1047A000009D804630354FF400720021284600F00D
:1047B00042F90B222021284600F03DF92E242C70CE
:1047C0001020E87207F0FF0A85F816A0C7F307204B
:1047D0000790E875C7F3074B85F818B04FEA1769DB
:1047E00085F819903146284600F036F905F1200089
:1047F00020222946074600F016F985F82140009846
:1048000002990078032804D10098406A884200D1B8
:104810000021384600F020F90098877815E00099CB
:104820000120C1F82C80009908F1010808710021CD
:104830000098FEF7A5FD04000ED14FF40072002190
:10484000284600F0F8F87F1EFFB2002FE7D1684637
:10485000FFF755F8040004D031460098FEF7FFFE3C
:1048600014E005981021C17280F816A00799C1754F
:1048700080F818B080F81990314600F0EDF80099F2
:10488000012008710098FEF7B0FD04460DB02046E7
:10489000BDE8F08F37B58AB00C461546012269464F
:1048A0000AA8FFF7B0F9002816D107A806906846B5
:1048B0000A99FFF728F900280ED1059868B105F08C
:1048C0002701C27A0C408A431443C4720099012024
:1048D00008710098FEF789FD2BE6062029E613B53E
:1048E0008AB00C46012269460AA8FFF78CF9002815
:1048F00019D107A8069068460A99FFF704F900281D
:1049000011D1059888B1E1888175E188090AC175DE
:10491000A1880176A188090A4176009901200871D1
:104920000098FEF762FD0CB010BD0620FBE733B522
:1049300099B00C46012201A919A8FFF764F90028D3
:1049400052D10198089015A8079001A81999FFF76E
:10495000DAF8002848D10698F0B300F10B011522CF
:104960000FA800F060F81C2201A908A800F05BF86D
:10497000214608A8FFF7C7F878B3042834D108A85F
:10498000FEF7BDFF00282FD10D9C13220DF13E0133
:1049900004F10D0000F047F89DF83C00012540F0BF
:1049A0002000E072019805710A990398884231D07D
:1049B000E07AC0062ED52146019800F044F8014661
:1049C0000198FEF76DFD010012D00198FEF7D8FCAA
:1049D000019A5032002801E005E007E004D1507848
:1049E0002E2807D016E004201BB030BD0820FBE7BE
:1049F0000220F9E7019800210078032804D1019BE7
:104A00000A985B6A984200D00A99104600F024F890
:104A10000198057101A8FEF7A0FF0028E4D10198D4
:104A2000FEF7E3FCE0E703E011F8013B00F8013B8F
:104A3000521EF9D27047C9B202E000BF00F8011B54
:104A4000521EFBD270470246488B1278032A02D1CD
:104A5000898A40EA0140704781760A0AC2760A0CC8
:104A60000275090E41757047D2B201E000F8012BC2
:104A7000491EFBD270470022F6E710B504460846EF
:104A8000114602462046FFF7EFFF204610BD00000A
:104A9000064C074D06E0E06840F0010394E807008B
:104AA00098471034AC42F6D3FBF770FB244B000858
:104AB000444B000802E008C8121F08C1002AFAD1BE
:104AC00070477047002001E001C1121F002AFBD18E
:104AD000704700000506070720004000000206009E
:104AE0000D0F06282800000000000200080000004A
:104AF000080000000100020000800100002000808A
:104B00000020004000808000080000000800000035
:104B10000800000004000000010000001000000078
:104B200040000000444B00080000002090000000FE
:104B3000B44A0008D44B0008900000203047010020
:104B4000C44A0008000E2707000000000000000013
:104B5000010203040607080900000000000000002D
:104B60000000000000000000000000000000000045
:104B70000000000000000000000000000000000035
:104B800001020304010203040607080900000000F3
:104B90000000000000000000000000000000000015
:104BA00000440040000C0240000C024000000000E5
:104BB000000C0240000C0240000C024000080240C1
:104BC00000000240001002400018024000000000F7
:044BD00000000000E1
:040000050800018569
:00000001FF
