:020000040800F2
:10000000F0280120210200081B1B00089D17000892
:10001000191B000835040008493D000800000000D5
:10002000000000000000000000000000990100082E
:100030007909000800000000C9010008D52E000859
:100040003B0200083B0200083B0200083B0200089C
:100050003B0200083B0200083B0200083B0200088C
:100060003B0200083B0200083B0200083B0200087C
:100070003B0200083B0200083B0200083B0200086C
:10008000A9050008490600083B0200083B020008D9
:100090003B0200083B0200083B0200083B0200084C
:1000A0003B0200083B0200083B0200083B0200083C
:1000B0003B0200083B0200083B0200083B0200082C
:1000C0003B0200083B0200083B0200083B0200081C
:1000D0003B0200083B020008FD3900083B02000813
:1000E0003B0200083B0200083B0200083B020008FC
:1000F0003B0200083B0200083B0200083B020008EC
:100100003B0200081D2100083B0200083B020008DA
:100110003B0200083B0200083B0200083B020008CB
:100120003B0200083B0200083B0200083B020008BB
:100130003B020008810F00083B0200083B02000858
:100140003B0200083B0200083B0200083B0200089B
:100150003B0200083B0200083B0200083B0200088B
:100160003B0200083B0200083B0200083B0200087B
:100170003B0200083B0200083B0200083B0200086B
:100180003B020008DFF80CD000F0CAF80048004736
:10019000DD6B0008F0280120194B19680868B0E8E9
:1001A000F00F80F309884FF0000080F311884EF0C3
:1001B0000D0E70470000000002480068006880F3E0
:1001C000088800DF08ED00E0EFF309800C4B1A68A7
:1001D00020E9F00F106008B54FF0BF0080F31188E0
:1001E0000AF030FB4FF0000080F31188BDE80840B2
:1001F00019680868B0E8F00F80F30988704700BFFD
:100200001004002001B44FF0BF0080F3118801BC3E
:10021000704701B44FF0000080F3118801BC7047B3
:100220000648804706480047FEE77047FEE7FEE7BE
:10023000FEE7FEE7FEE7FEE7FEE7FEE7452F0008E4
:100240008501000840EA01039B0703D009E008C9C3
:10025000121F08C0042AFAD203E011F8013B00F88B
:10026000013B521EF9D27047D2B201E000F8012BD7
:10027000491EFBD270470022F6E710B513460A4626
:1002800004461946FFF7F0FF204610BD10B504469E
:1002900004E00B7800F8013B03B1491C521EF8D270
:1002A000204610BD30B504460020034600E05B1C2C
:1002B000934203D2E05CCD5C401BF8D030BD2DE909
:1002C000F05F0546002092469B46884606468146DA
:1002D00040241BE0284641464746224600F041F8AC
:1002E00053465A46C01A914110D311461846224629
:1002F00000F028F82D1A67EB01084F46224601202E
:10030000002100F01FF817EB00094E41201EA4F158
:100310000104DFDC484631462A464346BDE8F09FEB
:10032000064C074D06E0E06840F0010394E8070042
:1003300098471034AC42F6D3FFF728FF04C10008F9
:1003400024C10008202A04DB203A00FA02F1002030
:1003500070479140C2F1200320FA03F31943904003
:100360007047202A04DB203A21FA02F0002170476E
:1003700021FA02F3D040C2F120029140084319460D
:10038000704770B501EB020410F8015B15F007032C
:1003900001D110F8013B2A1106D110F8012B03E01E
:1003A00010F8016B01F8016B5B1EF9D12B0705D426
:1003B0000023521E0FD401F8013BFAE710F8013B6D
:1003C00002F10202A1EB030303E013F8015B01F861
:1003D000015B521EF9D5A142D6D3002070BD0000AA
:1003E0000024114DDFF84490114FA0462868C4EB5B
:1003F000C40610F82610FF290ED100EB8600826992
:10040000C9F8002002F0C6FD2968641CF81C01F838
:1004100026801521FFF72FFF642C00D10024012036
:100420000AF0C2F8E2E7000010010020D40000202A
:10043000E4000020FEE70000164810B50168C1F195
:1004400001010160144801291ED00021817203F0CE
:100450009FFC154811A21F21006803F09BFC154862
:1004600012A240F20111006803F094FC154812A298
:1004700040F2DC51006803F08DFCBDE8104012A290
:100480000D21144803F086BC01218172BDE81040A3
:1004900003F07EBCD00000201C010020726F6F6D45
:1004A0002E64617400000000B80000206465762EA0
:1004B00064617400B00000207363656E652E646132
:1004C00074000000C40000207365637265742E64BC
:1004D00061740000303E00200748016811F0450FAC
:1004E000FBD0054940F2FF50091D08600248203842
:1004F000006800F008007047342C014010B50C482B
:100500000024016800E0016811F0450FFBD04807A6
:1005100002D50324042003E0C80705D001242046A7
:1005200001F0A2FD204610BD40F2FF50F8E70000A8
:10053000342C014070B50C461A490646002508685F
:1005400000E0086810F0450FFBD0410702D50324F6
:10055000042003E0C00705D00124204601F084FDFB
:10056000204670BD01F0BCFDB04213D140F2FF50F7
:1005700001F07AFD002001F0CBFD10F4604F03D0B4
:10058000810405D5132070BD4FEA1040208007E09C
:10059000410401D5102070BD000401D50F2070BDAD
:1005A000284670BD342C01402DE9F041214D002436
:1005B0002146284600F0A8F81F49284600F08EF88A
:1005C0001E4E1F4A1F4B0021505CFF2804D0FE28FE
:1005D00004D0152806D007E0012405E0012C03D142
:1005E000022401E0022C0ED0491C1829ECDB032C5C
:1005F00009DA002004E0011B1144C97D1954401C94
:10060000A042F8DB0DE0022912DB0020C1F11A0440
:1006100005E04718174417F8027C1F54401C844219
:10062000F7DC2846B461BDE8F041012100F06CB868
:10063000BDE8F0818860024000880020880000202A
:10064000A85100207C05002010B5144C0021204644
:1006500000F05AF81249204600F040F811498A6823
:10066000521C8A60092A01DC104601E000208860E3
:10067000CA6890420EDA0C4900EB400001EBC00260
:1006800018210A4800F03CFF2046BDE81040012137
:1006900000F03AB80120087010BD0000A0600240D0
:1006A0000080202088000020A050002090510020D1
:1006B000074A904201D2074801E005481038064A2F
:1006C0008B0001EA020101D5C1607047816070476B
:1006D00010640240006002407D0F7D0F074A904287
:1006E00001D2074801E005481038064A8B0001EAAC
:1006F000020101D5C16070478160704710640240FB
:10070000006002407D0F7D0F0029016802D041F09A
:10071000010101E021F00101016070472DE9F04382
:10072000016821F0010101600021016041608160E8
:10073000C1600161212141613C493C4A3D2510399C
:10074000904202D18D60BDE8F083384A4FF4746660
:100750001832904201D18E60F5E7344A4FF4741795
:100760003032904201D18F60EDE7304A4FF0746C27
:100770004832904202D1C1F808C0E4E72B4B2C4A22
:100780006033984201D1CA60DDE7284C294B7834A8
:10079000A04201D1CB60D6E7DFF89080264C08F16B
:1007A0009008404501D1CC60CDE7DFF880804FF064
:1007B0003D5908F1A808404502D1C1F80C90C2E7A4
:1007C0001E49DFF878800839404501D10D60BAE74D
:1007D0001A4D1835A84201D10E60B4E7174D3035D7
:1007E000A84201D10F60AEE7144D4835A84202D1AE
:1007F000C1F800C0A7E7114D10496035091FA84294
:1008000001D10A609FE70D4A7832904201D10B6016
:1008100099E70A4A9032904201D10C6093E7074A67
:10082000A83290428FD1C1F800908CE7106002404E
:100830003D000020400F002000003D2010640240D9
:100840000029016802D041F0200101E021F02001DF
:1008500001607047406880B2704700000246094B53
:1008600000209A4201D2084A01E0064A103A8B0061
:1008700001D5526800E01268044B1A400A4200D0C9
:100880000120704710640240006002407D0F7D0F20
:100890000B0607D5436912B143F0800301E023F052
:1008A00080034361802908D0002A026801F01E01FC
:1008B00001D00A4300E08A430260704730B5036804
:1008C000124ACC6813400A682243D1E905452C43FB
:1008D0002243CC6922430C6A22434C6A22438C6A2D
:1008E00022434C6B22438C6B22431A4302604269C1
:1008F00022F00703D1E90B2422431A4342610A691B
:1009000042604A6882608968C16030BD3F801CF0E7
:1009100070B5144C0246144D2068182100EB4000BD
:1009200005EBC00000F0ECFD20680026401C2060B4
:10093000092800DD26600D4C2078002811D00C48D5
:100940001821006800EB400005EBC0020648F030BB
:1009500000F0D6FD2670BDE8704001210548FFF784
:10096000D3BE70BD94000020A0500020880000205D
:1009700090000020A0600240704700E0401E002868
:10098000FCD170472DE9F0473B4CC679817962680C
:10099000884602EB06139970C17902EB0113597076
:1009A000C379817A02EB031319700021C5794318CA
:1009B00002EB05150D44DB7A491CEB700829F5DBC9
:1009C0000021C579431802EB05150D44DB7C491C59
:1009D000EB720229F5DB8079E168FE2848D001EB53
:1009E0000010417B491C41733146404601F07AFAC0
:1009F000214D4FF007093835042085F80390287100
:100A00000020A8726068012300EB061018224078CD
:100A1000E8722946A06A09F029FA2F461521F81C28
:100A2000FFF729FC87F8049087F80680FE7160685C
:100A300000EB0610C17A3972007B78720F490020F2
:100A40000A182B189278401C9A720828F8DB28465E
:100A500003F09EF900F0CAFFC08809A100EB400036
:100A600080B200F069FFA068401CA060BDE8F0877C
:100A7000487B401C4873B7E7AC0000203D3E002097
:100A80004E45572044455649434553002DE9F0470C
:100A90001E4CC67985796068082700EB06104FF078
:100AA0000409417811B34FF0000880F80180A06874
:100AB0003146401EA060284601F030FAFE2D1FD0BE
:100AC000E06800EB0510417B491E41730F49383146
:100AD000CF7081F804908D7181F80A80CE72A06A7F
:100AE000BDE8F0470123182209F0C0B907493831A1
:100AF0000120CF7081F804908872C879C872EEE73F
:100B0000E168487B401E4873E0E70000AC0000202D
:100B100030B54E4C8BB0A169411AFA2972D3A0614D
:100B20004B4D6169686888426ED0010E60618DF836
:100B30000810010C8DF80910010A8DF80A108DF8C3
:100B40000B009DF808109DF809009DF80A30CDE9CA
:100B500000019DF80B203FA105A803F057FA95F876
:100B6000310000070DD440F6B830FFF706FF3E48CD
:100B7000FFF703FF03A9002000F0CEF93B48FFF781
:100B8000FCFE1121002000F089FB6069010E8DF848
:100B90000810010C8DF80910010A8DF80A108DF863
:100BA0000B009DF808109DF809009DF80A30CDE96A
:100BB00000019DF80B202EA105A803F027FA03A938
:100BC000002000F0A9F906F07FFFE8686061010EDF
:100BD0008DF80810010C8DF80910010A8DF80A1023
:100BE0008DF80B009DF808109DF809009DF80A305B
:100BF000CDE900019DF80B2022A105A803F006FA1B
:100C0000686860610BB030BD0029FBD1207800F02E
:100C100003002070286AC07C0428F3D90C4804F033
:100C20001FFD1D4805F0FCFC00906FF0FF0005F073
:100C3000F7FC01901848683805F0F2FC029002AB0E
:100C400001AA6946024806F00EFADBE76C000020B4
:100C50005404002020202025642E25642E25642E97
:100C60002564202020200000408AF701C0270900C9
:100C700069703A2025642E25642E25642E25642073
:100C80000000000067773A2025642E25642E256435
:100C90002E256420200000006900A8C0F8B500F0EF
:100CA000C9F84FF4A06000F06BFF3D208DF8000004
:100CB00003248DF8014000258DF8025001268DF89F
:100CC0000360684600F02AFF31208DF800008DF89F
:100CD00001408DF802508DF80360684600F01EFF59
:100CE000BDE8F84000F080BA014948617047000053
:100CF00000900240044A0029D16901D0014300E07C
:100D00008143D161704700000090024005490028EE
:100D1000886902D040F0020001E020F00200886102
:100D20007047000000900240F0B5124E00244FF0D2
:100D3000004744F2F45C551E706013E000EB44136E
:100D40001F60C4EBC41E0EEB4E0E01EB8E0EC3E90A
:100D500001CEAC4204D203F1200EC3F80CE000E057
:100D6000D860641C9442E9D30349C8600348B0606A
:100D7000F0BD000098030020009002402CE7002006
:100D8000426811B122F0004101E042F000414160AF
:100D90007047000005490028886902D040F40050DF
:100DA00001E020F40050886170470000009002408C
:100DB000F0B50F4B00244FF48016551E186011E05B
:100DC00000EB44131E60C4EBC41707EB470701EBAD
:100DD00087079F60AC4203D203F12007DF6000E089
:100DE000D860641C9442EBD302490861F0BD000056
:100DF000980300200090024002680A430260704796
:100E000010B501214C06204600F092FF2046BDE8B7
:100E10001040002100F08CBF00E0401E0028FCD1F3
:100E2000704700000248816941F480118161704778
:100E3000009002401CB50121072000F06DFF012148
:100E4000880300F08DFF4FF48070009003208DF830
:100E5000050002208DF8040000208DF80600294CC2
:100E60008DF807006946204600F0EEFB61024FF462
:100E7000C00000F0D9FF012001F076FF862000902D
:100E80006946204600F0E0FB0B220121204600F0DD
:100E90002CFC0B220221204600F027FC0B2207210C
:100EA000204600F022FC4FF46050174C0090694639
:100EB000204600F0C9FB0B221146204600F015FC2D
:100EC0000B220C21204600F010FC0B220D212046A5
:100ED00000F00BFC32200D4C00906946204600F0DB
:100EE000B3FB0B220121204600F0FFFB0B22042163
:100EF000204600F0FAFB0B220521204600F0F5FB0E
:100F00001CBD000000000240000402400008024036
:100F10000068C0F30D407047074A0244106C030A92
:100F20004B710871506C020ECA70020C8A70020A72
:100F30004A70087070470000008002400A4800B5FF
:100F4000406800210268002A0BDB0268120408D402
:100F50000268D20505D50268920502D5FFF7D8FFD1
:100F60000146084600BD0000980300200349002008
:100F70000968C90700D001207047000000900240B6
:100F800070B50B4C012502E0656000F0BFFDFFF776
:100F9000D5FF0028F8D14020FFF7A6FE4FF480309F
:100FA000FFF7A2FE6068012801D10020606070BDDB
:100FB000880000202DE9FF41784D044688462869C5
:100FC000002720F01C06684600F0E2FE74490198F4
:100FD000744A0144914202D246F008060EE072497A
:100FE000724A0144914202D246F00C0606E0704972
:100FF00008447049884201D346F004062E614FF43C
:1010000000420021404600F01DFA002825D06A4821
:10101000FFF702FF206878B3684E7F1C012140462D
:1010200000F03CF9400701D4B742F6D3B74213D0E1
:1010300000274FF480523946404600F003FA00285A
:101040000BD07F1C0121404600F028F9800601D416
:10105000B742F6D3B74203D1002004B0BDE8F08117
:101060001021404600F01AF942074FF0000104D564
:101070004FF40062226201E008E02162800701D59E
:10108000616113E04FF4804060610FE0206A6169A4
:10109000C00840EA510082B20021404600F0D2F977
:1010A0000028DAD06FF07F40FFF7B6FE2968444889
:1010B0000140D4E901021043E26854F8103F1A439A
:1010C000104362681043A2681043E268104322692B
:1010D000104362691043A2691043E2691043226A17
:1010E0001043626A1043084328602834D4E90001A1
:1010F0000843D4E902121143084321690843616996
:101100000843A1690843E16908436860206AA86050
:10111000606AE860A9694FF641700140D4E90B02AA
:101120001043238D626B42EA03421043A26B1043CB
:10113000E26B10430843A861D4E910010843E86159
:10114000204A916920480140D4E912031843D4E9A8
:1011500014352B431843A36D1843E36D1843236ED6
:101160001843636E1843A36E184308439061D4E993
:101170001B010843616F54F8783F194308436168C5
:1011800040EA8100A168084340F400001060106844
:1011900040F08000106001205FE700000080024006
:1011A00000D3CEFEC0E1E40040F1E9FD40787D01CE
:1011B00000796CFC005A6202FFFF0F00FFFF040081
:1011C0000F8120FF00900240233FDEF8054B8A8804
:1011D000184402640A78D1F8011042EA01214164FE
:1011E000704700000080024000B5AFB001214FF011
:1011F000606000F091FDFFF703FE00F0A3F800BF70
:10120000FFF7B4FE0128FBD0684600F0B4F80120D7
:10121000009000204FF40071CDE90A1009040790F6
:101220001190CDE920010E90149013900A111590A1
:101230002590269023920420CDE9280180032A904E
:1012400080012B9040122C9040002E900121684686
:10125000FFF7B0FE01210248FFF74CFD2FB000BDA3
:101260004000010005490028086802D040F0040051
:1012700001E020F004000860704700000080024098
:1012800005490028086802D040F0080001E020F07D
:1012900008000860704700000080024030B5114B24
:1012A00000221C694FF6FF7504F01C0405EAC020FB
:1012B00020434FF4F86404EA8111014321F0020055
:1012C00040F00100186108481969521CC90701D093
:1012D0008242F9D3824201D1002030BD586980B2E8
:1012E00030BD000000800240FFFF040030B5134C09
:1012F00000231A4621680D68002D0BDA10491346A9
:101300004C69240602D580244C618B6002604260E7
:10131000826030BD0D682D040AD40D68ED0507D537
:101320000D68AD0504D50A68C2F30D438A681B1F1A
:10133000CD6825600360C0E9012130BD9C03002019
:10134000009002400248016841F0010101607047CD
:101350000090024000B50120FFF792FFFFF762FD09
:101360000120FFF77FFF0120FFF714FD01205DF84A
:1013700004EBFFF7CBBC01210160002141608160DB
:101380004FF48042C160C0E90412D2108161C0E90B
:10139000071241628162C16201634163402281633D
:1013A000C0E90F122022C0E91121C1640165416525
:1013B00081658022C165C0E918128166C166016736
:1013C0004167D2048167C0E91F125210C0E9212190
:1013D0001311C0E92331C0F89410C0F89810C0F878
:1013E0009C10C0E928125212C0F8A8209201C0F83F
:1013F000AC205212C0E92C21C0F8B8107047000090
:101400000E4A11680B68002B01DA00207047C0F308
:101410000C004860086840F040500860086840F0E0
:1014200000400860064843695B0703D50423436115
:1014300000234360C86810600120704798030020B3
:101440000090024070B5104B00241D694FF6FF76E6
:1014500005F01C0506EAC02028434FF4F86505EAAC
:101460008111014341F003005A611861074819696D
:10147000641CC90701D08442F9D3844201D1002001
:1014800070BD012070BD000000800240FFFF04001D
:1014900030B51A498379026853B30B6893430B60E4
:1014A0000A1D13680468A343136002790A44136891
:1014B000046823431360114A083213680468A34385
:1014C0001360131D1C680568AC431C604479102C24
:1014D00005D021440A68006802430A6030BD1168E3
:1014E000046821431160196800680143196030BD28
:1014F0000079084401689143016030BD003C01401F
:1015000010B5002303E0D45CC4545B1C9BB28B4237
:10151000F9D310BD2DE9FC5F0025484C00954FF430
:10152000806801954027C4F81080C4E902750E4612
:101530004FF0080B1021C4E900B1A946204600F085
:1015400017FE1020FEF7C8FF002841D13C48BA46DC
:101550004F460089000420603720C4E9010AC4E92D
:101560000398204600F004FE3720FEF7B5FF002860
:101570002ED1411E04F11400C0E9001B302181600E
:101580000221C0E903170121416100F085FD3320EC
:10159000C4F808A0C4E90070C4E90378204600F04C
:1015A000E7FD3320FEF798FF040011D1254F4FF4DB
:1015B000001AE94640F22A68386810EA080F09D094
:1015C000082000F093FD80B1082000F04DFD0420BC
:1015D000BDE8FC9F504600F089FD0028ECD000F0EB
:1015E000C1FD49F825006D1CE6E7022000F07EFDF4
:1015F00020B1022000F038FD0220E9E7202000F0B1
:1016000075FD20B1202000F02FFD0620E0E74FF40B
:101610000075284600F06AFD20B1284600F024FD40
:101620000720D5E740F2FF5000F01EFD009800BAF9
:101630007060019800BA30602046C9E7D0E700200A
:10164000E0030020342C0140F0B5002301240327DF
:101650000D6804FA03F21540954242D1D0F800C05B
:101660005E0007FA06F52CEA050CC0F800C091F8F8
:1016700004C0D0F800E00CFA06FC4CEA0E0CC0F8EE
:1016800000C091F804C0BCF1010F02D0BCF1020F00
:101690001FD1D0F808C02CEA050CC0F808C091F89A
:1016A00005C0D0F808E00CFA06FC4CEA0E0CC0F8B5
:1016B00008C0D0F804C02CEA020CC0F804C042688C
:1016C00091F806C00CFA03FC1FFA8CFC42EA0C02EB
:1016D0004260C268AA43C260CA79C568B2402A4360
:1016E000C2605B1C102BB3D3F0BD4B07DB0E9A40DE
:1016F000C90810B500EB8100016A0F249C40A1438A
:101700000162016A1143016210BD024600201269A4
:101710000A4200D001207047F8B512486E46124DBB
:10172000009007F00BF9A5F11C040146A0610FA081
:1017300002F05CFC40F6B6321049A06906F0AAFB44
:101740000F4B50223146A06906F054FCFB220123C6
:101750002946A06908F08AFB0A4801680AA002F03D
:1017600045FCF8BDC0A800298C02002061646472A9
:101770006573732025303878200A000068AE0008B1
:10178000017500080800002073656E64206D6573A4
:10179000736167655F25640A00000000FEE70000D2
:1017A00010B50C460121242005F082FA014620469E
:1017B00006F06EFB0849204606F02BFE074920463E
:1017C00008F03AF806480168491C016001212046EA
:1017D00000F0E0F9002010BDE5170008E917000847
:1017E000FC00002005F07CBA2DE9F04387B05FEAE9
:1017F00002080E4604464FF00005E94628D0B8F826
:101800000810304608F02DF81A4806601CB144460E
:101810000026676812E0404605F0C5FD6FF009003C
:1018200007B0BDE8F083B95D09F805106D1C4846A6
:10183000182D02D101F0B2FA0025761C6089B04261
:10184000F1DC2468002CE3D1404605F0ACFD00E05B
:101850000BB10020E4E708480168491E01602046FA
:1018600005F03EFA0021304600F094F9304606F0CB
:1018700071FBD5E718010020FC00002030B51D4C9D
:101880009DB058B1012807D1A4F5097004F0FCFA05
:101890000021084604F09AFB1DB030BD4FF4616092
:1018A00091FBF0F200FB12113C2091FBF0F300FBE6
:1018B0001310182192FBF1F501FB152200900EA1E7
:1018C000204602F0A3FB01A800F0BAFC002004F0BF
:1018D0003BF80E49002004F079FB0DA115A804F097
:1018E0001FFC0028D8D10A2221460A4804F07EFBBA
:1018F000D2E7000060450020253032645F25303299
:10190000645F253032642E6A70670000E83E002074
:10191000000000003C430020064B10B45B68203AF6
:10192000D2B21C68DB88534304EB430210BC00F0C6
:101930001FB80000D0030020F0B50D46074640F266
:101940003F140A4E08E021463846FFF7E5FF70686D
:101950008088201A84B26D1C2A78002A05D071680C
:10196000601C80B289888842EDD2F0BDD00300208F
:101970002DE9F043894690460026054600F05BF8C5
:101980004FF0D047184C29E02220388000201BE07F
:101990000C23B1FBF3F34FEAC30C802303FA0CF3DF
:1019A00038F816C0034113EA0C0F01D10C2906D9EF
:1019B000012383401CEA030F03D10C2901D961885C
:1019C00000E021887980401C91888142E0D86D1C1C
:1019D000ADB24946284600F02EF8761C6268D088E1
:1019E000B042D1D8BDE8F083D00300200148406860
:1019F00070470000D003002010B5002001F01AF954
:101A0000012001F017F9022001F014F9032001F080
:101A100011F9002001F032F9012001F02FF9022024
:101A200001F02CF9032001F029F90021BDE8104054
:101A3000012001F049B90B4600B50146202000F015
:101A400006F8194621205DF804EBAFF300804FF053
:101A5000D04210805180704710B586B005F060F913
:101A600005F062FA00240F490394049401200594C0
:101A700048700D4801F01AFA0C480D490094CDE960
:101A8000011005AB04AA03A90A4805F0C1FA0948E8
:101A900005F0FAFA074803F095FD064805F040FB0B
:101AA00006B010BD6C000020AC010020855D000870
:101AB000D15D00085404002070B5134D04466868D9
:101AC000201A052802D36C6008F0A6F9A86841F234
:101AD0008831201A884202D3AC6004F035F9E868F6
:101AE000201AB0F5FA7F02D3EC6003F0C9F9286937
:101AF0004EF66021201A884204D32C61BDE8704064
:101B000003F058B870BD00006C000020014804F0DC
:101B10007FB9000054040020FEE7704770B50F2124
:101B2000C478027801234FF0E026E4B1124C246817
:101B300004F4E064C4F5E064C4F30724C4F10405CC
:101B4000E1404478AC4085780D4025430B4C290199
:101B50001155007800F01F018B40400906EB800012
:101B6000C0F8003170BD02F01F008340500906EB41
:101B70008000C0F8803170BD0CED00E000E400E0B2
:101B80000249084302490860704700000000FA0556
:101B90000CED00E02DE9F04100241E4E07462546DD
:101BA000012918D0002914D1FFF720FFC0881AA1FD
:101BB00000EB400080B2FFF7BFFEF06900EB0411BC
:101BC0004968B94222D100EB0410057045600572E6
:101BD000C560BDE8F081F06900EB0411097819B126
:101BE000641C0A2CF8DBF4E700EB0410611C0170A4
:101BF00047600572C560FFF7F9FEC088BDE8F04197
:101C000000EB400080B20AA1FFF796BE641C0A2CCC
:101C1000D4DBDEE7AC0000205041445F4445562051
:101C20004D6973732E2E2E2E2E2E2E2E00000000A8
:101C30004E4557205041445F4445562E2E2E2E2EA1
:101C40002E2E2E2E0000000070B5094D0E460024E9
:101C5000E86900EB0410017A012905D140680123ED
:101C60001822314608F002F9641C0A2CF0DB70BD22
:101C7000AC00002030B5094B7B216FF02F051A68AE
:101C8000445C0D2C07D002EB820205EB4202491C9A
:101C900022448029F4DB1A6030BD0000700200206D
:101CA00070B5134C0025A06906F054F910B911A0C5
:101CB00002F09CF9A0680026012808D1A660E1681E
:101CC000FFF7DCFD0E4801680EA002F08FF90F4807
:101CD0000F49066026616660C4F8006041F825601F
:101CE00000206D1C642DF9DB60610A48067070BD30
:101CF00070020020636C6F73655F6F6B0A000000F9
:101D000008000020735F25640A000000CC0000205A
:101D10009CE50020AD000020044A0029116801D094
:101D2000014300E0814311607047000030380240F9
:101D3000044A0029116801D0014300E08143116089
:101D40007047000010380240044A0029116801D091
:101D5000014300E0814311607047000040380240B9
:101D6000044A0029116801D0014300E08143116059
:101D70007047000044380240044A0029116801D02D
:101D8000014300E0814311607047000024380240A5
:101D900070B5214A1168214B11F00C0104D0204D7F
:101DA000042903D0082903D003601BE0056019E073
:101DB0001949091F0C68C4F380560C6804F03F04ED
:101DC00016B1B5FBF4F301E0B3FBF4F30C6809685A
:101DD000C4F388146343C1F30141491C4900B3FBB8
:101DE000F1F1016011680F4B01F0F00109095C5C31
:101DF0000168E1404160146804F4E054A40A1C5DE9
:101E000021FA04F48460126802F46042520B9A5C76
:101E1000D140C16070BD0000083802400024F400C9
:101E200040787D0188030020034A1368084323F0AB
:101E3000EC631843106070470838024070B5174CC7
:101E40008179E26802EB011319700021857943184A
:101E500002EB05150D449B7A491C6B700C29F5DBD0
:101E600080790E4902EB00100023437338310320C0
:101E7000C870042008718B7201231822A06A07F031
:101E8000F5FFFFF7B3FDC08805A100EB400080B26D
:101E9000FFF752FD2069401C206170BDAC0000209E
:101EA0004E455720524F4F4D5300000010B50C4C7B
:101EB00082790020E168052301EB02110870487364
:101EC00004F13801CB7004230B718A7188720123ED
:101ED0001822A06A07F0CAFF2069401E206110BDC9
:101EE000AC00002030B5421EFE2812D11E220A4D41
:101EF00002EB820400236D6905EB8404E55C2DB1DF
:101F00005B1C142BFADBFE2802D002E0E15430BD4A
:101F1000521C2C2AEBDB30BDAC00002070B5441EF7
:101F200005460E46FE281BD11E24104A04EB8401F0
:101F30000020526902EB81010A5CB24202D1002208
:101F40000A5470BD401C1428F6DBFE2D0BD0FFF7A1
:101F50004DFDC08806A100EB400080B2FFF7ECFC0D
:101F60002C2CE2DB70BD641CFAE70000AC00002002
:101F70006572726F72000000421EFE280AD11420A2
:101F8000B1FBF0F21E32C2F11E0000EB800001EB4B
:101F90008000C1B2034802EB8202406900EB82007C
:101FA000405C7047AC0000202DE9FC4700258046CE
:101FB00000952846019500F0ABF8800102D50E206F
:101FC000BDE8FC87264F6946388980B2FFF7A2FA40
:101FD0000028F5D13720234C402601994FF0060AFE
:101FE0004FF48069B8F1010F1FD0C90335D5398985
:101FF000C4F810900904C4E90010C4E90265204641
:1020000000F0B6F83720FEF767FA0028D8D1C4E907
:10201000005AC4F8109000BFC4E90265114800F0EE
:10202000A7F80620FEF758FACAE7490315D53989FB
:10203000C4F810900904C4E90010C4E90265094815
:1020400000F096F83720FEF747FA0028B8D10220B2
:10205000C4F81090C4E9000ADEE72520B0E70000CC
:10206000E0030020D0E7002001490860704700002D
:10207000382C01400149086070470000382C0140AD
:102080000149086070470000A080254201490860AE
:10209000704700008C85254210B50A4A016811601E
:1020A000121D41681160121D116821F0F703D0E97B
:1020B00002142143D0E90440044321431943116031
:1020C00010BD0000242C014010B50121CC02204697
:1020D000FFF752FE2046BDE810400021FFF74CBE3E
:1020E00001480068C0B27047102C0140034A014605
:1020F000002012680A4200D001207047342C0140B1
:102100000248006800F0030070470000002C014006
:102110000149405870470000142C014000F03EBCBB
:10212000044A0029116801D0014300E08143116095
:10213000704700003C2C014030B5094B1A6847F647
:10214000FF618A43017D8468C568214344682C434C
:10215000214304680069214301431143196030BDE4
:10216000042C01400148006870470000802C0140A9
:1021700010B5084A01681160121D1168CB0AD0E938
:1021800001142143D0E903400443DB0221431943F6
:10219000116010BD082C0140014908607047000023
:1021A000002C01404FF0C0510148FEF757BB000022
:1021B0005864024010B5012461030348FFF7A5FAF3
:1021C00000B10024204610BD001C02402DE9F04162
:1021D0000146194800264068032813D018B1012889
:1021E00001D0022825D1B1F5805F0BD04FF40067F4
:1021F0000025124CB9420ED10120FFF7D5FE060092
:1022000003D016E02720BDE8F081257525606560C4
:10221000C4E9025709E00020FFF7C6FE060008D116
:10222000257525606560A560E56004482561FFF7B8
:1022300083FF3046E7E70000E0030020B8E7002016
:102240002DE9F0438B49DFF830824D6880F84E501D
:102250000989A0F84C10D8F800100A0E93090370F1
:10226000C2F38303437002F0030282700A0CC2704F
:102270000A0A02714171D8F80440210E0901C18097
:10228000C288C4F3074142EA1112C28001F00F0173
:102290000172C4F30721CA094272C1F3801282722B
:1022A000C1F34012C272C1F3001202734FF0000C6E
:1022B00080F80DC042464FF001099668330EC6F310
:1022C0000742C6F3072725B1012D02D0022D2BD0DE
:1022D0003CE08907090D0161E1B2046944EA81012A
:1022E0000161016941EA93110161C3F3C201017502
:1022F00003F00701417551098175C2F38201C1756F
:102300009107490F0176027E394642EAD1120276E0
:102310000269037E521C9B1C047A9A4009FA04F35A
:102320005A43C0E9112311E0A106890A016101693C
:1023300041EA0321016101691143016102693946E2
:10234000521CD20442644FF400728264C1F38012C2
:1023500042768906490E8176827EF1B242EAD11236
:10236000827601F07F01C176D8F80C20110ECB09DE
:102370000377C1F341134377C1F38203837789075E
:10238000090FC177C37FC2F3074143EA9113C377B3
:10239000C1F3401300F8203F80F801C001F00101B3
:1023A0008170C2F30721CB09C370C1F3801303719D
:1023B000C1F340134371C1F300138371C1F381036F
:1023C000C37101F003010172C2F3460141724A4632
:1023D00080F80A90284B103319680C0E0473C1F36F
:1023E00007442402C481C589C1F307242543C5815C
:1023F00009060161596805690C0E45EA0444046147
:102400000569C1F3074445EA042404610569C1F381
:10241000072425430561017599680C0E4475C1F3C5
:102420000744240684618569C1F3072445EA04440E
:1024300084618469C9B244EA01218161D9688469EF
:1024400044EA11648461047FC1F3074344EA13142E
:1024500004771B071B0DC383C48BC1F307231C43E5
:10246000C483C1F3460180F8201080F82120604623
:10247000BDE8F083E003002038E7002008B5002025
:102480000090FFF797FE012803D1684600F01CFB7F
:1024900008B1FF2008BD0098C0F3432008BD10B567
:1024A000FFF7ECFF042803D0FF2803D0012010BD64
:1024B000002010BD022010BD10B500F02BF9FFF771
:1024C00003FE00F089F9002822D100F025F8002849
:1024D0001ED110490875086048608860C8600861AE
:1024E0000846FFF729FE0B485038FFF7A9FE0028E1
:1024F0000ED108485038B0F84C00000400F0CEFA75
:10250000002805D1BDE810404FF40060FFF75EBE23
:1025100010BD0000B8E700202DE9F84F012000258C
:10252000ADF80000FFF7ECFDA8B3DFF8E490D9F8B0
:102530000400042869D0374C4FF0C00A002602205E
:10254000C4F808A0C4E900604FF48068C4E90368D7
:102550002046FFF70DFEFDF7D1FF05001DD1FFF767
:10256000D7FDA4F1880738600420FFF7D1FD78601B
:102570000820FFF7CDFDB8600C20FFF7C9FDF8601B
:10258000D9F804004F4650B1012808D0062806D0DB
:10259000022804D014E0FFE72520BDE8F88F0320CF
:1025A000C4E9006004F108014020A1E84101194894
:1025B000FFF7DEFD69460320FDF7BCFF0500ECD107
:1025C0007868042821D0BDF80000B86000042060BD
:1025D0000920C4E9010AC4E903680E48FFF7C8FDF1
:1025E000FDF78CFF0500D8D1FFF792FD094C983C10
:1025F00020600420FFF78CFD60600820FFF788FD55
:10260000A0600C20FFF784FDE0602846C5E70000CD
:10261000E0030020D0E7002030B51C4D04468FB009
:102620004FF0FA512846FEF743F800212846FEF7FE
:102630006BF82846FEF772F84FF0006000901448DF
:10264000CDE901040020039029150490CDE905018E
:10265000890007918900CDE908104FF440300A90B5
:1026600004200B9003200C9048020D9080100E90D7
:1026700069462846FEF722F920212846FEF7E0F8B1
:1026800001212846FEF740F80FB030BD58640240E3
:10269000802C014030B51D4D04468FB04FF0FA51EB
:1026A0002846FEF705F800212846FEF72DF82846B3
:1026B000FEF734F84FF0006000901548CDE90104B2
:1026C00040200390002029150490CDE905018900E0
:1026D00007918900CDE908104FF440300A9004209A
:1026E0000B9003200C9048020D9080100E906946CC
:1026F0002846FEF7E3F820212846FEF7A1F801213D
:102700002846FEF701F80FB030BD000058640240C3
:10271000802C01402DE9FC4101218C20FFF7FCFABF
:102720002A4E0C2208213046FEF7DFFF0C22092139
:102730003046FEF7DAFF0C220A213046FEF7D5FFBD
:102740000C220B213046FEF7D0FF0C2211463046FA
:10275000FEF7CBFF1E4F0C2202213846FEF7C5FFC5
:102760004FF47060009003208DF8050002208DF872
:10277000040000248DF8064001258DF807506946B5
:102780003046FEF761FF0420009069463846FEF7A8
:102790005BFF280300908DF8074069463046FEF73E
:1027A00053FF680300908DF804408DF80750694688
:1027B0000848FEF749FF0121C802FFF7D1FA0121BD
:1027C0008805FFF7A9FABDE8FC8100000008024077
:1027D000000C0240001C02402DE9F05F4FF0000A9F
:1027E0006A48762156460175C0F800A0C0F804A0DA
:1027F000C0F808A0C0F80CA057465446C0F810A076
:10280000FFF79AFC0320FFF7C7FC0120FFF738FC15
:10281000DFF878814FF4806108F118084046C8F865
:102820000040C8F80440C8F80840C8E90341FFF771
:102830009FFC4FF4803B5D4601E06D1E1FD0802061
:10284000FFF754FC0028F8D0CDB140F2FF50FFF75D
:102850000BFC4FF4D5704546C8F8000008204FF037
:102860004009C5E901094FF480684848C5E90348B3
:102870001830FFF77DFC464A5846116806E00320F1
:10288000BDE8F09F4249A0F10100096811F0450F31
:1028900014D008B1480714D50420FFF7E5FB372012
:1028A000C5F80890C5E900403848C5E90348183024
:1028B000FFF75EFC3720FDF70FFE0BE00028E1D1AB
:1028C000EAE7480602D54020FFF7CEFB3148012158
:1028D0008F0741600021372285E806022B48C5E9B1
:1028E0000318AB461830FFF743FC3720FDF7F4FD23
:1028F00004003AD047E000BF4FF0000A50463721AD
:102900008BE803025C462148C4E903A81830FFF7AE
:102910002FFC3720FDF7E0FD0028B1D11E483843D9
:102920002060C4F81080241D2920A4E8010617485F
:102930001830FFF71DFC164A0024106810F0450FF0
:10294000FBD0400704D503240420FFF78DFB1AE0D9
:1029500040F2FF50FFF788FB0020FFF7D9FB8246CB
:10296000C00F06F1010602D003E04FF6FF75AE423C
:10297000C2D3AE4201D31B2082E71AF0804F02D0AF
:1029800004480221416020467AE70000B8E70020B1
:10299000342C0140E00300200000108070B50E4C84
:1029A000E1680020012908D10C490860091D40F2A6
:1029B0004C4008600C20FDF78FFD20704FF48075AF
:1029C0002846FFF757FB00212846FFF7A9FB012007
:1029D0002061207870BD0000E0030020082C014039
:1029E0002DE9FF5F2A480025164698460F460570D8
:1029F00005614FF00109C0F80C9026490D60406850
:102A0000022801D106027F0A234C4FF4806B10206C
:102A1000C4F810B0C4E900604FF0400AC4E902A550
:102A20002046FFF7A5FB1020FDF756FD00282BD10F
:102A3000411E04F1140008FB06F8C0E900189021BB
:102A400081600C300221A0E8220204F11400FFF79B
:102A500023FB1220C4F810B0C4E90070C4E902A539
:102A60002046FFF785FB1220FDF736FD04000BD151
:102A700001210802FFF754FB0120FFF707FB414645
:102A80000098FFF7C9FD204604B0BDE8F09F0000A4
:102A9000E00300202C2C0140D0E70020094910B5AC
:102AA000086007204860402088600020C8604FF41C
:102AB000806008610846FFF75BFBBDE81040072017
:102AC000FDF70ABDD0E7002010B5044609480A49C1
:102AD000008900040860091D40F24D4008600D2087
:102AE000FDF7FAFC002803D103490C310968216085
:102AF00010BD0000E0030020082C014070B5084C18
:102B0000002500BFFFF74EFB20B9206910B92078DF
:102B10000028F7D0207808B1207870BD284670BD15
:102B2000E003002070B50A4C002500BFFFF73AFB18
:102B300020B9206910B920780028F7D0207808B192
:102B4000207870BD40F2FF50FFF78EFA284670BD26
:102B5000E00300202DE9FF5F33480F4600211646B1
:102B60001D46017001610122C260304A1160426855
:102B7000022A01D116027F0A00892D4C00044FF071
:102B8000400A20603720C4E9010A4FF4806BC4E991
:102B9000031B89462046FFF7EBFA3720FDF79CFC24
:102BA00000283DD120461721C0E90051C0E902A903
:102BB000A0464C46D9461E48C8F810B0FFF7D8FAD0
:102BC0001720FDF789FC00282AD140461921C0E9C9
:102BD0000071C8E902A41648C8F81090FFF7C8FAB7
:102BE0001920FDF779FC00281AD1114A401E143231
:102BF0007543C2E900059020C2E902040120C2E940
:102C000004401046FFF748FA01210802FFF788FA4E
:102C10000120FFF73BFA29460098FFF73BFD2046CD
:102C200004B0BDE8F09F0000E00300202C2C014020
:102C3000D0E700201CB504460E48012150F82400BE
:102C4000FFF76AF80B480021083830F814000090AC
:102C500001208DF804008DF806108DF80700022081
:102C60008DF805000448694650F82400FEF7ECFC96
:102C70001CBD0000B0AE0008B40300200349044AA4
:102C800031F8101052F8200001837047A8AE0008F8
:102C9000B4030020044951F820104A69034B33F86B
:102CA000100042404A617047B4030020A8AE0008FB
:102CB0000349044A31F8101052F82000FEF725BDF0
:102CC0009CAE0008C403002070B5044624480E469C
:102CD00086B050F824000121FFF71EF80121880377
:102CE000FFF73EF81E4800258DF8105024388DF867
:102CF000135030F8140003901A4803A950F8240028
:102D0000FEF7A2FC012E28D115483938015DC01EFE
:102D1000005D00F02FF812481E3830F814000090C3
:102D20008DF804500CB10C2000E008208DF805004F
:102D300001258DF806506846FEF7AAFB084836388C
:102D4000005D8DF808000F208DF809008DF80A004D
:102D50008DF80B5002A8FEF7E1FE06B070BD000032
:102D6000C0AE0008C403002001490860704700009D
:102D7000DC00274210B58A0721F003040649130F2F
:102D800021440F220C689A4094430C600A689840D2
:102D900002430A6010BD00000838014010B50178F8
:102DA000FF2925D14178FE2922D1817815291FD10B
:102DB000104C6168C1EBC102216811F822300BB1DF
:102DC000606811E001EB8203014618221846FDF706
:102DD00039FAD4E901102268C1EBC10102EB81018B
:102DE00088616068401C6060642801D100206060D8
:102DF00010BD00001001002040F6612505F09EFD89
:102E000004462A46064905F045F8FF21204605F00C
:102E100053FD044904F0BAFF002007F0D7FCEDE7AA
:102E200068AE0008A11700081D480021026842F49E
:102E3000803202604FF4A063026801F1010112F4D4
:102E4000003F01D19942F7D10168890326D5144981
:102E500008310A680A600A6842F400420A600A6897
:102E600042F4A0520A600B1F0E4A1A60026842F038
:102E70008072026002689201FCD50B4A40F2037036
:102E80001060086820F003000860086840F0020045
:102E900008600868C0F381000228FAD1704700007A
:102EA0000038024004104105003C02400849027805
:102EB0000A7042784A7082788A70C278CA70027941
:102EC0000A7142794A7101460020FEF77FB900007D
:102ED0006502002070B500F087FD07F007FD15487A
:102EE000FDF7B8FC144C6061A169814220D100213A
:102EF000124A134BC0F1180004E0555CC1F11706EB
:102F0000491C9D558842F8DC20690D4900EB4000C2
:102F1000F03901EBC0000A4A1821FEF7F1FA2169E5
:102F20000020491C2161092900DD2061A061606148
:102F300070BD00008860024088000020A851002079
:102F40007C0500200F4810B5016841F001010160C7
:102F50000C4A00210832116002680B4B1A400260D3
:102F6000031D0A4A1A60026822F4802202600548A2
:102F70000C300160FFF758FF05494FF00060086012
:102F800010BD000000380240FFFFF6FE10300024A4
:102F900008ED00E02DE9FF5F0446DFF828840020FB
:102FA0000190D8F828C0D8F81C1000BF01EB00121F
:102FB0005268624501D1C8F82C00401C0A28F5DB94
:102FC000D8F82C00012601EB0010FE49007AFE4AD9
:102FD0004B6A04254FF0000A48B32079502826D0C8
:102FE0004F6851287DD001287CD0C96803287AD049
:102FF000052879D0062878D0072877D0082876D0F9
:10300000092875D00A2874D0EE4A40F2DC5B0D28FE
:1030100092696FD00F286ED012286DD02C286CD0FA
:103020002B286BD029286AD04628FCD043E3002007
:103030004FF05009117809E0271802EB000CFF7AD5
:103040009CF801C0674500D013B3401C8142F3DCFB
:10305000DC490123383181F803900D7181F80AA011
:10306000D8F82C20D8F81C0000EB021018220672A9
:10307000D8F8280006F0FAFEFEF7B8FCC08804B0C5
:1030800000EB4000BDE8F05F80B2D0A1FEF754BC79
:10309000CC4901233831182281F803900D718E72CA
:1030A000D8F8280006F0E2FED8F82C10D8F81C005A
:1030B00000EB0112D168491CD160D8F82C200129FD
:1030C00000EB021277D182F800A0D8F82C2000EB98
:1030D0000210C0F804A0D8F8280004B0BDE8F05FE2
:1030E0000EE00FE034E068E08BE0BDE0DBE050E1B3
:1030F00057E1C2E1D1E114E284E2DBE231E334E3FF
:1031000004F028BF012B91D1A07A5123811F0729F8
:1031100003D3AC493831CB7068E00021401C03E098
:103120006618B67A5654491C8142F9DBA5493831F4
:103130000020CB700D7181F80AA002E00C18401C31
:10314000E372135C5C1C8442F8DC01231822E5E185
:1031500000249C4D26463835D8F80C0000EB0410AE
:103160000178A14201D0FE2922D1022129710078E3
:10317000761CA871AE7298F81000E8725FF000003B
:10318000D8F80C102A1801EB04110144401C4978AE
:1031900011730C28F4DB02E0012007F005FA01238B
:1031A00018222946D8F8280006F060FE0028F3D13E
:1031B000641C1F2CD0DBBDE8FF9F012BA3D194F82A
:1031C0000620002001EB00131B78934201D01E2A39
:1031D0000ED9FEF70BFCC08882A100EB400080B244
:1031E000FEF7AAFB774938310320C8700D7118E04B
:1031F000401C1F28E6DB04B02046BDE8F05FFEF768
:103200001DBE012BDAD1A779FE2F04D001EB0710E8
:103210000078B84207D06B4938310520C8700D716D
:103220008F718E7291E72046FEF740FE01244546DD
:103230002602686800EB04108178B94210D1FE21A3
:103240008170E9684A7B521C4A734178FE20FEF780
:1032500049FE686800EB041041783846FEF75EFED0
:10326000641CB442E5DDA6E7012BA7D1A07901EBF0
:10327000001213780622834203D052493831CA70B3
:10328000B4E7002023189E7AA37901EB03130344CB
:10329000401C5E700C28F5DB4A493831CA700D714C
:1032A00081F80AA051E7012B88D194F8069094F890
:1032B00007A04FF0140B4846B9F1FE0F02D10020D1
:1032C0004FF0FF0B5FF0010207EB021898F801E0E6
:1032D000D6453ED001EB001393F80DC0DC4538D045
:1032E000BEF1000F4BD098F8003094F80AC0634547
:1032F00045D198F8033094F80BC063453FD198F856
:10330000043094F80CC0634539D198F8053094F82E
:103310000DC0634533D198F8063094F80EC063456C
:103320002DD198F8073094F80FC0634527D198F84D
:10333000083094F810C0634521D198F8093094F80A
:1033400011C063451BD198F80A3094F812C0634548
:1033500015D1FEF74BFBC08827A100EB400080B2DF
:10336000FEF7EAFA1749052038310123C8700D71BC
:1033700081F806908E7281F80BA018223EE1521C53
:10338000B2F5807FA0DD04B02046BDE8F05FFDF718
:10339000F9BA012B88D104B02046BDE8F05FFDF7F3
:1033A00075BB012BF6D194F8079007EB091090F844
:1033B00002B0A079142403465A46BBF1FE0F00D197
:1033C000002223E0AC000020303E00204E45572074
:1033D0005041445F4445562E2E2E2E2E706173733D
:1033E00000000000526F6F6D20616464206572728E
:1033F0006F722E2E2E000000646576696365206171
:103400006464206572726F7200000000FE2801D1B2
:103410000023FF2401EB03177F7BA74206D1FD4960
:103420000922CA700D7188718E7223E001EB0211BE
:103430004A7B521E4A73D8F8041001EB09118870B8
:10344000D8F80C1001EB0312517B491C517349460B
:10345000FEF748FD49465846FEF760FDED49092054
:10346000C8700D71D8F8040000EB091080788871DD
:1034700081F80AA081F80B9067E6D8F820000128AF
:103480003FF4F1AEE4A000F0B1FD88F80160C8F8A7
:103490002060BDE8FF5FFEF73FB901200D235946CC
:1034A00000EB400712F8177087B1401C8842F7DB29
:1034B0002571E370A07BE073607BA073207B607359
:1034C000E07A2073A07AE072A672DFE100EB40069A
:1034D000A17902F8161002EB4600A17A4170E17A58
:1034E0008170217BC170617B0171A17B4171C949F0
:1034F0000D71CB70D8F8180010F816208A7100EB07
:10350000460081F80AA04278CA7282780A73C278AB
:103510004A7302798A734079C87316E6D8F828008E
:10352000B3E00020009094F80A900127B94807EB17
:103530004702383894F806C0836913F812106145C1
:1035400044D103EB420191F801C0CC4516D191F86A
:1035500002C094F80B80C44510D191F803C094F8D0
:103560000C80C4450AD191F804C094F80D80C4457C
:1035700004D1497994F80EC0614502D0B9F1000F29
:1035800024D101210091A34C03F812A00F2325712F
:10359000E370836903EB420113F812C084F806C09C
:1035A00084F80AA04A78E2728A782273CA78627331
:1035B0000A79A2734979E173012318222146806AAE
:1035C00006F054FCB9F1000F7FF44DAE7F1C5F454F
:1035D000ACDB009801283FF446AE0F202571E07067
:1035E000A07BE073607BA073207B6073E07A207324
:1035F000A07AE0720123A672182221468548383845
:10360000806A42E0A6794FF00009824C4D460120C5
:103610004FEA0B0300EB400112F81110B14200D148
:103620006D1C401C9B465845F4DB25B35FF0010739
:10363000D8F8180007EB4702414610F81230B342A1
:1036400034D1132309F10109237184F80A9000EBA6
:103650004200E5724278227342784B6803EB021213
:10366000927862738278A273C278E27302792274CC
:103670004079607411E01320207184F80AA00123BE
:1036800084F80BA018222146604604B0BDE8F05F24
:1036900006F0ECBB012006F087FF0123182221462B
:1036A000D8F8280006F0E2FB0028F3D17F1C5F4524
:1036B000BEDB80E523B3574D0021083D6A5C904294
:1036C00001D1002B7AD0491C0829F7DB222876D0BB
:1036D0002328EED1002BECD101252E02D8F80400CE
:1036E00000EB05104178A94206D1C17A2172007B16
:1036F0006072204600F04CFB6D1CB542EEDD5AE5D1
:10370000A679444C5FF00105D8F8181005EB450088
:1037100011F81020B24220D101EB4000D8F804107B
:10372000427801EB0212D27A2272427801EB021245
:10373000127B627282782271427801EB02129278D7
:10374000A271427801EB02114978E1710179A1720D
:103750004079E072204600F01BFB6D1C5D45D3DB19
:1037600029E501200190292020710020034681468F
:103770000090A07A039020790290A6790025254C2C
:103780004FF0140B2F46FE2E07D0354601EB0510E7
:10379000407B38B1FE2E03D0AEE04FF0FF0BF5E7D3
:1037A000487BB0BB84F80AA084F80BA0A6710298ED
:1037B000292805D047202071454607E0A0E0ACE06D
:1037C00001984130F7E7012006F0EEFE01231822B0
:1037D0002146A86A06F04AFB0028F4D1EBE4F9B2CE
:1037E0003046FEF7C9FB88B3F9B23046FEF7C4FB9A
:1037F0000099491C0091D8F804105B1C01EB0011E2
:1038000091F801C004EB830181F809C0D8F804C025
:1038100008E071E0E400002067657420636D645F78
:103820005F5F00000CEB001C9CF800C081F80AC030
:10383000D8F804C00CEB001C9CF80DC081F80BC03C
:10384000D8F8042002EB0010807B0873022B07D00D
:10385000D8F80C0000EB0510417B0098814241D163
:10386000029809F10109462814D10398814511D124
:1038700084F80A90D8F80C1001EB0511497B491C1B
:103880004908E1729900217347212171012318220F
:10389000214643E684F80A90D8F80C1001EB051194
:1038A000497B491C4908E172990021730199413112
:1038B0002171A6710299292903D00BE0012006F09D
:1038C00073FE012318222146D8F8280006F0CEFA0C
:1038D0000028F3D1002051462218401C51730828BB
:1038E000FADB0023D8F80C0000EB0510417B0098B0
:1038F00081423FF4B8AC7F1C5F45FFF670AF5AE4DD
:10390000E07907EB0010C17A2172007B607204B08D
:103910002046BDE8F05F00F03BBA002BEFD1012557
:103920005FEA0526D8F80400A27900EB051081783B
:10393000914206D1C17A2172007B6072204600F06C
:1039400027FA6D1CB542EDDD35E400002448002562
:10395000A0F1240442F21077A0611830E061183021
:1039600020626069FDF7D4F86069FEF7A5F8616927
:10397000206900F57A70814216D3606920610020C9
:10398000FFF788F96068012801D1FFF783F9206803
:10399000012802D10220FFF77DF9124800680128B2
:1039A00002D10320FFF776F96069E1683944884263
:1039B00006D3606900266660E06003F03BFE266087
:1039C0000120FFF775F940B1002D02DDFCF734FD51
:1039D0000025012006F0E8FDC3E76D1CF9E70000B3
:1039E00024000020D000002003484169491C4161A7
:1039F0008168491C816070470000002070B5104C40
:103A000040F22551204600F004F908B100F0A2FA76
:103A10000821204600F0F6F810B1204600F08CF99D
:103A200040F227752946204600F0F3F8002806D01A
:103A300029462046BDE87040002200F009B970BD5B
:103A400000440040C943018070470029818902D0A9
:103A500041F4005101E021F40051818170470000E0
:103A60002DE9F04188B001210820FEF755F9012128
:103A70004804FEF769F9DFF8D480072205214046A3
:103A8000FDF733FE072206214046FDF72EFE0226F3
:103A90008DF8086003278DF80970002420208DF828
:103AA0000A40012501908DF80B5001A94046FDF711
:103AB000CBFD4020019001A94046FDF7C5FD4FF424
:103AC000E1300390ADF814400C20DFF88480ADF8AD
:103AD0001040ADF81600ADF81240ADF8184003A93B
:103AE000404600F0CDF801214805FEF715F91948C8
:103AF00008F1040141600915C0E90541C4613904B8
:103B00000462C0E90941C0E90B47446384630121B1
:103B10004046FFF79AFF11208DF800008DF8015004
:103B20008DF802508DF803506846FDF7F7FF10201E
:103B30008DF800008DF801508DF802608DF803506B
:103B40006846FDF7EBFF08B0BDE8F081000C0240CD
:103B50000044004064500020002A828A01D00A43B9
:103B600000E08A43828270472DE9F041FFF778FF39
:103B7000214F3846FCF7D2FD204C4FF00065402025
:103B80002560E060182604F596702661A060214645
:103B90003846FCF793FE012210213846FCF778FEE8
:103BA000174F012280213846FFF7D6FF40213846C3
:103BB000FFF748FFDFF84080A8F118084046FCF7FF
:103BC000ADFD00202560E06004F5A2702661A060D4
:103BD00021464046FCF772FE012210214046FCF7C8
:103BE00057FE012240213846FFF7B6FF4046BDE8A8
:103BF000F0410121FCF788BDA06002406450002024
:103C0000004400400246002012880A4200D00120F1
:103C1000704730B501F01F0201240025C1F34213A3
:103C200004FA02F2012B0FD0022B0FD0838A4FEA45
:103C300011210088134204FA01F400EA040001D0C3
:103C400000B10125284630BD8389F0E7038AEEE7FD
:103C500010B5C1F3421301F01F040121A140012B53
:103C600007D0022B07D01430002A026805D00A437F
:103C700004E00C30F8E71030F6E78A43026010BD2C
:103C80007FB50446008A0D4620F44051E888084379
:103C90002082A08941F20C618843A9882A891143B6
:103CA0006A8902431143A181A08A20F44071A88946
:103CB0000843A0826846FEF76BF81D48844202D094
:103CC0001C48844201D1039800E00298A1890904AC
:103CD000002900EBC00101EB0010296802DA4FEA6D
:103CE000410101E04FEA8101B0FBF1F26420B2FB37
:103CF000F0F14FEA01114FEA11136FF018056B4311
:103D000002EB8302A3891D044FF0320306D503EBB7
:103D1000C202B2FBF0F000F0070005E003EB021274
:103D2000B2FBF0F000F00F00084320817FBD0000DF
:103D300000100140001401408088C0F30800704763
:103D4000C1F3080181807047FEE7000000250F4C99
:103D50002F4600BF05EB450614F8360088B1FF2852
:103D60000FD104EBC6004178FE290AD181781529CC
:103D700007D100F069F86D1C04F83670092D00DDDC
:103D80000025012006F010FCE4E700008C04002070
:103D9000FCF7BEBD2DE9F041A0B00E4607469046A7
:103DA00064216846FCF767FA0125002001F0CCFD8C
:103DB000194CA6F5A060DC3801D1062000E01020E7
:103DC00020601649002002F001F9694619A802F0A6
:103DD000A7F9C8B90A224146114802F007F90EE0D6
:103DE00021680F48694302F058F822680A4B02FB29
:103DF00005710C330A4802F00CFA6D1C761E002E79
:103E0000EEDC074802F040F80021084602F0DEF838
:103E100020B0BDE8F081000000010020E83E002055
:103E20001841002070B504461546054802F035F8E3
:103E30002A462146BDE87040024B014802F0E9B92C
:103E40003C4300200C0100202DE9F041044600799C
:103E5000354DF12808D0F2280ED0212822D0302864
:103E60002CD039282AD02DE030490120086028784C
:103E7000002815D02E4853E02E4F00264FF6FF782D
:103E8000A019807AB855FDF7B1FDC18808EA410054
:103E900029A1FDF751FD761C0A2EF1DB00202870C8
:103EA000BDE8F081E2786868A17A00EB02125173F4
:103EB000E278E17A00EB021081730BE02146A86AF8
:103EC000FDF7C2FE207932280AD04028E8D1686A7E
:103ED0000128E5D12146A86ABDE8F041FDF7B4BE4E
:103EE000E6786B6803EB06104178B142D8D1A17A2D
:103EF000C172E17A017315A240F201111846FFF771
:103F000049FF3220E07004202071686800EB061041
:103F10008178A171E671C17A2172007B60722046BE
:103F2000BDE8F041FFF734BFAC00002000000020E6
:103F30004C0100203D3E0020676574206E657420B2
:103F40007374617475737E7E000000006465762E64
:103F5000646174002DE9F04100252F46204EDFF802
:103F60008480214C08E03046FFF7E6FE207061684F
:103F700008F80100491C616020213046FFF742FE2D
:103F800010B160681828EEDB6068032802D018289A
:103F90000DD01BE098F800104046FF291AD1417857
:103FA000FE2917D198F80200152813D10EE00D480C
:103FB0000178FF290ED14178FE290BD1817815298E
:103FC00008D1FFF741FF6068182803D0A5F5985085
:103FD000883803D100206760BDE8F0816D1CCBE715
:103FE0000044004094050020A40000200FB4054BBD
:103FF00010B503A9044A029800F02CF810BC5DF833
:1040000014FB00003D650008500400200FB4084B6D
:1040100010B504A902AA039800F01CF8044602A9EE
:10402000002000F04AFA204610BC5DF814FB0000A6
:10403000BB44000802E008C8121F08C1002AFAD1D8
:1040400070477047002001E001C1121F002AFBD118
:10405000704700002DE9FF4F8DB00F460546002642
:10406000E2E1252874D100246D1CF349A246A14643
:1040700001222B78203B02FA03F0084202D00443CD
:104080006D1CF6E728782A2810D06FF02F022878C8
:10409000A0F13001092915D80AEB8A0102EB410190
:1040A00044F0020400EB010A6D1CF0E757F804AB82
:1040B000BAF1000F03DA44F40054CAF1000A44F0E4
:1040C00002046D1C28782E2817D115F8010F44F032
:1040D00004042A280ED06FF02F022878A0F13001B6
:1040E00009290AD809EB890102EB410100EB01091A
:1040F0006D1CF2E757F8049B6D1C28786C280FD0D4
:1041000006DC4C2817D068280DD06A2814D104E0AA
:10411000742810D07A280FD10DE044F400140AE07E
:1041200044F4801401E044F440146978814202D1DF
:104130006D1C04F580146D1C2A786E2A20D00DDCCD
:10414000632A33D005DC002A6FD0582A12D1A4E0AC
:1041500011E0642A6AD0692A0CD167E0732A2FD053
:1041600004DC6F2A6FD0702A04D19BE0752A6BD0D3
:10417000782A6AD01046DDE90F129047761C52E18A
:10418000C4F30250022806D003280AD0042801CF25
:104190000AD0066047E101CF4FEAE671C0E900614D
:1041A00041E101CF06803EE106703CE117F8040BC7
:1041B0008DF8000000208DF80100EB46012003E09F
:1041C00057F804BB4FF0FF3061074FF0000102D4F5
:1041D0000DE008F10101884649450FDA8045F8DB1A
:1041E0001BF808100029F4D108E008F10101884605
:1041F0008142FADB1BF808100029F6D1DDE90F2314
:10420000AAEB08008146214600F03FF9304400EB5C
:10421000080604E0DDE90F121BF8010B9047B8F126
:104220000108F7D221464846F8E001E10A21C4F32B
:1042300002534FF0000B0891022B07D001CFC1179A
:10424000032B09D00AE036E023E024E0FF1D27F02D
:104250000707F7E8020105E000B2C117042B01D1FE
:1042600040B2C117002907DA4FF0000CD0EB0C0068
:104270006CEB01012D2302E0230504D52B238DF8DF
:104280002430012303E0E30701D02023F7E7984619
:1042900052E00A2110E010210EE010204FF0000B38
:1042A00008900CE010214FF0000B44F004044FF094
:1042B0000809089103E008214FF0000B0891C4F3AE
:1042C0000253022B04D001CF0021032B06D006E0BD
:1042D000FF1D27F00707F7E8020103E080B2042B77
:1042E00000D1C0B24FF00008230725D5702A2AD08C
:1042F000DDF820C08CF0100C5CEA0B0C09D150EA00
:10430000010306D030238DF824308DF825200223B8
:104310009846DDF820C08CF0080C5CEA0B0C0BD141
:1043200050EA010301D1630706D530238DF824300C
:104330004FF00108A9F10109582A09D03FA20B92B8
:1043400008AA0A9211E040238DF824300123DFE708
:104350003FA2F4E75B46089AFBF7B1FF0B9B9B5C1F
:104360000A9AA2F101020A92137050EA0102F1D1F5
:104370000A98ADEB000000F1200B600702D524F491
:10438000803401E04FF00109D94502DDA9EB0B00B3
:1043900000E0002000EB0B0141440890AAEB010073
:1043A0000B90E00306D4DDE90F2321460B9800F0C3
:1043B0006CF806444FF000090DF1240A07E0DDE92E
:1043C0000F121AF809009047761C09F10109C1453E
:1043D000F5DBE0030CD5DDE90F2321460B9800F057
:1043E00054F8064404E0DDE90F1230209047761CB3
:1043F0000899481E08900029F5DC08E00A980A99F7
:104400000078491C0A91DDE90F129047761CBBF138
:104410000001ABF1010BF1DC0B982146DDE90F2324
:1044200000F020F806446D1C287800287FF419AEAF
:1044300011B03046BDE8F08F092801003031323329
:1044400034353637383961626364656600000000D0
:1044500030313233343536373839414243444546BA
:10446000000000002DE9F041044600251E461746D5
:10447000880405D406E039462020B04705F101053F
:10448000641EF8D52846BDE8F0812DE9F0410446C8
:1044900000251E469046C80301D5302700E020279E
:1044A000880405D506E041463846B04705F10105C8
:1044B000641EF8D52846BDE8F0810A68531C0B60DD
:1044C000107070471FB5416A064B0122CDE90013F9
:1044D000CDE9021200F12B031946034A01F0AAFBB1
:1044E00004B010BD76AE000870AE00087CB504467E
:1044F000406A002831D0007900282ED02434E07999
:104500008DF80000207A8DF80100607A8DF80200A5
:10451000A07A8DF80300E07A8DF80400207B8DF8F6
:10452000050054F82409D1F80E208D69037908316B
:10453000012B13D0022B01D143797BB10068824259
:104540000BD106226846FBF7ADFE002805D0606A55
:10455000007A78B1204600F015F87CBD00688242F0
:10456000F8D08542F9D106226846FBF79BFE002869
:10457000F0D17CBD2046FFF7A5FF616A6420087278
:104580007CBD00002DE9F04105460027446A02F099
:1045900065FD10B1284602F07DFD00266E60AE601C
:1045A000EE6044B32671E6806671266084F8086088
:1045B000B5F82F00164E304402F032F802F0BEFD7E
:1045C000696A497A0844134980B20843B04201D26B
:1045D00000F57E401049884201D9A0F57E4002F0E6
:1045E0001FF82060607A401C6072284600F016F8C0
:1045F0003846BDE8F0810A2002F0B0FB040004D088
:104600002660666026816C62D2E74FF0FF30F0E7EB
:104610000001FEA90000FEA9FFFEFEA910B550F89A
:10462000241F01220A7100224A71C27A037B447A54
:1046300042EA0362837A00681B0443EA04231A43B4
:1046400000B1407A10440A22B0FBF2F302FB1300DF
:10465000C880487A0A2802D94FF41670C88010BD65
:1046600010B504460A464078012304F1300101F0F8
:1046700092F908B1032010BDB4F82E02A0F52A412A
:10468000553901D0022010BD94F86600B4F86710C7
:1046900040EA01210848B0EB012F08D094F88210BD
:1046A000B4F8832041EA0221B0EB012F01D10020B0
:1046B00010BD012010BD0000004641542DE9F04717
:1046C0000B46016815460A78303A092A08D84C7812
:1046D0003A2C05D1891C016012B10B20BDE8F0878E
:1046E000764804681C609CB1207820B1607801F0A5
:1046F00065F9C1070ED04FF0000984F800904846D4
:1047000084F8019001F020F9C10708D00320E5E703
:104710000C20E3E70DB1400704D40020DEE71DB113
:10472000400701D50A20D9E700210D462046FFF7B2
:1047300097FF01280CD104F5F7700179F1B3017AE4
:10474000D0F8090041EA002529462046FFF788FFF6
:10475000032801D090BB01E00120BFE7B4F83B0083
:10476000B0F5007F57D1B4F8460028B994F854004A
:10477000D4F8551040EA0120E06194F840108446D6
:10478000E170012901D0022945D1484394F83D1038
:10479000A17099B14B1E19423DD1B4F8412022813C
:1047A000130738D1B4F843602EB994F85030D4F8D8
:1047B000516043EA0626E38F03B100E02BE01F18A7
:1047C00007EB1217BE4226D3F61BB6FBF1F111B36D
:1047D000012640F6F678414500D302264FF6F678DA
:1047E000414500D303262F44891C2B44A762236232
:1047F000A161032E11D072B118446062022E17D04D
:1048000001F0010001EB410100EB510000F2FF104B
:10481000BCEB502F0ED20D2060E7002AFBD194F89C
:104820005C00D4F85D2040EA022060628800EDE779
:104830004800EBE74FF0FF30C4E903904F46032EEA
:1048400031D16771B4F86000012342196261607868
:1048500004F1300101F09FF828BBB4F82E02A0F556
:104860002A4155391FD194F83000D4F8311040EA6C
:1048700001201349884216D194F81402D4F8151275
:1048800040EA01200F4988420DD194F81C02D4F867
:104890001D1240EA0120E06094F81802D4F81912C1
:1048A00040EA0120206105492670091F0888401C44
:1048B0000880E080E76227712FE700004C040020A9
:1048C00052526141727241618269891E921E8A420E
:1048D00001D800207047826A807801FB0020704771
:1048E0002DE9F0410F00064606D001F039FE0228FE
:1048F00009D20120BDE8F081F46814B1B069A0428A
:1049000005D8012403E0B1698142F3D83C4625462D
:10491000B0696D1CA84202D80225022C0AD3294690
:10492000304601F01DFE38B1411CE3D00128E1D032
:10493000A542EDD10020DDE76FF0704229463046F8
:1049400002F07AFF30B957B12A463946304602F0B4
:1049500073FF20B101280BD001252846CAE7F56076
:104960003069411CF9D0401E306101207071F4E7BC
:104970004FF0FF35F1E700002DE9F04784698946E3
:104980000B222021204602F0BBFA00200346D9F872
:1049900000701A460825395C401C20294CD92F2963
:1049A0004AD05C2948D02E2901D0AA4208D3082D2C
:1049B0004FD12E294DD108220B2599060B0EEAE77F
:1049C000802901D343F00303A1F181061E2E02D9F1
:1049D0005F3E1C2E13D83E5C401CA6F1400CBCF17F
:1049E0003F0F04D3A6F1800CBCF17D0F31D2A5F1AD
:1049F000010C62452DD2A154521CA6541AE021A6E6
:104A000000E0761C96F800C0BCF1000F02D08C4587
:104A1000F7D11EE0A1F14106192E02D843F002039E
:104A200007E0A1F16106192E03D8203943F00103F4
:104A3000C9B2A154521CAEE73E18C9F80060202943
:104A400001D8042000E000201AB12178E52903D024
:104A500004E00620BDE8F08705212170082D01D172
:104A600099060B0E03F00301012901D140F010005B
:104A7000C3F38101012901D140F00800E072002058
:104A8000E8E70000222A2B2C3A3B3C3D3E3F5B5D91
:104A90007C7F000000280BD0026A002A08D0937C9B
:104AA000082B05D10968926A914201D100F034B90E
:104AB000704700002DE9FC41050062D02C6A002CF3
:104AC0005FD0A06C4FF03C01471C4FF480364FF68E
:104AD000FF724FF001030AD01E30B0FBF1F0B0427C
:104AE00000D310460004000C208400D12384E06C25
:104AF000471C0AD01E30B0FBF1F1B14200D3114681
:104B00000804000C608400D1638414F12C0000D0F0
:104B1000E06A009070B902F011FB000E7F2802D805
:104B20004FF07F4003E0C0280BD36FF0FF0001F08F
:104B300077FD009014F1300000D0206B019010B18F
:104B40000BE01148F3E7A06A0099084001900120AA
:104B500001F066FD01990843019004F128012846FF
:104B600002F0A6FA6946284602F0D6FA01A92846BC
:104B700002F099FA284602F0D3FA0A21204600F002
:104B800019FDBDE8FC8100000000FFFF70B5046A5C
:104B900005460821204600F00DFD002204F1280101
:104BA000284600F0FFFFE07C401CE0740120E08319
:104BB00070BD0000164810B5046825E0216A11B3E5
:104BC000488C421E4A84012806D0226A118C481E55
:104BD000108401290CD016E0216A2046897C012925
:104BE00003D00A2901D005290DD100F08FFA0AE07F
:104BF000216A2046897C012903D00A2901D0052990
:104C000001D100F013FC2468002CD7D110BD0000A6
:104C1000DC01002070B506000DD0346A74B10022AA
:104C20004FF49A71104602F08EFA606148B1E27C4E
:104C300037494AB10BE06FF0090070BD6FF0080012
:104C400070BD4FF0FF3070BD0A68521C0A600968E1
:104C5000216041680120A1610870A16900254870A8
:104C6000A16906208870A069C570206801F0D8FC91
:104C7000A1694860A0690581A0694581A069C560F6
:104C8000A07C0A2803D0052801D0042802D1A169FC
:104C90007068C860A0695FF000010561A0694561A6
:104CA000A069856196F82A00884203D9701890F8A7
:104CB0002B0000E0002001F11C02A369491C89B20D
:104CC00098541029EED3002000F12C01A269401C59
:104CD00080B255544028F7D35FF0000000F16C011A
:104CE000A269401C80B255548028F7D3094801F0CE
:104CF00097FCA169C1F8EC00A5830020A26900F12E
:104D0000F0015054401C80B24428F7D3002070BDFD
:104D1000C401002063538263F8B5046A06460C217F
:104D2000204600F047FC3046FFF774FF050027D10E
:104D300001223521204600F087F90421204600F0A9
:104D400093F904223221204600F07EF9A06A02F095
:104D5000F5F90146204600F08FF9204600F0BEF933
:104D6000A08BF03081B2606902F09CFB0096432377
:104D7000074A6169606805F089FA304600F00AF870
:104D8000E07C401CE0741420E0832846F8BD00005D
:104D90006CAE000810B5002809D0046A002C06D0BB
:104DA000606908B102F0FFFA00206061A06110BDE7
:104DB000F8B50546046A304806210068A06220461E
:104DC00000F0F8FB2846FFF725FF060039D1012245
:104DD0003521204600F038F90121204600F044F941
:104DE00002223921204600F02FF9298D204600F0BB
:104DF00064F904223721204600F026F901212046DB
:104E000000F032F90321204600F02EF91C21204643
:104E100000F02AF90621204600F026F9204600F08D
:104E20005DF9A08BF03081B2606902F03BFB009528
:104E30004323124A6169606805F028FA2846FFF7A3
:104E4000A9FFE07C401CC0B2E074062802D2012118
:104E5000814000E03C2101EB4100C0EBC1104FF666
:104E6000FF7101EAC00000F2F3104FF4FA71B0FBD9
:104E7000F1F0E0833046F8BD68AE00086CAE000883
:104E800070B50B48002504680EE0206A58B1C18B4C
:104E9000012903D9A1F10101C18304E003D1C58334
:104EA000204600F0F4FB2468002CEED170BD000019
:104EB000DC01002070B504468068002510B101F0C7
:104EC0000FFFA560E068002803D001F009FFE5604E
:104ED000258270BD01784278090641EA0241827854
:104EE000C07841EA02210843704770B5C3680024C6
:104EF00073B3068A66B3002210E0342D03D08D42CE
:104F000006D1981870BD921C92B29C5C521C04E0B1
:104F1000521C92B29D5C521C2A4492B2964202D913
:104F20009D5CFF2DE9D19CB1012C07D08068022C3B
:104F300000F12C0006D0C023002212E080686C3003
:104F40008023F9E74023F7E78C4202D1104470BD7B
:104F50000AE0521C92B2845C521C224492B29A42E1
:104F600002D2845CFF2CEFD10020F0E770B5046A18
:104F700000203321E062206360632046FFF7B5FF25
:104F800018B1801CFFF7A6FF60643A212046FFF7A6
:104F9000ACFF18B1801CFFF79DFF01E0606C40087A
:104FA000A0643B212046FFF7A0FF18B1801CFFF74B
:104FB00091FF00E0606CE064A06810F1100131D056
:104FC0000069A06201212046FFF78FFF28B1801CF5
:104FD000FFF780FF01F024FBE06203212046FFF78A
:104FE00084FF28B1801CFFF775FF01F019FB2063D7
:104FF0001C212046FFF779FF28B1801CFFF76AFFCC
:1050000001F00EFB606306212046FFF76EFF0600ED
:1050100019D070788008A063022801D90220A0630B
:1050200000250DE00020CCE706EB8500801CFFF793
:1050300051FF01F0F5FA04EB85016D1CEDB2C86378
:10504000A06BA842F0D870BD10B5838B84691C4456
:105050005B1C838384F8F010818B83690B44491CAB
:10506000818383F8F02010BD828B83691344521C26
:10507000828383F8F010704710B5828B84690B0E21
:105080001444521C828384F8F030828B84690B0CA8
:105090001444521C828384F8F030828B84690B0A9A
:1050A0001444521C828384F8F030828B8369134449
:1050B000521C828383F8F01010BD10B5828B846976
:1050C0000B0A1444521C828384F8F030828B83696B
:1050D0001344521C828383F8F01010BD002814D0B2
:1050E000818B8369FF220B44491C818383F8F02064
:1050F000002205E083690B44491C818383F8F0207A
:10510000818B4429F6D38B07F4D17047F8B5046A34
:1051100005460421204600F04DFA2846FFF77AFDA7
:10512000060024D1012235212046FFF78DFF0321FF
:105130002046FFF799FF022239212046FFF784FF1E
:10514000298D2046FFF7B9FF2046FFF7C7FFA08B48
:10515000F03081B2606902F0A5F9009543230F4A4F
:105160006169606805F092F82846FFF713FEE07C5D
:10517000401CC0B2E0740A2803D24FF47A7148434D
:1051800001E042F2107080B200F2F3104FF4FA71B5
:10519000B0FBF1F0E0833046F8BD00006CAE0008D3
:1051A000F8B5046A06460321204600F003FA3046AB
:1051B000FFF730FD050031D1012235212046FFF7F0
:1051C00043FF03212046FFF74FFF022239212046EB
:1051D000FFF73AFF4FF410712046FFF76EFF0422ED
:1051E00032212046FFF730FFA06A01F0A7FF0146F9
:1051F0002046FFF741FF2046FFF770FFA08BF030FD
:1052000081B2606902F04EF9009643230E4A61694B
:10521000606805F03BF83046FFF7BCFDE07C401CC1
:10522000C0B2E0740A2803D24FF47A71484301E017
:1052300042F2107080B200F2F3104FF4FA71B0FB3A
:10524000F1F0E0832846F8BD6CAE00082DE9F0418E
:105250000446056A5089516816462C287FD3087881
:1052600002287CD1002094F82A2008E023180F1887
:1052700093F82B303F7FBB4271D1401CC0B28242B9
:10528000F4D8486801F05AFF2968884267D131464E
:10529000284600F040FA002861D135212846FFF762
:1052A00024FE00285BD080780027052804D006283B
:1052B00019D0022839D052E0A87C012806D0032852
:1052C0000CD004280AD0052808D048E02046FFF773
:1052D0004DFEEF832046FFF759FC40E0EF83204668
:1052E000FFF7E8FB3BE0A87C032805D0012803D0AA
:1052F000042801D0052832D1EF832046276A01F027
:10530000C9FE1C49204601F0D3FE1A49204601F08F
:10531000CAFE1849204601F0FFFE0C21384600F075
:1053200049F92046FFF744FD19E0A87C062816D16C
:10533000EF832746246A36212046FFF7D6FD70B159
:10534000801CFFF7C7FD01F06BF96062A06810F1E7
:1053500010010CD00069A062384600F0AFF8284672
:10536000FFF7A8FD3046BDE8F04102F01CB8002070
:10537000F1E7000068AE0008F8B5046A05460D21A3
:10538000204600F017F900206062E062A0626063CE
:105390002063E064A0646064A0632846FFF73AFCE1
:1053A00006001CD1012235212046FFF74DFE0721C2
:1053B0002046FFF759FE2046FFF790FEA08BF03005
:1053C00081B2606902F06EF80095432304F1240273
:1053D0006169606804F05AFF2846FFF7DBFCE07C57
:1053E000401CC0B2E0740A2803D24FF47A714843DB
:1053F00001E042F2107080B200F2F3104FF4FA7143
:10540000B0FBF1F0E083284601F044FE064928464F
:1054100001F04EFE0449284601F045FE02492846A7
:1054200001F07AFE3046F8BD68AE0008F8B5046AAF
:1054300005460521204600F0BDF82846FFF7EAFBA7
:10544000060025D1012235212046FFF7FDFD03216D
:105450002046FFF709FE022239212046FFF7F4FD1E
:10546000298D2046FFF729FE2046FFF737FEA08B47
:10547000F03081B2606902F015F80095432304F121
:1054800024026169606804F001FF2846FFF782FC8E
:10549000E07C401CC0B2E0740A2803D24FF4FA61E9
:1054A000484301E044F6206080B200F2F3104FF46C
:1054B000FA71B0FBF1F0E0833046F8BDF8B5046A4C
:1054C00005460121204600F075F82846FFF7A2FBAB
:1054D000060051D1012235212046FFF7B5FD0321F9
:1054E0002046FFF7C1FD022239212046FFF7ACFD1F
:1054F000298D2046FFF7E1FD042232212046FFF7E7
:10550000A3FDA06A01F01AFE01462046FFF7B4FD94
:10551000042236212046FFF797FD606A01F00EFE57
:1055200001462046FFF7A8FD042237212046FFF759
:105530008BFD01212046FFF797FD03212046FFF751
:1055400093FD1C212046FFF78FFD06212046FFF723
:105550008BFD2046FFF7C2FDA08BF03081B2606961
:1055600001F0A0FF00954323114A6169606804F0CF
:105570008DFE2846FFF70EFCE07C401CC0B2E074B4
:10558000062802D20121814000E03C2101EB4100CC
:10559000C0EBC1104FF6FF7101EAC00000F2F3103A
:1055A0004FF4FA71B0FBF1F0E0833046F8BD000033
:1055B0006CAE0008827C8A4202D081740021C174E2
:1055C0007047000070B5040030D094F83100256AAF
:1055D00020F0080084F83100208D4FF0FF36B0F540
:1055E000107F21D32DB3686808B104F021FE50214B
:1055F0002846FAF740FE04F00BFE686000B3442230
:10560000154904F0DDFC43221349686804F006FDE7
:1056100022461249686804F008FE2046FFF7C8FBDE
:10562000A0B1204600F01CF8304670BD6FF00900B4
:1056300070BD502001F092FB0500F5D02562D6E741
:10564000284601F04DFB00202062EDE714F8311FE1
:1056500041F00801217070BD68AE00084D5200088D
:1056600070B5056A040011D094F83100002D20F0C7
:10567000080084F8310009D06868002610B104F0F1
:10568000D7FD6E60284601F02BFB266270BD10B579
:10569000026A0446917C0C2913D0062911D00129F5
:1056A00013D008291ED0052928D004292AD003297F
:1056B00030D1D07C022813D22046BDE81040FFF73D
:1056C0006FBDBDE81040FFF773BBD07C052804D840
:1056D0002046BDE81040FFF7F1BE2046FFF74CFE24
:1056E0002046EEE7D07C0128204603D8BDE81040D4
:1056F000FFF74CBABDE81040FFF7DCB9BDE8104039
:10570000FFF794BED07C0828E7D82046BDE81040BB
:10571000FFF7FCBC10BD2DE9F0410E46040022D07D
:10572000FFF7C8FB308900256F1EF02806D9F03836
:1057300080B2208201F012FBE060B8B1F02001F0ED
:105740000DFBA060010013D00023F022304601F0D1
:10575000F6FDE16821B1228AF023304601F0EFFD29
:105760000020BDE8F0816FF00900FAE7258205E02E
:10577000E06818B101F0B4FAE560F7E73846F0E701
:105780002DE9F0410446C0880F46401C0604360C43
:105790002DD0206958B331075ED1401C2061E168EB
:1057A000206829B18278521E12EA161F04D053E0F5
:1057B0000089B0421BD94FE000F0D2FE0546012817
:1057C0001AD9681C33D020688169A9423ED877B1C4
:1057D000E168FFF785F805000CD0012D0CD0681C9E
:1057E00025D00021206801F0DBFB00BB06E004208F
:1057F000BDE8F0810720FBE70220F9E720684FF4BD
:1058000000723030002101F07BFB29462068FFF751
:105810005BF8216800274FF00108C8620FE000BF65
:1058200080F804800021206801F0BAFB08B1012053
:10583000DEE72068C16A491C7F1CFFB2C162206894
:105840008178B942ECD8C16AC91BC162E5602946BA
:105850002068FFF739F82061E68006F00F0130225A
:10586000206802EB4111084460610020C0E770B578
:105870000446002100F029F80EE02169206801F0BB
:105880008FFB05001FD160690078E52807D030B193
:1058900001212046FFF774FF0500EED013E02169D7
:1058A000206801F07DFB05000DD1666920220021F2
:1058B000304601F025FB0B223046A16901F006FAC3
:1058C000206801210171284670BD70B50D46C18068
:1058D0008168044601291ED0206882698A421AD94B
:1058E00021B90278032A04D1416A11B180780601F6
:1058F00017E0E1600189A9420DD9406A17E02068EC
:1059000000F02EFE0146401C07D0022903D3206878
:105910008069884203D8022070BD012070BDA81B99
:1059200085B2B542EBD2E1602068FEF7CDFF00EB17
:105930001510206105F00F013022206802EB4111A3
:1059400008446061002070BD08B54FF4C060FCF7EA
:1059500017F931208DF8000000208DF801008DF836
:10596000020001208DF803006846FCF7D7F8FCF729
:10597000A3FD08BD0020012906D0022907D0032974
:1059800001D12021116070474FF40031FAE74FF444
:10599000007111807047084610B5510201235A0268
:1059A000FDF71EF8FDF7AAF80446FCF778FD00287D
:1059B000FBD10CB1012010BD002010BD002800D08B
:1059C00001207047084610B5510201235A02FDF725
:1059D000C1F8FDF7A7F80446FCF761FD0028FBD1EC
:1059E0000CB1012010BD002010BD00002DE9F843CE
:1059F00091468846060074D0B9F80A002A286DD36B
:105A0000D9F80450012005F10E0400F00BFE2188A6
:105A1000884263D140F2046000F004FEA18888420D
:105A20005CD14FF4006000F0FDFD6188884255D1E3
:105A300040F6060000F0F6FDA98988424ED12146C5
:105A40003046FEF753FDD4F80E000090A16970684F
:105A500020B1814202D101273B4601E000273B46AD
:105A600004F108026946304604F0E6FCE08800F0E4
:105A7000D9FD012802D0022830D12BE04FB30220FB
:105A800000F0D0FDE080D4F80E00A0617068C4F88A
:105A90000E00706A062118B1007908B1124801E0C1
:105AA00004F108000246491E11F0FF0104EB010059
:105AB000037A8374535C6B5418F80130037205EB5E
:105AC000010318F801009871EDD1B26949463046DA
:105AD000904703E069463046FEF7DCFF484601F098
