:020000040800F2
:10800000C06E01207D830008318700088783000847
:10801000358700083787000839870008000000000E
:10802000000000000000000000000000998100082E
:108030003D87000800000000C98100084187000852
:10804000A7830008A7830008A7830008A783000868
:10805000A7830008A7830008A7830008A783000858
:10806000A7830008A7830008A7830008A783000848
:10807000A7830008A7830008A7830008A783000838
:1080800005880008AF870008A7830008A7830008B9
:10809000A7830008A7830008A78300084188000879
:1080A000A7830008A7830008A7830008A783000808
:1080B000A7830008A7830008A7830008A7830008F8
:1080C000A7830008A7830008A7830008A7830008E8
:1080D000A7830008A7830008A783000887870008F4
:1080E000A78300085F880008A7830008A78300080B
:1080F000A7830008A7830008A7830008A7830008B8
:10810000A7830008AB870008A7830008A78300089F
:10811000A7830008A7830008A7830008A783000897
:10812000A7830008A7830008A783000887880008A2
:10813000A78300084F870008A7830008A7830008CB
:10814000A7830008A7830008A7830008A783000867
:10815000A7830008A7830008A7830008A783000857
:10816000A7830008A7830008A7830008A783000847
:10817000A7830008A7830008A7830008A783000837
:10818000A7830008DFF80CD014F0BEF900480047C0
:10819000F5850008C06E0120194B19680868B0E821
:1081A000F00F80F309884FF0000080F311884EF043
:1081B0000D0E70470000000002480068006880F360
:1081C000088800DF08ED00E0EFF309800C4B1A6827
:1081D00020E9F00F106008B54FF0BF0080F3118860
:1081E0000FF0CBFC4FF0000080F31188BDE8084091
:1081F00019680868B0E8F00F80F30988704700BF7D
:108200000005002001B44FF0BF0080F3118801BCCD
:10821000704701B44FF0000080F3118801BC704733
:108220004D4810B5016841F0010101604A4A002142
:10823000083211600268494B1A400260031D484A27
:108240001A60026822F48022026043480C30016008
:1082500000F03BF843494FF00060086010BD70B576
:108260003D4C08342068404A10F00C013F4804D0CF
:108270003F4D042903D0082903D002601BE00560AC
:1082800019E03549091D0B68C3F380560B6803F0EC
:108290003F0316B1B5FBF3F201E0B2FBF3F20B685A
:1082A0000968C3F388135A43C1F30141491C4900CB
:1082B000B2FBF1F1016021682C4AC1F30311121DD8
:1082C000515C0268CA40026070BD0CB500212248B2
:1082D00001910091026842F4803202604FF4A06381
:1082E000026802F400320092019A521C0192009A34
:1082F00012B9019A9A42F3D10268920329D5012159
:108300000091154908310A680A600A6842F400427F
:108310000A600A6842F4A0520A600B1F154A1A60EC
:10832000026842F08072026002689201FCD5124A33
:1083300040F203701060086820F0030008600868CD
:1083400040F0020008600868C0F381000228FAD1FA
:108350000CBD00910CBD000000380240FFFFF6FE8E
:108360001030002408ED00E00024F400000000209C
:1083700040787D01193C4005003C02400A48804796
:108380000A480047FEE71EF0040F0CBFEFF3088019
:10839000EFF3098003F037BA7047FEE7FEE7FEE728
:1083A000FEE7FEE7FEE7FEE7218200088581000880
:1083B000002002F09DFABF4FDFF8FC82DFF8FCA23C
:1083C000DFF8FCB2BF4C42F210760025A06B03F040
:1083D00002FEA06B03F0D1FD216BA06B01F596713D
:1083E000884206D36169062903D1206302200EF07A
:1083F0004EFCE169A06B01F57A71884245D3E061DA
:1084000003200EF044FCE068012806D0606B401C9D
:108410006063B0F5167F0AD00FE0012065630EF0AF
:1084200036FCA948007840B904F034FA05E005208C
:1084300002F05EFAA54805606563A068012802D1D4
:1084400000200EF024FC6069411E042901D2401C6A
:108450006061052812D102200EF007FC00200EF00A
:108460000DFC01200EF00AFC03200EF007FC03F0C7
:108470004FFC03F05BFA6069401C606120690528CD
:1084800003DBA56003F0EAFBA560616AA06B3144E1
:10849000884202D3606203F03BFCA169A06B3144C7
:1084A00088420ED3E560A06103F0F0FC2069052846
:1084B00005DA401CA5602061854800F060FA04F0F0
:1084C0006EF9607880B1E06A20B9A06BE0620420A8
:1084D0000EF0CBFBE06AA16B3044814204D3E5622D
:1084E000657004200EF0CAFBA06AA16B384481427B
:1084F0000FD3A16201F072FFDFF8D091D9F800002C
:1085000038B903F005FC002172480CF047FCC9F8AB
:108510000000226AA06B02EB0801884243D320626C
:108520009AF80000012802D1082003F0A9F99BF86D
:108530000000012802D1022003F0A2F96648007869
:10854000012802D1042003F09BF9DFF8909199F8FB
:108550000000012802D10B2003F092F96048007856
:10856000012802D10C2003F08BF95B488AF80050F7
:108570008BF8005005705A4889F800500570606803
:10858000012806D002280EDB401C60600E2807D0B0
:1085900009E002F0FFFC04F073F90220606002E0E1
:1085A000656002F041FD01200EF0C9FB0028207833
:1085B00010D010B103F006FB257000200EF0BFFBB9
:1085C0000028606909D0411E04290AD2656102F0C1
:1085D00028FA0BE0401C2070EFE738B901206061F9
:1085E00004E0062802D1656103F0DFFA01200FF0F4
:1085F00058FAEBE61FB54FF4004108030BF0E7F91A
:1086000003F06CFB03F0B8FA03F05EFB02F033FDFD
:1086100000F067FA03F04CFA02F07AFB03F081FBFA
:1086200003F0A0FB0DF0BEF803F014F803F070FBAC
:1086300003F077FC01F0F3FE00200AF002F809F0E5
:108640005BFF02F0C4FC00240420CDE90004060214
:1086500002942346324623A1264803940FF08CF857
:108660000120CDE9000400230294802222A1AFF270
:10867000BF2003940FF080F80525CDE90054029443
:10868000002380221FA1244803940FF075F8CDE940
:10869000005402940023324620A1244803940FF092
:1086A0006BF80FF035FBFEE70648816B491C8163D0
:1086B00070470000C0D40100E0930400680000206F
:1086C000690000201400002004010020A8040020FC
:1086D00053010020E02B01206A0000206B000020E5
:1086E0006C000020416E616C797369735F54617333
:1086F0006B000000C9BD000854696D655F5461736B
:108700006B00000055736172745F446D615F416E70
:10871000616C797369730000CD88000845746865E1
:10872000726E65745461736B00000000BB22010817
:108730007047FEE7FEE7FEE7FEE7704770477047C9
:1087400010B5FFF7B1FFBDE810400FF049BC08B508
:108750000020009040200CF0AEFE012806D14B48CE
:1087600000236A46194600680EF0F4FE40200CF023
:10877000BEFE4FF480300CF0BAFE0098002801D005
:108780000FF018FC08BD70B5414D40F2277421462A
:1087900028460BF0B6F8002806D021462846BDE84A
:1087A000704000220BF08BB870BD0EF0A3B910B56D
:1087B000384C002120460AF03EF9374920460AF09D
:1087C000E8F936490A68521C0A60092A01DC104699
:1087D00001E0002008603249096888420EDA314918
:1087E00000EB400001EBC00218212F4800F0BDF85B
:1087F0002046BDE8104001210AF01DB92B49012097
:10880000087010BD70B52348294918380AF0C1F91D
:10881000284D28781830F02811D8284C26481822DE
:1088200021680844264913F0A1FD20681830206013
:10883000297818312970F02801D10020206070BDFE
:1088400010B520200BF096FF002807D01D4901200D
:108850000870BDE8104020200BF09ABF10BD10B585
:108860004FF4805420460BF0ECFE00280AD0164945
:108870000120086020460BF0FCFE6001BDE81040BE
:108880000BF086BF10BD0EF07BB90000680400201D
:1088900000480040A06002400080202054000020DA
:1088A00058000020A0050020900600205000002065
:1088B0000088002051000020C00600205C0000203D
:1088C000A806002015000020180000200025E84E12
:1088D000E84CA8466378182B39D3A0780746401C8B
:1088E000C1B2F02901D3F039C9B2BA1CD2B2F02A10
:1088F00001D3F03AD2B2F75DFF2F05D1715CFE29AA
:1089000002D1B15C152906D0A0705B1EDA496370F4
:108910000520086016E0D64A0020F0324746A178CC
:10892000735C491C1354C9B2A17063785B1E6370F9
:10893000F02900D1A770401C1828F0DBCC48F0309B
:1089400000F0A6F9A078F02801D184F8028040F662
:10895000A66095FBF0F100FB115008B902F023FC72
:1089600008206D1C0FF09DF8B4E710B5002303E05C
:10897000D45CC4545B1C9BB28B42F9D310BD70B560
:108980000246BD480068052824DABA4CBB4D1821C0
:10899000A06800EB400005EBC000FFF7E6FFA06811
:1089A0000026401CA060092800DDA6602078002871
:1089B00010D06068182100EB400005EBC002AC4805
:1089C0003038FFF7D2FF2670BDE870400121AC4877
:1089D0000AF031B870BD2DE9F04387B001210820BD
:1089E0000AF026FB012148040AF040FBDFF89492CC
:1089F0000722052148460AF0D6F9072206214846F3
:108A00000AF0D1F902268DF8086003278DF8097065
:108A1000002420208DF80A40012501908DF80B508C
:108A200001A948460AF036F94020019001A94846BC
:108A30000AF030F94FF4E1300390ADF814400C2007
:108A4000DFF84482ADF81040ADF81600ADF81240E2
:108A5000ADF8184003A940460AF021FE012148055F
:108A60000AF0E6FA854808F104013C38416009152E
:108A7000C0E90541C46139040462C0E90941C0E9A3
:108A80000B4744638463012140460AF079FE1120BC
:108A90008DF800008DF801608DF802508DF80350BC
:108AA00068460AF064FF10208DF800008DF8016020
:108AB0008DF802608DF8035068460AF058FF6D4843
:108AC00080211030016005718471C57101464846EE
:108AD0000AF0E0F8802148460AF056F907B0BDE8F0
:108AE000F0832DE9F041FFF776FF654F384609F036
:108AF000E1FE624C4FF000653C3C40202560E060A8
:108B0000182604F596702661A0602146384609F0C3
:108B100059FF0122102138460AF002F85A4F01226B
:108B2000802138460AF0C3FE402138460AF0E6FEAE
:108B3000DFF84C81A8F11808404609F0BBFE002080
:108B40002560E060E814606204F5A2702661A06010
:108B50002146404609F036FF01221021404609F027
:108B6000DFFF0122402138460AF0A1FE4046BDE861
:108B7000F041012109F05FBF70B5F0213F4813F0CB
:108B80000EFC3B481821303813F009FC394C002505
:108B90003748656018211838A56013F000FCF021F3
:108BA000334813F0FCFB01202070E5606570A57070
:108BB00070BD2DE9FC472F4C0027324E10344FF08A
:108BC0008008012548B1012843D0022803D1FFF7CE
:108BD000D3FFFFF786FFBDE8FC87DFF8A4900022F3
:108BE000A9F118091021484609F09AFF274948467B
:108BF00009F0CFFF0021484609F01DFF8DF80470F1
:108C00002020022700908DF80770694630460AF050
:108C100041F840200090694630460AF03BF80021B8
:108C200019480AF0ADFD202130460AF0AFF8402186
:108C300030460AF0ABF8C4F800800E492571E771A0
:108C4000103130460AF026F8802130460AF09EF8AE
:108C5000C1E7C4F8008025710649A771E57110319C
:108C600030460AF017F8802130460AF08DF8B2E756
:108C7000C00600205000002024000020A005002095
:108C8000A0600240000C0240004400400088002028
:108C900070B5F94A002114461062037964790D46D3
:108CA000F12B06D0F22B13D0F32B19D0F42B35D0A7
:108CB0003DE0F2480668052E39DAF14A0121002C20
:108CC000116005600BD0BDE87040EE4801F018BDA2
:108CD000ED4A43189B7A5354491C0A29F9DB70BDAD
:108CE000EA4C012104EB01135A788A4212D1002286
:108CF0009D188618ED78367BB5420BD1072A06DB26
:108D000004EB0111827ACA72C07A187370BD521CCA
:108D1000082AEDDB491CFF29E4DD70BD002CFCD0E6
:108D200050F80A1F516340689063557170BDD84870
:108D3000D84C655CAB4209D100EBC300406880476A
:108D4000BDE870401521D44813F029BB491C0A29FD
:108D5000EFD391680029E9D110F833008342E5D1BF
:108D6000BDE8704001F0C8BC70B5CA499CB005466A
:108D7000002470220C31684613F0F8FAC74A1078C4
:108D8000002820D019208DF8050006208DF8090054
:108D900018208DF80A00024629460DF10B0013F049
:108DA000E5FABF4D4FF4FA7603E00120641C0EF0A3
:108DB00078FE012323226946286807F0C0FD0028B9
:108DC00001D0B442F1DB1CB070BD2DE9F0470026A4
:108DD000AD4FDFF8CC8282463446843F4FF4FA79B7
:108DE00004EB440007EB8005287A012814D1687A47
:108DF00090B16968D8F80000814204D10CE00120EC
:108E0000761C0EF04EFE012318225146686807F0CA
:108E100096FD08B14E45F2DB641C0B2CE0DB50469E
:108E2000BDE8F047A0E7944830B4006A9749C2789B
:108E300001EB02121378182B12D0837A5373C37884
:108E4000C27A01EB031301F580549A73C3780322AD
:108E5000E254C27801EB02118978817130BCB4E729
:108E600030BC704770B5844D286AC678C47AFFF765
:108E7000ACFF286A00793B2819D00D2C17D8002C9C
:108E800015D082490120082C08D801EB0611641E78
:108E90004A7B00FA04F31A434A7307E001EB061217
:108EA000093C917B00FA04F319439173687070BD1B
:108EB000714B30B4186A827AC478C17A002ACFD153
:108EC000724D0122082908D805EB0414491EA57B20
:108ED00002FA01F10D43A57309E00A2907D805EB51
:108EE00004140939E57B02FA01F10D43E5735A7068
:108EF00030BC6AE7B4E700B587B00021654A02914B
:108F0000103A039104910591D2E90212CDE90012C1
:108F10005E4901EB001050F8031FCDF80A104068BD
:108F2000CDF80E00684601F0EBFB07B000BD70B550
:108F3000514DE869AA68C179002A11D1534A02EB60
:108F40000114E27A0272227B4272E27A0AB9227B2F
:108F50003AB101F0D5FB0020A073E07301206870E6
:108F600070BDBDE870400846C5E72DE9F041424EAE
:108F70004C4A0025306AC478817A224492F83A201B
:108F800012B10279302A54D0404F07EB04125278C4
:108F9000A2424ED13C4B444A0C334EF6602853F863
:108FA00024C01268A2EB0C0CC44501D2082940D1A0
:108FB00043F82420FFF709FF306A0079302838D1C0
:108FC000DFF8E88005EBC50218F80200A04213D1D3
:108FD000314802EB0801C01E3062CA7807EB02126A
:108FE00092788271CA78C2710A7902718A79827222
:108FF000C979C17201F080FB6D1C642DE2DB02F0C7
:10900000B4F81D482A492C300470CA7802F5FA6277
:109010004270120A82700A79C2704A7902710A7823
:1090200042714A7882718978C171BDE8F04101F0DE
:10903000DDBBBDE8F081104B30B4186A1349C2782B
:1090400001EB02114C78944214D1847ACC72C07A2C
:1090500008731148C01E18623223C37004230371C1
:109060008B788371C271CA7A0272097B417230BCFB
:1090700001F046BBF4E60000680000202400002058
:109080001C0000209B010020FC4B00200209002056
:10909000F85E0020D0CA010826010020E601002069
:1090A00020020020C80700204C000020764200204B
:1090B000FC000020FE488168012901D1006A84E695
:1090C0007047F0B4FA490023FA4C8B62CD681A4617
:1090D00003EB430604EB86067668AE4200D11A46DF
:1090E0005B1C0B2BF4DB8A6202EB420204EB820274
:1090F000C861137AF04A012B09D08968012906D08A
:10910000007950280CD1D2F88402F0BC00470079D5
:1091100012F83010814203D102EBC0004068F4E73E
:10912000F0BC70472DE9F041E14DE4498046E86824
:1091300009680024884217D0B0B1DE4E4FF4FA77A8
:10914000A86A012300EB400006EB8000182240686B
:10915000414607F0F4FB00280AD0BC4208DA01209F
:10916000641C0EF09EFCEBE74046BDE8F041FBE5D9
:109170005FE770B5D248CE4C90F82C20E1692C30D6
:109180000A31521C13F037F9012508B1A068C8B1A3
:109190000020E071CB485021E061C17004210171D1
:1091A000E1798172FFF7BEFFE179C2480029A16A27
:1091B00001EB410100EB810006D04068BDE8704042
:1091C00005F0F6BFE571E5E7057270BD2DE9F041E8
:1091D000B74CBB4E0127E1692C368D7AA81F0728B2
:1091E0001BD2A068C8B10020E0716A1C30460A3169
:1091F00013F0BCF8B4480770B2485121E061C17067
:1092000004210171E17981726A1C31460B3013F03F
:10921000ADF8E069BDE8F04184E7E771ECE72DE9DE
:10922000F041A34E0024A748A84F2546C6F81C00CD
:1092300007EB04110878A04201D0FE2811D1F06993
:1092400002226D1C027111F8012B82718572327D30
:10925000C2720A68C2604A68026189684161FFF7A8
:1092600061FF641C1F2CE3DBE3E6914930B4CA695B
:10927000964B907903EB00142578854222D01F2865
:1092800020DA8D68F5B1207012F8060F03EB00109C
:10929000546840F8014F94684460D4688460127840
:1092A000002003EB021250734A69521C4A61C871D4
:1092B00084480322C861C27004220271C979817294
:1092C00030BC2FE70120F2E730B5421EFE2812D154
:1092D0001E227F4D02EB8204002305EB8404E55C33
:1092E0008D4202D10020E05430BD5B1C142BF6DB14
:1092F000FE2800D1521C2C2AEBDB30BD30B5421EBB
:10930000FE2811D11E22724D02EB8204002305EBD0
:109310008404E55C2DB15B1C142BFADBFE2802D023
:1093200002E0E15430BD521C2C2AECDB30BD2DE9AB
:10933000F05F5F4CE0698579FE2D3DD0634901EB1C
:1093400005100278AA4237D1A268A2B34FF00008F4
:1093500080F8008080F80D8060694FF0FE0B401EA1
:1093600001268A46A1F58859C4F8140009EB0617AE
:10937000B878A8420ED187F802B09AF80D10FE20F6
:10938000491C8AF80D107978FFF7B8FF79782846DC
:10939000FFF79AFF761CFF2EE8DD84F80780494826
:1093A0000521E061C170042101718571E17981724B
:1093B000BDE8F05FB6E6FFE70120E071EFE73C496A
:1093C00030B4CB698C68002298793CB11F2805DA4B
:1093D0003E4C04EB00142578854202D00120C87170
:1093E00008E053F80A0F44F8010F58686060986865
:1093F000A060CA713348C8610621C170042101719F
:10940000827230BC8EE602462E4807210171314936
:1094100001EB02118B788371C271CA7A02720A7BE6
:109420004272234A536BC0F80A30926BC0F80E2088
:10943000D1F80720C0F812200978817501F060B9D1
:109440002DE9F04110F8075F224910F8017C01EB8B
:109450000514214BA77001786170C178217000213B
:109460006173A173E17303225A55154AFE2F2A44F2
:1094700082F83A104168C4F803108168C4F80710F4
:109480008089A4F80B00114801D000EB0710417B44
:10949000491C417329463846FFF730FFE1780948F7
:1094A000034EEE2902D12179EE292ED0072115E0B5
:1094B00068000020784B0020F85E00202002002089
:1094C000C80700200B010020EB010020021A002039
:1094D000F21B00200209002002190020017187718F
:1094E000C571E17A0172217B4172716BC0F80A107B
:1094F000B16BC0F80E1001F003F91521FE4812F00F
:109500004EFF3069401C306193E52846FFF77BFF32
:10951000F3E72DE9F047F94C1421E069C779807928
:109520000546FE2801D10020FF21A2684FF0010965
:10953000012A22D1F24A02EB00121078A8421CD173
:10954000F04800EB07135B78BBB9527B8A4214D218
:109550000021E1710126804608EB0610417831B107
:10956000E1690822C01C0B3112F045FF28B1761CBE
:10957000FF2EF1DDE07918B105E084F8079002E0F4
:10958000E069FFF75DFFDC480721C01EE061C170A4
:10959000042101718571E1798172C772BDE8F047DC
:1095A000C0E510B50A46FE2900D10022D54B03EBD9
:1095B00000135C7884420AD19878884207D1D04859
:1095C00000EB02100078884201D1002010BD01207C
:1095D00010BD70B5C94CE0698679C579A0680128CD
:1095E00004D131462846FFF7DCFF78B10120E07155
:1095F000C1480821C01EE061C1700421017186715B
:10960000E1798172C572BDE870408BE5E06901F0D7
:109610007FF80020EBE72DE9F05FB849B94A4FF039
:109620001409C869C579807902EB0512044692F8DD
:1096300002804646B8F1FE0F00D10026FE2C02D172
:1096400000204FF0FF098A468968012924D1DFF8FC
:10965000B0B20BEB00173878A0421DD14146284626
:10966000FFF79FFFC0B97A7B4A4515D20BEB061076
:10967000417B491E4173A348294600EB05108470C5
:10968000787B401C78732046FFF738FE2946404619
:10969000FFF71AFE002100E0012197488AF8071021
:1096A000C01E0922CAF81C00C27004220271847113
:1096B0009AF807108172C572BDE8F05F32E5704715
:1096C000F0B48E4900220120C871CE698E4B40F261
:1096D000DC57D6F80A50B47B02EB420C13F81CC0DE
:1096E000BCF1000F15D0521CBA42F5DB82480426AB
:1096F000C01EC86106710D2602EB4202C67013F847
:1097000012208271C9798172C0F80B50C473F0BC09
:1097100008E5B77902EB420603F8167003EB46063C
:10972000C6F8015074710026CE718870DEE72DE90D
:10973000FC47724E0024744DF069A0468779827A06
:10974000D0F80A100091807B8DF804000120F071A0
:1097500040F2DC512AB3894604EB440015F810109E
:10976000B94207D105EB400005226946401C12F0C2
:1097700042FE20B3641C4C45EEDB5F480421C01E52
:10978000F06101710F21C1708771F17981720099C7
:10979000C0F80B109DF80410C173FFF7C3FCBDE8BF
:1097A000FC87404604EB440215F81230BB4201D15D
:1097B00005F81200641C8C42F4DBF071DDE704EB69
:1097C0004401404605F81180F7E72DE9F05FDFF826
:1097D0002C9100214C4AD9F81C000E460C46877982
:1097E000454840F2DC53C01EC9F81C0001EB41059E
:1097F00012F81550BD4200D1641C491C9942F5DB9A
:109800004FF0130B4CB300259246984605EB4502EA
:109810001AF81200B8421BD1D9F81C00761C0AEBCA
:10982000420180F804B087718672C4724A7802736C
:109830004A78344B03EB0212927842738A7882732F
:10984000CA78C2730A79027449794174FFF76AFCD5
:109850006D1C4545DADBBDE8F09F80F804B00021BF
:109860008172C172BDE8F05F5CE42DE9F05FDFF862
:109870008CB000218A46DBF81C004FF00109C57945
:10988000867AC77A214800BF01EBC102835CAB42F4
:1098900008D102445378B34204D19278BA4201D13C
:1098A0000AF1010A491CFF29EEDD00244FEA0008F5
:1098B00004EBC40118F80120AA4236D1414448788B
:1098C000B04232D18878B8422FD10B480D4BC01E20
:1098D0001622CBF81C00027180F80A9080F80BA0C9
:1098E0000573467387730A7AC273CA780274CA789A
:1098F00003EB021292780BE00E01002068000020BA
:10990000021A0020020900204E1F0020764200208B
:1099100042740A7982744A79C2748A790275C97963
:109920004175FFF7FFFB09F10109641CFF2CBFDD46
:1099300091E72DE9FC47FF4C0027E0698679C5795E
:10994000D0F80A100091C189ADF80410007C894656
:109950008DF80600804631462846FFF722FE012199
:10996000B0B1E171F44A1420E261D07004201071AA
:109970009671E0799072D5720020694615180B5CDB
:10998000401C2B730728F9DBE069FFF7CBFB06E7E8
:10999000EA4800BF07EBC702825C2AB17F1CFF2F99
:1099A000F8DD0020E071DDE707EBC70285540244D3
:1099B0000098C2F80100A2F8059082F80780E170D3
:1099C000EFE72DE9FC47DB4E0024DC4DF0694FF05A
:1099D000010AA04690F80690C779017BD0F80A20CA
:1099E0000092C289ADF80420007C8DF8060071B9A0
:1099F0004FEA080004EBC4016A5CBA4200D1685423
:109A0000641CFF2CF6DD00BF86F803A00EE004EB1B
:109A1000C400295CB94206D1284407226946401C8B
:109A200012F0E9FCC8B1641CFF2CF0DDC2480E2125
:109A3000F061C1700421017180F8069080F80A80FD
:109A4000C77200216A464418535C491C23730729D6
:109A5000F9DBF069FFF766FBA1E604EBC40105F84A
:109A60000180D1E7704770B5B24CE069C679817961
:109A7000857A3046FFF795FD01004FF0010008D1CF
:109A8000012D00D02DB9AE49314481F83A502070F3
:109A90000020E071A8482D21E061C170042101710E
:109AA000E1798172C6720573BDE87040FFF73ABB79
:109AB000A04AD069C179A048D0613422C170027136
:109AC000A04A02EB0112927882719D4A114491F8EA
:109AD0003A108172FFF726BB2DE9F05F00260825BA
:109AE000994930460FF0B1F800285CD1012297A1C6
:109AF00099480FF0C9F8002855D1DFF85CA2DFF8CB
:109B000034928D49DAF80C00C9F81C10401EC708C1
:109B100009F12C0BD9F818403AE0601C05FB00F164
:109B20008D480FF010FB83498C4B2A462C318A4814
:109B30000FF044F9D9F81C003621761C01718672A9
:109B4000BAF80C10DFF8FCC1491EC90801739BF874
:109B5000001081730CEB01115A4691F800C080F897
:109B60000FC089780174002102EB010C00EB0108A1
:109B70009CF801C0491C88F811C00729F4DBD9F80A
:109B80001C00FFF7CFFA641C3C2C00D100247F1E80
:109B9000002FC2DC70480FF0CDFABDE8F05F002165
:109BA00008460FF052B856E610B5624C62483821AC
:109BB000E061C170042101710021817262490020BD
:109BC0000FF043F800280BD160A00FF06FFC0021CC
:109BD00008460FF03AF8E069BDE81040FFF7A2BA76
:109BE00010BD2DE9FE4F5349554AC86992F83940D6
:109BF000837AA34203D082F8393001230B70837A31
:109C00001BB1BDE8FE4F01F0C5B94FF0000A82F864
:109C100039A08B46027BC17A302303EB0222847B7E
:109C2000067C477C1144457B90F80F8001F0FF09CA
:109C3000CDE900544B463A463146404601F022F900
:109C40000095CDE901404B463A463146404601F089
:109C50002FF939481721CBF81C00C170042101717C
:109C600080F80AA0BDE8FE4FFFF75CBA10B5314C92
:109C700031481D21E061017101F077FA304890F818
:109C80003910E06981723649CA7802F5FA62C27207
:109C9000120A02730A7942734A7982730A78C2738C
:109CA0004A78027489784174BDE81040FFF73ABAE7
:109CB000204921481F22C8610271097A8172FFF789
:109CC00031BA2DE9F0471B4EB068002858D1F06931
:109CD0008779002F54D0062F52D8174CDFF8848094
:109CE000002540F2DC5900BF05EB4501F46118F88E
:109CF0001120BA4241D108EB41001249427801EBF0
:109D00000212D37A2372427801EB0212137B637240
:109D100083782371427801EB02129378A371427821
:109D200001EB02114A78E2710279A2724179E17283
:109D3000207919E0680000200B0100207642002005
:109D4000C807002002090020085000207761726EC9
:109D50002E6461740000000038520020C40000200E
:109D6000FC0000204E1F0020FE4901EBC0004068AF
:109D700080471521E01C12F012FB6D1C4D45B3DB32
:109D8000BDE8F087F84BD869C279F84800EB0211BA
:109D9000487890420ED1F648D861C27021220271F3
:109DA0008A7882714A7B82728A7BC272C97B017314
:109DB000FFF7B8B97047421EFE280AD11420B1FB44
:109DC000F0F21E32C2F11E0000EB800001EB8000B9
:109DD000C1B2E84802EB820200EB8200405C7047AF
:109DE0002DE9FC5F0020E04A054680460090D069DE
:109DF0004FF014094FF0410B817A0191067900214F
:109E000084790F462B2E02D14FF0420B2926D64AD9
:109E1000D748FE2CD06109D02146D74A02EB011A5F
:109E20009AF80D1041B1FE2C03D075E04FF0FF09F8
:109E3000F3E7517B00296FD100228272CA49C272B6
:109E40008471292E02D18979594400E0472101719A
:109E5000BDE8FC5FFFF766B9F9B22046FFF7ABFF3C
:109E6000E8B1F9B22046FFF7A6FF02460098401C71
:109E70000090BE486D1C00EB0211BB484B78C069D6
:109E800000EB850043720B7883724B7BC372897B36
:109E90000173BA49895C11B9E821C1720173022DBD
:109EA00004D09AF80D10009881422FD108F10108D2
:109EB000462E0ED1019880450BD1AB48C06980F881
:109EC0000A809AF80D10491C4908C172A900017353
:109ED000BCE7A549C86980F80A809AF80D20521C91
:109EE0005208C272AA0002738979292E594401715D
:109EF000847101D1FFF716F99B4900200346C96917
:109F00000A18401C53730828FADB00259AF80D1034
:109F10000098814202D07F1C4F459DDBBDE8FC9F2D
:109F200091488168002911D1C0699049C27901EB3B
:109F30000211CB7A03720B7B4372CB7A0BB9097B8C
:109F400009B100F0DDBB1046FEF7D5BF704710B574
:109F500086B000228A4B0292039204920592D3E9C2
:109F60000023CDE90023814A02EB0013DC7A1A7B3F
:109F700004B9AAB19B788DF806308DF807008DF8EA
:109F800008408DF8092004208DF80A008DF80B1088
:109F9000684600F0B5FBC8200DF083FD06B010BD8B
:109FA000FEF7A9FFFAE72DE9F0416F490024CA69DD
:109FB00089689079977A401EC0B200291ED16D49F8
:109FC00000EB8000694E01EB8005285D06EB001177
:109FD000097801290BD0112909D0122907D01C2991
:109FE00005D01E2903D0242901D0272903D110B17F
:109FF0003946FFF7ACFF641C142CE6DBBDE8F081AA
:10A0000070B55948C16980688E7A00281DD1574DB6
:10A01000012400BF05EB0411087801280BD011289A
:10A0200009D0122807D01C2805D01E2803D02428C8
:10A0300001D0272806D14878A04203D1E0B23146AA
:10A04000FFF785FF641CFF2CE4DD70BD4648C06946
:10A05000FEF7BBBE70474448444AC169887AC97953
:10A0600002EB01110A78182A0DD10D280BD800280F
:10A0700009D04A7B897B401E02EB012201218140ED
:10A08000914300D14CE7704737483C4B0321006AAD
:10A09000C2789954C3783549827A01EB0313DA7296
:10A0A000C27AC07801EB0010027370472DE9F843C3
:10A0B0002D4C216ACE78887C8DF80000C87C8DF804
:10A0C00001002A48D1F80A7000EB0615D1F80E807D
:10A0D0006878B04205D1E81C08220A3112F08BF9E9
:10A0E00098B10120E07127484A2120620171C671B0
:10A0F000BDF800100181E1798172C0F80B70C0F8E1
:10A100000F80BDE8F84300F0FBBA206A1B4A817C4F
:10A11000E972C17C29730021E171C07803211154D7
:10A12000E1E7114930B4C869104B847B827903EBB5
:10A130000413521E5D78144BD2B2A54202D0C47BE8
:10A140002C2C24D1142A22D202EBC2041C4450F835
:10A150000A5F256045686560007A20720020C8713A
:10A16000012013E0F85E00206800002002090020B2
:10A170000B010020F21B0020021A0020021900200F
:10A18000C0CA010823010020FC5D00200871FE48C0
:10A190004C24C861C47004240471C979817202EB33
:10A1A000C20119440A68C0F80B204A68C0F80F20A1
:10A1B000097AC17430BCFEF7B5BFF44B30B4D8692E
:10A1C000F34A8079401EC1B214290BD201EBC100C1
:10A1D0008418207930B10020206060602072D8712E
:10A1E00001201871E8484D24D861C470042404711A
:10A1F00001EBC101DB79114483720A68C0F80B20BE
:10A200004A68C0F80F20097AC17430BCFEF78ABFD3
:10A210002DE9F0470020DE4F0546064600EBC00161
:10A220003944097901B16D1C401C1428F6DBDFF8B4
:10A230005C83D5484FF04F09C8F81C00D5B1002405
:10A2400004EBC400C219107980B1D8F81C00611C5D
:10A25000761C80F8049081718672C5721168C160A5
:10A2600051680161117A0175FEF75CFF641C142CC2
:10A27000E6DB85E580F8049000218172C172BDE8BB
:10A28000F047FEF74FBF70472DE9F041DFF8048338
:10A290000646002404EB440518F82500B0420FD10F
:10A2A00008EB8507786804F083FF002008F8250094
:10A2B000786038727872B548416A491E416204E09C
:10A2C00003D9A0F1010008F8250004F101040A2CCB
:10A2D000E0DB93E670B5AF4D002400BF04EB440112
:10A2E00005EB8100427A32B9007A20B915F82100D5
:10A2F00008B1FFF7C9FF641CE4B20A2CEED370BDAD
:10A300002DE9F0410024DFF88482A24D074626465D
:10A31000012901D021B351E0D8F824000A2802D144
:10A320000120FFF7B1FF04EB440015F8200018B13D
:10A33000641C0A2CF7DB41E0D8F8240004EB44014C
:10A34000401CC8F8240005F8210005EB81010A2211
:10A350004F600E724A720A2830D1FFF7BBFF2DE022
:10A3600004EB440005EB80004068B84213D104EBD5
:10A37000440305EB8302D8F80C7054682846BC42AD
:10A3800001D1C8F80C6010F8231005F8236056605E
:10A390001672567202E0641C0A2CE1DB00200BE00E
:10A3A00000EB400315F823208A4202D9521E05F81B
:10A3B0002320401C0A2801DA0029F1D1414600205F
:10A3C000C8F8246000EB400215F8222002B1761C88
:10A3D000401C0A28F6DBC8F824600FE66E4A01200C
:10A3E000115C09B1491E1154401CFF28F8DD70476B
:10A3F0000CB56AA0D0E90010CDE900106948C1622F
:10A40000BDF8041001869DF8061080F832100CBDCE
:10A410005E493C3188720846FEF7D7BC704710B5DC
:10A42000AFF2070160484160012101725F49C160DC
:10A43000032101765E49C161052180F828105D493C
:10A44000C162062180F830105B494163072180F822
:10A450003810AFF64171C163082180F84010AFF6A3
:10A460008D614164092180F84810AFF65561C164DF
:10A470000A2180F85010AFF6B95141650D2180F8DE
:10A480006810AFF6C351C1660E2180F87010AFF6A8
:10A49000CD2141670F2180F87810AFF66D51C1676B
:10A4A000122180F89010AFF6DD41C0F8941014210D
:10A4B00080F8A010AFF68531C0F8A410152180F8FF
:10A4C000A810AFF65941C0F8AC10172180F8B810A9
:10A4D000AFF6F101C0F8BC10182180F8C010AFF63B
:10A4E000730140F8C41F1A2202731B220161027516
:10A4F0001C228161027701621E2180F82C10AFF6C8
:10A500004F010163202180F83C10AFF2EB51212272
:10A51000016480F84420294A8264222280F84C2079
:10A52000AFF27D520265232280F85420AFF22F5201
:10A530008265242280F85C202522016680F8642050
:10A540002622816680F86C202722016780F874201B
:10A550002822816780F87C202922C0F8801080F8AA
:10A560008420AFF283723023C0F8882080F8BC309A
:10A57000134B2B24C0F8C03080F894402C24C0F832
:10A58000982080F89C401DE00B010020680000200E
:10A59000FC5D0020784B002002190020063131318B
:10A5A00031313100C8070020F85E00201F920008FA
:10A5B0006B9200082F930008BF930008278E0008B5
:10A5C0006B8F0008AFF60514C0F8A0402D2480F86A
:10A5D000A440AFF66D34C0F8A8402E2480F8AC40FB
:10A5E00040F8B01F2F240471AFF63B34846031244F
:10A5F0000475AFF2A7548461322404776E4C046270
:10A60000352480F83440AFF62F348463372480F843
:10A610004440AFF6AF348464382480F84C40AFF641
:10A6200077240465392480F8544083653A2380F800
:10A630005C3040F8601F3B230371604B3C24836017
:10A6400004733D240161047540F8183F3E230371F3
:10A65000AFF2FD53836040230375594B836143235D
:10A6600080F82C30AFF2DF530363462380F8443088
:10A670008264482280F854204922816580F85C2059
:10A68000AFF2D75202664B2280F86C2040F8701F60
:10A690004C220271AFF2755282604D220273AFF20A
:10A6A000E54202614E220275AFF29B428261502266
:10A6B00080F82420434A8262512280F82C20424AAA
:10A6C0000263592280F86C205A22016780F87420B6
:10A6D00040F8781F5B2202713C4A82605C22027360
:10A6E0003B4A02615D22027540F8181F5E2101712C
:10A6F000AFF66F11816010BD3648006A01F09DBB56
:10A7000010B5FEF73CF9BDE8104050200DF0C9B976
:10A7100070B5C47985793048102100EB041011F030
:10A720003EFE2C480169491E016121462846FEF77C
:10A73000CBFD2A4AFE2D09D002EB0510417B491EB4
:10A7400041732046BDE8704000F004B8507B401EC5
:10A750005073F6E770B50021214A40F2DC550B46F4
:10A7600001EB410402EB44067678864204D112F8EC
:10A7700014600EB102F81430491CA942F0DB194AEA
:10A78000002100BF01EBC104155D854200D11355C6
:10A79000491CFF29F6DD144A002100BF01EBC1046A
:10A7A00014442579854202D1236063602372491CD9
:10A7B0001429F3DB70BD000037900008658E000897
:10A7C000B590000873910008CD910008B18E000883
:10A7D0002F8F00086800002002090020021A0020C4
:10A7E0004E1F002076420020FC5D00202DE9F04144
:10A7F000F84E8046082000253060F74928460EF0C4
:10A8000024FA002848D10222F4A1F7480EF03CFABD
:10A81000F64C002750B10622F0A1F3480EF034FAAE
:10A8200002223F21EDA00EF03FFF2EE0EE483168FE
:10A83000C068B0FBF1F56D1E3C2D26DB2068401C86
:10A840004143E9480EF07FFC2068401C20603C2812
:10A8500000D12760DF4B41460833E34832680EF0F1
:10A8600054FB0021E0480EF06EFCDA4B0122083365
:10A87000DE49DD480EF049FBDB480EF05BFCBDE82D
:10A88000F041002108460EF0E0B931686D1C6943C3
:10A89000D5480EF058FCDCE7BDE8F08110B5044661
:10A8A000CD4900200EF0D1F9002820D10322D0A1FB
:10A8B000D2480EF0E9F928B10722CDA1CF480EF019
:10A8C000E3F903E0CD48C1680EF03DFCC14B40F216
:10A8D000FF1208332146C9480EF017FBC7480EF097
:10A8E00029FC0021BDE8104008460EF0AEB910BDAD
:10A8F00070B5C3A305460FCB88B000248DE80F00C8
:10A90000049405940694B449204607940EF09DF9EA
:10A9100000287DD100F029FCBD4B0A211A79B2FB39
:10A92000F1F000F1300601FB10208DF800603030AE
:10A930008DF801005A79B2FBF1F000F1300601FB0D
:10A94000102030308DF803608DF804001A78B2FBC7
:10A95000F1F000F1300601FB10208DF80660303078
:10A960008DF807005A78B2FBF1F000F1300601FBD8
:10A9700010208DF8096030308DF80A009A78B2FB0B
:10A98000F1F000F1300301FB10208DF80C30303075
:10A990008DF80D00032296A198480EF075F9974E98
:10A9A00028B1072292A130460EF06EF903E09348D9
:10A9B000F1680EF0C8FB874B1022083369468F48B8
:10A9C0000EF0A3FA8D48F1680EF0BDFB8DB97B2027
:10A9D00008F02AFA012800D101247C2008F024FA8A
:10A9E000012800D1A41C7D2008F01EFA012800D106
:10A9F000241D23462A4687A104A811F0F1FD754BBA
:10AA00000D22083304A97D480EF07FFA7B4800E050
:10AA100005E00EF08FFB002108460EF016F908B095
:10AA200070BD10B576A390B00FCB0AAC84E80F00D0
:10AA30007C480279C178CDE90012837842787AA106
:10AA400002A811F0CDFD152102A801F05FF87D48A4
:10AA5000C2788178CDE90012437802787AA102A801
:10AA600011F0BEFD122102A801F050F87C480068E8
:10AA70000E900EA806F0FCFF02467AA102A811F083
:10AA8000AFFD0EA806F0F4FF11F0A0FC00F10C01E0
:10AA900002A801F03BF8774C77A102A8226811F0D8
:10AAA0009FFD20680A2801DD022100E0012102A8A3
:10AAB0000C3101F02BF8744C74A102A8226811F03B
:10AAC0008FFD20680A2801DD022100E0012102A893
:10AAD0000C3101F01BF8714C6CA102A8226811F036
:10AAE0007FFD20680A2801DD022100E0012102A883
:10AAF0000C3101F00BF86A48007810B169A011F030
:10AB00005FFD354900200EF0A0F810B171A011F0E2
:10AB100057FD7748007810B176A011F051FD00F094
:10AB200024FB3B490A200B79B3FBF0F202F130041D
:10AB300000FB12328DF8284030328DF829204B79F5
:10AB4000B3FBF0F404F130028DF82B2000FB14323B
:10AB500030328DF82C200B78B3FBF0F404F1300286
:10AB60008DF82E2000FB143230328DF82F204B78D8
:10AB7000B3FBF0F404F130028DF8312000FB143205
:10AB800030328DF832208A78B2FBF0F100FB1120D0
:10AB900001F130038DF8343030308DF8350010215C
:10ABA0000AA800F0B3FF10B010BD10B501220BA130
:10ABB00056480EF069F800280BD1064B01221B1DE8
:10ABC0000A4952480EF0FAF8BDE810404F480EF01E
:10ABD000B1BA10BDC0000020085000207761726E2D
:10ABE0002E646174000000005C540020800000208E
:10ABF0007379737465726D2E6C6F670080560020D8
:10AC000000002D00002D00003A00003A00000D0A5F
:10AC1000FC00002073746174653A2532642D25327E
:10AC2000640D0A003002002043656E746572205680
:10AC3000657273696F6E3A25632563256325630D1D
:10AC40000A00000028020020494150205665727316
:10AC5000696F6E3A25632563256325630D0A00003D
:10AC6000C801002043656E7465722049503A25730F
:10AC70000D0A00008C00002070616420636F756E07
:10AC8000743A25640D0A0000E80300206D656D200C
:10AC9000636F756E743A25640D0A0000F803002096
:10ACA000040100206E6F2073657269616C206E75FF
:10ACB0006D206F72206E6F20736563726574206EF5
:10ACC000756D206F722075736520666972737421CB
:10ACD0000A0000006E6F2073642063617264206F4D
:10ACE00072207364206361726420657272210A00AD
:10ACF000E601002072656D6F74652073657276657C
:10AD000072206C6F67696E65640A0000385200201B
:10AD100008B54FF4C06008F025FE31208DF8000022
:10AD200000208DF801008DF8020001208DF803004D
:10AD3000684608F01CFE484900200DF086FFFFF72A
:10AD400034FF002108460DF080FF08BD70B50446B1
:10AD5000154642480EF0F7F92A462146BDE87040F4
:10AD60003F4B3E480EF0D1B82DE9F0410646002495
:10AD70004FF400753B480FF0ABFA3B4F11E06119FF
:10AD8000814200DD051B37482A4604F58031E83052
:10AD900000F08CFB33492A46E83132480FF060FE60
:10ADA0002C4438688442EADB2E492E48D8310FF013
:10ADB0008FFED8212B4811F0F2FA2A480021D83012
:10ADC000735C425C9A4201D0002065E5491C102961
:10ADD000F6DB012060E570B500244FF4007500F04B
:10ADE00097FF1D4900200DF030FF002832D10A22C4
:10ADF0001EA11A480DF048FF1B4E11E06119814257
:10AE000000DD051B17482A4604F58031E83000F0C4
:10AE10004DFB14482A462146E830FFF797FF2C44A3
:10AE200030688442EADB0D480EF084F90A2212A150
:10AE30000A480DF029FF0A4B1122114907480EF06C
:10AE400064F806480EF076F9BDE870400021084627
:10AE50000DF0FBBE70BD000008500020A45800207B
:10AE6000C8000020C85A00200802002075706461E4
:10AE700074652E62696E00006D64352E6461740025
:10AE8000D877002030B58DB06433DDE910450395E7
:10AE90000092CDE90110641ECDE90443684611F02B
:10AEA00015FA0B900BA811F0E9FA007E0DB030BD39
:10AEB0002DE9F04106AC4FF0000C94E8E000E94CBD
:10AEC00084F803C020706170201DA27086704570E8
:10AED000C37007700FB907210170E2490020091DF6
:10AEE00009F0EBF8DF49002009F078F8BDE8F041FF
:10AEF00043F2F221002009F03BBBFEB55089154614
:10AF0000302842D1D74C6868143C2061016A90F81F
:10AF1000230009BA21F0FF010143D348C4E90A1014
:10AF2000814232D9081A00F5E140A06204F12800FC
:10AF300011F0A4FA6062017D30346439CBB2E37061
:10AF4000017C491CCEB22671027B6271077A2770A0
:10AF50000179617090F800C084F802C0007EA07191
:10AF60000096CDE9012062463846FFF7A1FFBF48B1
:10AF70001721C1700421017100218172FEF7D2F8FE
:10AF8000BA481521C01C11F00AFA2846BDE8FE4057
:10AF900003F0A5BB10B500223021032003F0C1FB54
:10AFA000B04CB349143C7B22E060416004F12001C5
:10AFB000E06901F045FFE168E06901F03EFFE0690A
:10AFC00001F061FFE068BDE8104003F088BBA849CC
:10AFD00010B523200870A349A6480C31086001F081
:10AFE00071FFA04C40F20142143CA349E06101F022
:10AFF0006AFE0022AFF2FD01E069BDE8104001F0F9
:10B000004ABF9B4A10B53C324FF48071002009F0D2
:10B0100022F9974893493C30143902780A704278F3
:10B020004A708078887010BD70B500F00BFE3C212E
:10B0300090FBF1F401FB14054FF4807600213046BB
:10B0400009F03CF98A4A00203C32312110705470DA
:10B05000957011739060C80750603146002009F068
:10B0600098F80121080309F0B1FA3046BDE87040B4
:10B07000012109F023B9FEB5002009F081FA4FF44F
:10B08000807743F2F2263C050025B04239D00121F9
:10B09000204607F0EBFF012009F02CFD012007F00E
:10B0A000FBFE412007F0C0FE0028FAD0384607F02A
:10B0B0009EFF6C4CFF20143CA0607F20606001204C
:10B0C00007F0AAFF08F0ACFE6168694830304160C3
:10B0D000A1680560816008F030FF62481721C570E3
:10B0E00001703B2141701E2181700146002008F053
:10B0F00075FF18B13146002009F03AFAFFF794FFC6
:10B1000012E07B2007F090FE10B97A2007F08CFE49
:10B110000121204607F0AAFF012009F0EBFC08F00E
:10B120007FFE384609F082FA4FF40034204609F0D9
:10B130002FFB8DF80450082000948DF805000124A1
:10B140008DF80640684609F0C5FA29208DF80800F8
:10B150008DF809508DF80A408DF80B4002A808F0D0
:10B1600006FCFFF74EFF0020FEBD10B53D49002054
:10B1700008F080FF3B490020091D08F0E9FF39492C
:10B1800001F11C000A7802704A7842708978817057
:10B19000A0F11801CA78C2704A7802718A784271A7
:10B1A0000978817110BD2DE9F04F87B00024FFF7B9
:10B1B000DCFF2C49002008F05DFF2A490020091D12
:10B1C00008F0C6FF27482A4D001D0078401E00F0F9
:10B1D000FF08244815F14C0590F8009090F801B054
:10B1E00004EBC407E85D80B37E1930795FEA000A9A
:10B1F00031D07078012202FA08F2104200D120BB4F
:10B20000B178494527D1F178594524D1142101A8B5
:10B2100011F0C5F819481A4A00680090707902EBDD
:10B220000A118DF8040089788DF806102C280DD0AD
:10B230008DF807A0F0798DF80A00307A8DF80B00B0
:10B24000684600F0FAFD707818B104E08DF806A0A9
:10B25000F6E70020E855641C142CC1DB07B0BDE8FC
:10B26000F08F0000E0000020807EAA830B01002008
:10B27000B05D00201838B28CC4CB01084CCB01085B
:10B28000020900202DE9F043012187B0880307F06F
:10B29000EDFE0121042007F0CBFEFF4E05220A211E
:10B2A000304607F080FDDFF8F4930522022148467E
:10B2B00007F079FD05220321484607F074FD0225B9
:10B2C0008DF804508DF80550002468028DF8064072
:10B2D00000908DF807506946304607F0DBFC0826E1
:10B2E00069464846009607F0D5FC04200090694660
:10B2F000484607F0CFFC4FF001088DF804808DF828
:10B3000006402F038DF8055000978DF807406946D9
:10B31000484607F0BFFC3946484607F035FDADF812
:10B3200008404FF48270ADF80A00ADF81080280292
:10B33000ADF81460ADF80C40ADF81200ADF8164051
:10B340000720D74CADF81800ADF80E5002A92046E2
:10B3500008F036F80121204608F0C2F807B0BDE831
:10B36000F08370B5CE4C05460221204608F02EF938
:10B370000028F9D02946204608F0FBF80121204694
:10B3800008F024F90028F9D0204608F0F0F8C0B2FF
:10B3900070BD2DE9F04114460D46064600F051FB04
:10B3A000DFF8F8824FF400573946404607F0EEFCCC
:10B3B0000220FFF7D6FFC5F30740FFF7D2FFC5F322
:10B3C0000720FFF7CEFFE8B2FFF7CBFFB4F5807F91
:10B3D00004D9FF243078FFF7C4FF761C641EA4B2A2
:10B3E000F8D23946404607F0CFFCBDE8F04100F006
:10B3F00012BB2DE9F04707460E4611F0FF00C0F1E1
:10B400000001CDB24FEA122402F0FF094FF4807A16
:10B4100013D0F0B24042C0B206EB00080CB3501B90
:10B4200080B2040A00F0FF092A4631463846FFF789
:10B43000B0FF3D44464657462AE06CB15546641E6F
:10B44000E4B20CD32A4631463846FFF7A2FF06F590
:10B45000807607F58077F2E73146384621E04A46A4
:10B46000FAE7A945F8D9A9EB0500C4B22A46314646
:10B470003846FFF78EFF41467819224611E03A46DA
:10B4800031462846FFF785FF05F5807506F580767D
:10B49000641EE4B2F3D25FEA090005D002463146E9
:10B4A0002846BDE8F04774E7BDE8F0872DE9F04194
:10B4B000DFF8E8810D4606464FF40057144639463A
:10B4C000404607F063FC0320FFF74BFFC5F307403E
:10B4D000FFF747FFC5F30720FFF743FFE8B2FFF789
:10B4E00040FF04E0A520FFF73CFF06F8010B641EB7
:10B4F000A4B2F7D239464046BDE8F04107F044BC5B
:10B500002DE9F0410D4604464FF40057634E1CE010
:10B5100000F097FA3946304607F038FC2020FFF754
:10B5200020FFC4F30740FFF71CFFC4F30720FFF719
:10B5300018FFE0B2FFF715FF3946304604F5805496
:10B5400007F022FC00F067FA6D1E002DE0D1BDE887
:10B55000F0812DE9F041514F4FF400563146384605
:10B5600007F014FC9F20FFF7FCFEA520FFF7F9FE73
:10B570000546A520FFF7F5FE0446A520FFF7F1FEDE
:10B5800080463146384607F0FFFB280440EA042095
:10B5900040EA0800DBE7434943488A791AB1497E0B
:10B5A00009B1017801B10121417070472DE9F041E5
:10B5B00000203E493E4C064600EBC0025318DB78A3
:10B5C00004EB03156D789D4200D08E54401CFF287B
:10B5D000F2DD3849002040F2DC5500BF00EB4002AC
:10B5E00001EB42035B7804EB03177F789F4201D0A5
:10B5F00001F81260401CA842F0DB002504EB0510A6
:10B600004178A94205D1817819B11E2904D9FE29B2
:10B6100002D0102110F0C3FE6D1CFF2DEEDD264878
:10B62000002100BF01EBC102835C2BB1012B03D0D1
:10B6300013181E605E601E720244137904EB03153A
:10B640006D789D4202D0166056601672491C14290E
:10B65000E8DB7CE72DE9F043ADF5017D0024FFF741
:10B6600011FE4FF49D7200210E48FFF71FFF0E4997
:10B670000C4F8A1C08783B5D155DAB4200D0012061
:10B68000641C062CF7DB087098BB4FF480510A4607
:10B690000748FFF70BFF11E00004024000080240DA
:10B6A00000380040C8070020030100207642002037
:10B6B000020900204E1F0020FC5D00204FF4F872AC
:10B6C0004FF40051E748FFF7F1FE4FF410624FF4DA
:10B6D0004051E548FFF7EAFE42F228324FF40041BC
:10B6E000E248FFF7E3FEB4224FF45041E048FFF791
:10B6F000DDFEDC4DFE20002428706C73FFF756FF42
:10B70000DC49002005EB00121278824201D0FE2AAB
:10B7100002D10A68521C0A60401C1F28F2DBDFF8C5
:10B7200058930126A04600BF09EB06146178B14288
:10B7300006D1D2480268521C0260A078FDF7DEFDF7
:10B74000A078FE2805D16078B04202D1687B401C09
:10B75000687384F80B8084F80C802178404618299F
:10B7600004D01C2902D06073A073E073761CFF2EF6
:10B77000DADD03224FF48071C14810F009FE012088
:10B7800087F83900FFF707FF4FF4443404222146BD
:10B79000BC48FFF78BFEBB4D287831280DD0BAA0EE
:10B7A0000121006800902046FFF7AAFE04222146EE
:10B7B0006846FFF71EFE00982860B44900206C46DA
:10B7C0004FF4007551F8012B2254401CA842F9DBBC
:10B7D0009DF80000312813D1601C10F0F1FE0D20FF
:10B7E0008DF8FE010A208DF8FF01601CFFF756F866
:10B7F0002946684610F0D3FD0021684601F05FF944
:10B800000DF5017DABE52DE9F047ADF50C7D044666
:10B810004FF400710CA810F0C2FD31208DF83000FB
:10B8200054F804ABDFF868C254F8049B3FCCDCF852
:10B8300000C0DFF85C8208F11808D8F80080944F47
:10B840000C373F68924E083636680DF1200E8EE8B0
:10B85000C0118F4E361D36688D4F14373F680796DE
:10B860008DE8BF004B4652468A490DF1310010F079
:10B87000B7FE01210CA801F022F90DF50C7D13E6AD
:10B8800070B5854B854A00215C5C555CAC424CD15F
:10B89000491C0629F8DB08283ED00FDC012826D0F9
:10B8A00002281BD0042840D1440305212046FFF77D
:10B8B00027FE42F2283221466C480CE00B2820D0AB
:10B8C0000C2832D14FF4504401212046FFF718FED6
:10B8D0006748B4222146BDE870408AE501210C0387
:10B8E0002046FFF70DFE224611466348F3E701218B
:10B8F0004C032046FFF704FE4FF4F87221465948E6
:10B90000E9E74FF4405405212046FFF7F9FD4FF4D5
:10B91000106221465448DEE701210020FFF7F0FDC8
:10B920004FF49D7200215C48D5E770BD70B55B4D4A
:10B93000AD1E2878E0B14FF49D742146564810F0B2
:10B940002EFD5548D5F802100160E9888180082055
:10B95000FFF796FF224600214F48FFF7A7FD06227A
:10B96000A91C4D4810F047FD10B14DA010F028FE65
:10B970004FF48051404810F012FD4FF4F8713948EF
:10B9800010F00DFD4FF41061374810F008FD42F241
:10B990002831364810F003FDB421354810F0FFFC83
:10B9A0000220FFF76DFF0120FFF76AFF0B20FFF772
:10B9B00067FF0420FFF764FFBDE870400C205FE7DD
:10B9C00038B500204FF44034009001212046FFF7A5
:10B9D00097FD032221466846FFF70BFD38BD202165
:10B9E000C8028DE592B201F5803102E538B5010C4F
:10B9F0008DF80210010A8DF801108DF800004FF447
:10BA0000403401212046FFF77BFD03222146684692
:10BA1000FFF7EFFC38BD70B5244D4FF400542146BC
:10BA2000284607F0B3F90520FFF79BFCA520FFF798
:10BA300098FCC007FAD121462846BDE8704007F0BF
:10BA4000A3B970B5194D4FF400542146284607F0AC
:10BA50009DF90620FFF785FC21462846BDE8704089
:10BA600007F092B9021A0020764200204E1F0020F3
:10BA7000FC5D00207C0000200209002078000020EE
:10BA800002190020280200203130303000000E085A
:10BA900024ED00E004EF0108C807002005010020A4
:10BAA000666C617368206572720A000000080240CB
:10BAB00000B585B04FF4E13000900020ADF80400EF
:10BAC000ADF80600ADF80800ADF80C000820ADF8A0
:10BAD0000A00694601200BF03CF9012240F227716F
:10BAE000244807F0ECFE4FF4A06007F03BFF27204E
:10BAF0008DF8100001208DF811008DF812008DF8DE
:10BB0000130004A807F033FF05B000BD2DE9F04194
:10BB10000E4607460024174D0AE04021284607F04C
:10BB2000E6FE0028F9D0395D284607F04FFE641C78
:10BB3000B442F2DBBDE8F0812DE9F0410746002474
:10BB400010F044FC05460B4E0AE04021304607F059
:10BB5000CEFE0028F9D0395D304607F037FE641C70
:10BB6000AC42F2DBE6E713B56846FFF7E5FF009865
:10BB70001CBD000000480040464801684648454A50
:10BB8000121D01601268434B426008331B688360DA
:10BB9000500A43004148037042700A0E82700A0C3A
:10BBA000C2700A0A027141717047012080F3138844
:10BBB0003B4801683B4A01F4E06111430160BFF377
:10BBC000408FFEE7384810B50168C1F101010160FE
:10BBD000364801291FD000248472FCF7D0FE0220D1
:10BBE0000BF04CF80820FFF74BFE0120FFF748FE52
:10BBF0000220FFF745FE0420FFF742FE0B20FFF76F
:10BC00003FFE0C20FFF73CFE2948047029480470D1
:10BC10002948047010BD012181722448FCF7AFFE51
:10BC2000BDE8104002200BF020B810B5012008F04C
:10BC3000F6FF0028FAD008F0E3FF2049B0FBF1F04E
:10BC4000143010BD10B5012008F0E9FF0028FAD02B
:10BC500008F0D6FF1A49B0FBF1F010BD10B5194C31
:10BC60002068052804D00A2804D00F2806D00DE04B
:10BC7000002000E00120FCF79CFF07E00220FCF719
:10BC800098FF002020600720FEF732FE2068401C4D
:10BC9000206010BD107AFF1FB05E0020DC01002084
:10BCA0000CED00E00400FA05700000203B010020CC
:10BCB00068000020690000206A000020CCCCCC0C79
:10BCC000563412002400002010B50121402007F056
:10BCD000B9F9BDE81040012008F087BF10B5012078
:10BCE00007F0E6F8612007F09FF80028FAD045F247
:10BCF000555008F051FF062008F051FF4FF4FA604C
:10BD000008F050FF08F051FFBDE8104008F052BFA6
:10BD100010B545F2555008F03FFFBDE8104008F05F
:10BD200044BF10B500200AF081FF01200AF07EFF19
:10BD300002200AF07BFF03200AF078FF04200AF0BB
:10BD400075FF00200AF09AFF01200AF097FF0220F9
:10BD50000AF094FF03200AF091FFBDE81040042090
:10BD60000AF08CBF7FB50121102007F061F9012195
:10BD7000880307F085F900248DF80C4020258DF804
:10BD80000F4002A90E48029506F084FF0521042009
:10BD900007F04FFE8DF80440082000958DF805004F
:10BDA00001258DF80650684608F094FC05481721D7
:10BDB0000170447002218170C57007F0D8FD7FBD0D
:10BDC00000100240B3010020DFF84C82914F934CE9
:10BDD00008F540750026E069C0EBC00015F820109A
:10BDE000FF2915D105EB80008D4A81693960126801
:10BDF000914211D081B1FDF764F9E069C0EBC00157
:10BE0000401C05F82160E0611521864810F0C7FA52
:10BE1000E069C8280CD00CE083490860007918F864
:10BE200030208242E9D108EBC00040688047E4E757
:10BE3000E66101200BF035FECDE770B50178FF29F2
:10BE400023D14178FE2920D1817815291DD1734C49
:10BE5000764DA169C1EBC10115F821200AB1A06995
:10BE60000FE005EB810301461822184610F07EFA18
:10BE7000A069216AC0EBC00205EB8202401C9161FF
:10BE8000A061C82801D10020A06170BD1FB50022AB
:10BE90002421012002F045FC04465F4800223C3882
:10BEA0000123C06802905D48006903906168082022
:10BEB00008704A7019208880CB803C2060814A80BD
:10BEC000CDE90023FF2302AA03A9204605F0C5FC03
:10BED000204602F004FC1FBD1FB5002224210120D2
:10BEE00002F01FFC04465248002201230068029021
:10BEF0004A48006903906168082008704A701A2057
:10BF00008880CB803C2060814A80CDE90023FF23DC
:10BF100002AA03A9204605F0A0FC204602F0DFFBA0
:10BF20001FBD10B586B002F061F902F077FA002467
:10BF30003A48039404942430059406F0F5F83D48FB
:10BF40003D490094CDE90110334805AB04AA03A98B
:10BF50003C3802F000FB30483C3802F01FFB2E4812
:10BF60003C3801F04DFD2C483C3802F067FB06B030
:10BF700010BD29483C3806F048B931B5274C009827
:10BF80002168401AFA2803D30098206003F0BEF914
:10BF900000986168401A41F28831884203D30098C2
:10BFA000606005F07BFD0098A168401AB0F5FA7F4B
:10BFB00003D30098A06001F01CFB0098E168401AD0
:10BFC0004EF66021884205D30098E060BDE8384015
:10BFD00001F0E6B938BD11B4104800994269891AD8
:10BFE000FA2915D3009941610B4903693C394A6824
:10BFF0009A4205D00261112118BC002008F0A6BEAB
:10C00000002B05D1086A417B042901D90021417325
:10C0100018BC704774000020F85E0020B8010020B2
:10C02000200200200E01002084000020F861002082
:10C03000F8010020F91F01087F22010870B50D46A4
:10C0400004460278411CFE4810F090F92078FC4E1E
:10C0500014223044FB4910F089F9227806F11400CB
:10C060001044611C10F082F92078142101EB40018A
:10C0700006F16402304610F064F8F2492A4678313D
:10C08000304610F073F97019142206F1640110F0B3
:10C090006DF9EC4A05F11401E732304610F051F821
:10C0A000E848E63070BD2DE9FC410D46044611F824
:10C0B000012BE34810F05AF92878E14F1422384454
:10C0C000E04910F053F92A7807F114069019691C19
:10C0D00010F04CF92878142505EB400106F27F1288
:10C0E000384610F02EF82278611C384610F03EF9E0
:10C0F000207814223844D34910F038F92278611C92
:10C10000901910F033F9207806F2B31205EB4001D4
:10C11000384610F016F806F25B1000F1240100F129
:10C1200048061EC986E81E0000218163C1630164C0
:10C13000416480223146F4380DF0A2FBC14807F279
:10C14000C711FC30CDE90010A1F120031422012118
:10C15000A3F596700EF034F8BA48FB30BDE8FC81C8
:10C160002DE9F35FB74AB8491432844617786A3A22
:10C170008E7910690223401E4FF0040B4FF009091D
:10C180004FF0300802F1800502F1CE04BCF1100F2F
:10C1900073D014DC02F1D8008846A0F16E0508F1D6
:10C1A0002C0A2D7898F80680BCF1010F454410D078
:10C1B000BCF1040F2DD0BCF1090F53D153E0BCF1F9
:10C1C000160F79D0BCF1170F67D0BCF1190F49D108
:10C1D00073E005F118026271012262728846891DBE
:10C1E000721C10F0C3F89749A0197A1C14310B3057
:10C1F00010F0BCF893481430017898F80600014418
:10C2000050460C31FFF71AFF0146281915220C3051
:10C2100026E005F13902627184F809B0891D721CAB
:10C2200010F0A4F88749A0197A1C14310B3010F0D3
:10C230009DF88549504619310E46FFF734FF2F19F6
:10C2400007F10C0301462122184610F08FF805F182
:10C250002D013046FFF7F2FE0146152207F12D00B1
:10C2600010F084F83EE0637184F809900020A07219
:10C27000D068401CD06035E0FFE784F805901021BD
:10C280006172A3723321E17284F80C80D16C45F89D
:10C290005B1F92F8501029710CE084F8059017216B
:10C2A0006172A3726121E17284F80C8084F80DB090
:10C2B000516CE965106115E00AE04A7E6249901C04
:10C2C0006071192060725F481A31A2728330C7E72B
:10C2D000052060711620607252F8510FA865107920
:10C2E00085F85C006279019802B05649BDE8F05FBC
:10C2F00001237831093204F022BB52485638C16B11
:10C3000009202DE74F4B30B58321563B6FF02F05A9
:10C310005A6A445C0D2C07D002EB820205EB420204
:10C32000491C22448C29F4DB5A6230BD2DE9F047C8
:10C3300004461E4615468A46084604F0C7F9002DF5
:10C3400061D02989504602F056FF3E4E2C464FF4EC
:10C350005277DFF8F880563E4CE000BFD4F80490E6
:10C36000706A38B3B06A1044B062F06A1118B9420A
:10C3700024DDC0F55272404449460FF0F7FF3A46BB
:10C380003248316BFFF72EFB306B00F55270306393
:10C39000F06A6189C0F552728A1AA9EB00012B4834
:10C3A00001F552710FF0E2FFF16A6089C1F5527137
:10C3B000401A0AE04846FFF7A5FF19E04044494605
:10C3C0000FF0D4FF6089F16A0844F062D6E90901F0
:10C3D00081420DD1D6E90B211C48FFF703FB706A9F
:10C3E000FFF704FB504602F0E3FE052030610BE04E
:10C3F000246824B1628912B1207B0328AED028467C
:10C4000002F06DF900E016B10020BDE8F08720468B
:10C4100001F001FF5046BDE8F04702F0C9BEF0B59B
:10C42000084C0025563C87B00F462E466562AFF299
:10C4300003113846A56203F0AEF9E078002807E062
:10C44000E97700203A020020C8070020C4790020C4
:10C45000A069FCA24FEA1061CDE90512FCA4C0F36B
:10C460000743CDE90334C0F30721F9A3CDE9003137
:10C47000F7A20292C3B206D0F64AF7A1FB4810F029
:10C48000AFF8FA4806E0F34A303AF6E76D1C761C3E
:10C49000472D02DA415D0029F8D1B2B20123F349F8
:10C4A000384604F04CFA07B00020F0BD38B5F04C27
:10C4B0006D46A069009003F06AF940F6BA32ED4982
:10C4C000A06402F0C8FFAFF2A90342F22832294665
:10C4D000A06C03F054F80620207138BD0021A0F1B3
:10C4E0003002092A01D8D1B205E0A0F16102052A83
:10C4F00001D85738C1B2084670472DE9F0471700F8
:10C500000C464FF000063AD03989204602F073FEFF
:10C51000DFF86493D648B046C9F80040C16B8C423E
:10C5200002D1C0F81C8001E00121C1613C4618E045
:10C53000606885192878732810D1687868280DD12B
:10C54000A87870280AD1E878312807D128793028CE
:10C5500004D1687A05F10A0100F049F868790936D2
:10C560000644618906F10A008142E1DA2468002C60
:10C57000F7D1384602F0B3F8C9F8008000E00BB1FB
:10C58000002042E7BDE8F047084602F011BE10B5B2
:10C59000B74C206C02F00CFE0120A060002010BD02
:10C5A000B34A10B5126A0C4622B9AFF21D012046FB
:10C5B00003F0F4F8AFF2BD01204603F0ECF80020E0
:10C5C00010BD38B5AA4C6D466069009003F0DFF8E5
:10C5D00040F6B932A749206402F03DFFAFF23F03B5
:10C5E00041F268122946206C02F0C9FF38BD2DE9DE
:10C5F000F0470B460125A1499D4C4FF00009122838
:10C600004CD024DC03285DD0052876D0112872D1C7
:10C61000062004F14C0217181E5C17F8057CBE4278
:10C6200070D900264FEA010803EB4607387BFFF775
:10C6300055FF8446F87AFFF751FF4CEA001008F8DE
:10C640000600761C102EEFDB88F8105021E015282C
:10C650006AD018284FD1864A0620443217181E5C2B
:10C6600017F8067CBE4255D90026884603EB4607DC
:10C67000387BFFF733FF8446F87AFFF72FFF4CEA49
:10C68000001008F80600761C102EEFDB88F810501A
:10C69000E570FFF7A4F9FFF709FF3EE01A78744848
:10C6A00019466A30521C0FF061FE2570E06920B116
:10C6B000216C206A20B1102029E00120E16B26E0E6
:10C6C000042024E0587848B184F80190A1684846D5
:10C6D000002910D12062BDE8F04772E7A57006205E
:10C6E000FEF706F9FEF756FC1920E16BFFF738FD5F
:10C6F0002562F0E701E020E004E0BDE8F047581CC7
:10C70000FFF79BBB401C0A2885DB216C1720BDE886
:10C71000F04725E5401C0A28A0DBC4F81090206CE7
:10C72000BDE8F04702F044BD1868C4F8510018791C
:10C7300084F855001620E16BE9E766E64C48C168CD
:10C74000002901DD491EC1600020704710B548482E
:10C750000C46012141700021C160AFF21F0120464B
:10C7600003F01CF8AFF26D21204603F014F800200E
:10C7700010BD38B53E4C6D466069009003F007F877
:10C7800040F6B8323B49E06302F065FEAFF2430386
:10C7900041F267122946E06B02F0F1FE38BD70B538
:10C7A000334C207948B1401E10F0FF00207104D1B5
:10C7B0000120FEF79DF8FFF7F8F92069052807D05A
:10C7C000401E03283CD201202062BDE87040F8E6FC
:10C7D00000252571E07801281DD12848FEF7C4FA0C
:10C7E000012818D100200AF040FA01200AF03DFA91
:10C7F00002200AF03AFA00F046F900200AF03EFA68
:10C8000001200AF03BFA02200AF038FA2561FFF70E
:10C81000D7F8FFF7CAF9E07860B91848FEF7A4FA2C
:10C82000012807D102200AF020FA0420FEF760F860
:10C83000FFF7BBF9FFF7C4F8BDE87040FFF7B5B9E3
:10C8400070BD00003A393030300D0A0D0A0000008A
:10C850002E000000860300202573256425732564BF
:10C86000257325642573256425730000C47B00208F
:10C87000E4010020C4CB0108D8010020D8770020B3
:10C880002F488078002804D02E480068002800D166
:10C8900097E6704770B52A4C01262246606B401C13
:10C8A000606351786379927800250BB3012B30D007
:10C8B000022B3BD0032BC3D1A16B8842C0D9FFF719
:10C8C0001CFDFFF7B2F9C4E90D50E068012802DC55
:10C8D000E0790028B4D00320FEF70AF8667165639A
:10C8E000E5606570A570E06B02F062FCE571A7E79A
:10C8F000A37933B119B112B16570A570A0E7667163
:10C9000005E0012801D00A289AD1FFF7E5FA65630E
:10C9100096E7616939B1491C05D0022060716563F1
:10C92000BDE8704025E71E28F1D089E719B112B1A2
:10C9300003206071EBE71E2882D1656366717FE793
:10C94000E4010020BC0000202DE9F041744C00F10E
:10C9500000670E460025DFF8CC8127610CE000BFA0
:10C9600018F80510206907F0B6F9082800D0FEE78E
:10C970002069401C6D1C2061B542F1DBB6F5007FDB
:10C9800001DA07F0BFF800202761607041460CE033
:10C990002269136823700B5C2578AB4202D0637860
:10C9A0005B1C6370521C401C2261B042F0DB61785A
:10C9B000606808446060BDE8F0810021A0F1006378
:10C9C0004FF4804293423FD357490144914201D2F0
:10C9D000082139E055490144914201D2102133E048
:10C9E00053490144914201D218212DE0514901449B
:10C9F000B1F5803F01D2202126E04F4942184FF483
:10CA000000318A4201D228211EE04C4A02448A4267
:10CA100001D2302118E04A4A02448A4201D2382128
:10CA200012E0484A02448A4201D240210CE0464AC0
:10CA300002448A4201D2482106E0444A1044884216
:10CA400001D2502100E058210846704710B507F088
:10CA50004DF8F32007F0D5F94FF00060FFF7ADFF78
:10CA60002F4CA06031484042FFF7A7FFE060A0686C
:10CA700004E0022107F075F8606908306061E16840
:10CA80008842F6D310BD70B500244FF40075FFF74F
:10CA9000DDFF2F4E0EE06119814200DD051B2A46A5
:10CAA00004F580311F48FEF701FD29462046FFF7B7
:10CAB0004BFF2C4430688442EDDB70BDE3E72DE989
:10CAC000F0418846ADF5007D4FF400760146002523
:10CAD000324668460FF04AFC07F008F8F32007F0EA
:10CAE00090F90221582007F03CF80D4C19486F4688
:10CAF0002061795D07F0EFF8082800D0FEE7206993
:10CB00006D1C401C2061B542F3DB06F0FBFFB8F161
:10CB1000000F01D0FFF749F80DF5007D4BE700004D
:10CB2000B00300200B7C002000C0FFF70080FFF75F
:10CB30000040FFF70000FFF70000FEF70000FCF7E1
:10CB40000000FAF70000F8F70000F6F70000F4F72D
:10CB50000802002000000E0870472DE9F84F4768D2
:10CB60000546028938788A4600F00F00082101EB5B
:10CB700080018A4267D380004142284601F08AFE44
:10CB8000002860D1DFF858936C685146D9F800004E
:10CB900004F084FE0090208805F080FE0646608840
:10CBA00005F07CFE00240246442807D0DFF834E379
:10CBB00000200146DEF80440A3464FE0432E51D149
:10CBC000DAF82000F0B34068E0B3011D05D04168F9
:10CBD00019B1C54A1268914244D1044648E0638ABB
:10CBE000934239D1009B13B9C4B12368B3B1D4F8CF
:10CBF00000C0D9F800309C4510D0DDF80080B8F1B5
:10CC0000000F29D054B1BCF1000F07D0DAF808802A
:10CC10000CEA080C03EA08039C451DD119B9237CD2
:10CC20005B0700D42146A38AB34215D1231D07D048
:10CC300063682BB1DFF8B0C2DCF800C063450BD1EC
:10CC400040B101E00EE039E0E268C260C4F80CB027
:10CC5000CEF8044024B10BE02046E468002CBED19D
:10CC60000C0005D1DAF80410D9F80000814225D172
:10CC70006FF00701284601F00DFEF8B94CB1A76925
:10CC8000E7B10096984B2A462146E069B847BDE8CF
:10CC9000F88F009890B999F80000C0F303100E289F
:10CCA0000CD03878082100F00F0001EB80012846F5
:10CCB00001F0F0FD0321284604F08FFB2846BDE873
:10CCC000F84F01F00CBD2DE9F047864B00256FF0C1
:10CCD00007085C680FE0A04201D101250AE0668ADE
:10CCE000964207D144B3276837B329B30E681EB301
:10CCF000B7422BD0E468002CEDD101B10968016086
:10CD00000ABB5E6800224FF6FF774FF440494FF4AC
:10CD1000804A1C88611C1980BC4201D1A3F8009094
:10CD200031461C880AE000BFB1F812C0A44504D106
:10CD3000521C92B25245ECD308E0C9680029F3D1E5
:10CD40002204120C02D042821DB105E04046BDE82B
:10CD5000F0875968C16058600020F8E72DE9FE4F60
:10CD60009246428ADDF8309098460E46044622B933
:10CD70000146FFF7A8FF002814D10821304601F032
:10CD800089FD88B100220821012001F0CAFC0500BC
:10CD900006D0308948B13146284601F0CEFD04E086
:10CDA0004FF0FF30BDE8FE8F3546608A6F6805F0B2
:10CDB00073FD3880404605F06FFD78800020F880D4
:10CDC0006CB1206858B1D9F8041088420AD0B54235
:10CDD00002D0284601F083FC6FF00500E2E709F17C
:10CDE000040800E0A046288905F056FDB880617A65
:10CDF00011228DE80602A37A52464146284604F0E5
:10CE0000E7FC0446B54202D0284601F068FC204603
:10CE1000C8E7F8B507461D460E461446104604F00E
:10CE200001FC38B100902B46224631463846FFF7C8
:10CE300095FFF8BD6FF00300F8BD838A021DE8E797
:10CE400070B51646428A0D46044622B90146FFF7E0
:10CE50003AFF002810D155B128686060A682207C76
:10CE6000204A40F0040020745068014606E000208B
:10CE7000F3E7844201D1002070BDC0680028F8D1DA
:10CE8000E1605460F7E7002141608182017C21F07C
:10CE9000040101747047C0E90612704711494A68DD
:10CEA000824209D1D2684A6008E0D16819B1814252
:10CEB00001D1C168D1600A46002AF6D1014601209D
:10CEC00001F0E6BA10B5012001F0CFFA040004D059
:10CED00020210FF064FAFF20A072204610BD000050
:10CEE00060040020C80300205C040020002812D049
:10CEF000018B4369FF220B44491C018383F8F02016
:10CF0000002205E043690B44491C018383F8F020AB
:10CF1000018B4429F6D370472DE9F04117460C46A2
:10CF200006000CD07CB100224FF49A71104601F03B
:10CF3000F8FB206150B1627BFE4952B10CE06FF00A
:10CF40000D00BDE8F0816FF00500FAE74FF0FF300B
:10CF5000F7E70A68521C0A600968216040680121ED
:10CF600060610170606900254170616996F82E006A
:10CF700088706069C570206805F092FC6169082FAF
:10CF8000486060690581606945816069C56008D055
:10CF9000042F06D0032F07D1207B052801D00428B9
:10CFA00002D161697068C860606905616069456146
:10CFB000606985615FF0000096F82E10814203D908
:10CFC000311891F82F1000E0002100F11C02636974
:10CFD000401C80B299541028EED3002000F12C019F
:10CFE0006269401C80B255544028F7D35FF00000BE
:10CFF00000F16C016269401C80B255548028F7D35F
:10D000006169CD48C1F8EC0025830020626900F118
:10D01000F0015054401C80B24428F7D3012235213E
:10D02000204600F0C6FD3946204600F0BAFD00203B
:10D0300087E7F8B5046A05460020606206212046AD
:10D0400000F0D8FD012221462846FFF765FF0600C3
:10D0500030D102223921204600F0ABFDA98D2046B7
:10D0600000F0B7FD04223721204600F0A2FD012187
:10D07000204600F096FD0321204600F092FD1C2181
:10D08000204600F08EFD0621204600F08AFD204655
:10D09000FFF72CFF208BF03081B2206901F0D3FB29
:10D0A00000954323A54A21696068FFF757FE204693
:10D0B00000F06CFD607B401CC0B26073062802D299
:10D0C0000121814000E03C2101EB4100C0EBC11097
:10D0D0004FF6FF7101EAC0004FF4FA7100F2F3104D
:10D0E000B0FBF1F060833046F8BD70B5046A0546C8
:10D0F0000821204600F07EFD002204F1240128468C
:10D1000004F084FE607B401C60730120608370BD6E
:10D1100070B50646886A0C46002819D00FF056F9FB
:10D12000002815D0318BA56AC1F14101884200D396
:10D130000846C4B222460C21304600F03AFD04E015
:10D1400015F8011B304600F02CFD641EE4B2F7D246
:10D1500070BD10B5028B44690B0E1444521C02833F
:10D1600084F8F030028B44690B0C1444521C028387
:10D1700084F8F030028B44690B0A1444521C028379
:10D1800084F8F030028B43691344521C028383F805
:10D19000F01010BDF8B5046A05460121204600F0E4
:10D1A00029FD032221462846FFF7B6FE06004CD192
:10D1B00002223921204600F0FCFCA98D204600F017
:10D1C00008FD04223221204600F0F3FC606A05F0DD
:10D1D00069FB01462046FFF7BCFF042236212046AA
:10D1E00000F0E7FC206A05F05DFB01462046FFF7F2
:10D1F000B0FF04223721204600F0DBFC012120464D
:10D2000000F0CFFC0321204600F0CBFC1C2120467F
:10D2100000F0C7FC0621204600F0C3FC294620464A
:10D22000FFF776FF2046FFF761FE208BF03081B2DA
:10D23000206901F008FB00954323404A216960689A
:10D24000FFF78CFD204600F0A1FC607B401CC0B2C3
:10D250006073062802D20121814000E03C2101EBED
:10D260004100C0EBC1104FF6FF7101EAC0004FF45E
:10D27000FA7100F2F310B0FBF1F060833046F8BDB4
:10D28000F8B5046A05460521204600F0B3FC0322E8
:10D2900021462846FFF740FE060020D10222392110
:10D2A000204600F086FCA98D204600F092FC29461D
:10D2B0002046FFF72DFF2046FFF718FE208BF030A9
:10D2C00081B2206901F0BFFA0095432304F12002E6
:10D2D00021696068FFF742FD204600F057FC607B43
:10D2E000401CC0B260730A2803D24FF4FA6148436D
:10D2F00001E044F6206080B24FF4FA7100F2F310BE
:10D30000B0FBF1F060833046F8BDF8B5046A05461D
:10D310000421204600F06EFC032221462846FFF738
:10D32000FBFD060026D102223921204600F041FCF7
:10D33000A98D05E0D003002063825363C8CB0108A8
:10D34000204600F046FC29462046FFF7E1FE204635
:10D35000FFF7CCFD208BF03081B2206901F073FA29
:10D3600000954323F74A21696068FFF7F7FC2046E0
:10D3700000F00CFC607B401CC0B260730A2803D232
:10D380004FF47A71484301E042F2107080B24FF4DA
:10D39000FA7100F2F310B0FBF1F060833046F8BD93
:10D3A000E94810B5046825E0216A11B3C88B421E14
:10D3B000CA83012806D0226A918B481E90830129D6
:10D3C0000CD016E0216A2046097B012903D00A29E6
:10D3D00001D005290DD1FFF798FF0AE0216A204608
:10D3E000097B012903D00A2901D0052901D1FFF7C2
:10D3F00047FF2468002CD7D110BDF8B5046A064653
:10D400000321204600F0F6FB032221463046FFF7B9
:10D4100083FD050028D102223921204600F0C9FBF6
:10D420004FF41071204600F0D4FB04223221204634
:10D4300000F0BFFB606A05F035FA01462046FFF7B1
:10D4400088FE2046FFF752FD208BF03081B2206924
:10D4500001F0F9F900964323BA4A21696068FFF7A1
:10D460007DFC204600F092FB607B401CC0B26073E4
:10D470000A2803D24FF47A71484301E042F2107057
:10D4800080B24FF4FA7100F2F310B0FBF1F0608358
:10D490002846F8BDF8B5046A05460021204600F08C
:10D4A000A9FB002020626062A062E062A06360636A
:10D4B0002063072221462846FFF72EFD060013D1E0
:10D4C0002046FFF713FD208BF03081B2206901F078
:10D4D000BAF90095432304F1200221696068FFF73F
:10D4E0003DFC204600F052FB607B401CC0B26073E4
:10D4F0000A2803D24FF47A71484301E042F21070D7
:10D5000080B24FF4FA7100F2F310B0FBF1F06083D7
:10D51000284601F046F88D49284600F0D6FF8B4991
:10D52000284600F0CAFF8949284600F0CAFF304665
:10D53000F8BD2DE9FC41050059D02C6A002C56D0CD
:10D54000616B4FF03C034F1C4FF480364FF00102EB
:10D550004FF6FF700AD01E31B1FBF3F1B14200D398
:10D5600001460904090CA18300D1A283A16B4F1CC1
:10D570000AD01E31B1FBF3F1B14200D301460904D8
:10D58000090CE18300D1E283A28BE18B8A4202D3B2
:10D5900009B10021A183A17B09B1A06A09E094F837
:10D5A00024107F2901D8FF2003E0C02901D36FF0A8
:10D5B0007F400090E06A019028B9606A00990840B5
:10D5C00040F08070019004F12401284600F07DFFB6
:10D5D0006946284600F075FF01A9284600F06DFF56
:10D5E000284601F02BF80A21204600F003FBBDE895
:10D5F000FC8170B55448002504680EE0206A58B1DB
:10D60000418B012903D9A1F10101418304E003D138
:10D610004583204600F0F6FA2468002CEED170BD58
:10D62000F8B5046A00204A4DA062E062E978A5F1ED
:10D63000280609B1F1682163297909B1316901E04E
:10D64000216B49086163697909B1716900E0216B57
:10D65000A163A16809696162A97921B1B06905F086
:10D660001FF9A0620120A073E87918B1F06905F0F4
:10D6700017F9E06200240BE006EB8400006A05F075
:10D680000FF900906946204600F040FB641CE4B2AC
:10D690002819007A002801D0022CEDD3F8BD70B50E
:10D6A0000C4605463C2120460EF079FE2C6270BDEA
:10D6B00010B50446006A002803D000F0ACFD00203D
:10D6C000206210BD10B5002813D050F8204F417DC6
:10D6D000002C21F0080141750BD0606818B1FFF7EC
:10D6E000DDFB002060602046BDE81040002100F016
:10D6F00081BA10BD2DE9FF5F044600208A460390E1
:10D700000A2113480EF04BFEBAF80A002C2821D348
:10D71000DAF80400A060BAF80800DFF83480F025D9
:10D720006FF00509574604E06A1A401A3F6895B23F
:10D7300080B27FB17989A942F6D90190D7F804B0B7
:10D74000B6E00000C8CB010800040020C4CB0108EB
:10D75000347E00206FF0010004B0BDE8F09F00BFF0
:10D76000A81C80B202907A89681C4FF0FF36824272
:10D7700003D90BEB0500407803E0386808B1406836
:10D780000078342904463AD00BDC032925D003DC89
:10D79000D1B101290DD11CE0062923D0332908D1AC
:10D7A00029E035292FD0362931D03A2933D03B29E9
:10D7B00037D000242844801C85B284B30020009018
:10D7C00018F8060060B363E000206D1E0446ADB299
:10D7D000F0E704284CD10626ECE70424042847D3BC
:10D7E0000726E7E7810743D1082800D30824A04291
:10D7F0003ED30826DEE704283AD10326DAE70128DB
:10D8000036D10026D6E7012832D10126D2E70428F6
:10D810002ED10226CEE704282AD10426CAE737E013
:10D8200003E0042824D10526C4E7042C01D22246B3
:10D8300000E0042269463846029B01F0E6F8042C19
:10D8400012D9A00714D1012108F80610009805F09C
:10D8500027F8FE49241FE4B241F826000298001D73
:10D8600080B2761C0290ABE7042C03D0012C05D0CB
:10D87000484671E7009805F015F801E09DF80000B2
:10D880000090012008F80600F048009940F82610A2
:10D890007889A8420BD8291A8DB20199081A80B24A
:10D8A000019085420CD258B13F68D7F804B03FB11F
:10D8B0001BF80510FF2903D001988542FFF450AFF3
:10D8C00098F8001051B1E1490022096888F8002059
:10D8D00001290DD0022904D0032907D0039800287C
:10D8E000C7D000202C2503906C201BE7012003905B
:10D8F0006C25EC2016E72DE9F0410446056A5089B5
:10D90000516816464FF000082C2872D30878022878
:10D910006FD1002094F82E2008E023180F1893F8F8
:10D920002F303F7FBB4264D1401CC0B28242F4D84A
:10D93000486804F0B7FF296888425AD13146284622
:10D94000FFF7D8FE00BBC14928314878E0B1BF4A93
:10D950001079052804D0062817D0022836D048E0D0
:10D96000287B012806D003280BD0042809D00528DD
:10D9700007D03EE02046FFF753FE2046FFF7B5FBF9
:10D9800037E02046FFF7D5FD33E0287B032805D09C
:10D99000012803D0042801D005282AD12046276A6F
:10D9A00000F0FFFDAA49204600F08FFDA84920465F
:10D9B00000F083FDA649204600F083FD0C21384687
:10D9C00000F018F92046FFF734FB12E0287B062808
:10D9D0000FD1A5F81A802746246A887848B1906844
:10D9E00004F05EFF2062A068006960623846FFF7BD
:10D9F000D1FB3046C5F80880BDE8F04100F06FBEAD
:10DA000070B505006FF00D0108D095F835002C6A4F
:10DA100020F0080085F83500800601D4084670BD66
:10DA2000A88D4FF0FF36B0F5107F2ED334B3606869
:10DA300008B1FFF733FA3C2120460EF0B0FCFFF7A7
:10DA400041FA606008B3017A442241F0200101727A
:10DA50007F496068FFF737F943227D496068FFF727
:10DA6000EFF92A467B496068FFF715FA2846FFF769
:10DA7000E0FA60B12846FFF725FE06E03C2000F002
:10DA800040FC040001D02C62D5E7304670BD15F88B
:10DA9000351F41F00801297070BD30B591B0050007
:10DAA00041D03C2101A80EF07AFC082101A800F029
:10DAB000A1F8286A08B144686CB9FFF703FA0400BA
:10DAC00031D00294207A442240F020002072604934
:10DAD0000298FFF7F8F8082201A92846FFF71CFA78
